{
  "contractName": "BlockEcosystem",
  "abi": [
    {
      "inputs": [],
      "payable": false,
      "stateMutability": "nonpayable",
      "type": "constructor"
    },
    {
      "anonymous": false,
      "inputs": [
        {
          "indexed": false,
          "internalType": "address",
          "name": "",
          "type": "address"
        }
      ],
      "name": "AddedFeedBack",
      "type": "event"
    },
    {
      "anonymous": false,
      "inputs": [
        {
          "indexed": false,
          "internalType": "address",
          "name": "",
          "type": "address"
        }
      ],
      "name": "AddedInteraction",
      "type": "event"
    },
    {
      "anonymous": false,
      "inputs": [
        {
          "indexed": false,
          "internalType": "address",
          "name": "",
          "type": "address"
        }
      ],
      "name": "RegisteredInstitution",
      "type": "event"
    },
    {
      "constant": false,
      "inputs": [],
      "name": "registerIndividual",
      "outputs": [],
      "payable": false,
      "stateMutability": "nonpayable",
      "type": "function"
    },
    {
      "constant": false,
      "inputs": [
        {
          "internalType": "address",
          "name": "newInstitution",
          "type": "address"
        }
      ],
      "name": "registerInstitution",
      "outputs": [],
      "payable": false,
      "stateMutability": "nonpayable",
      "type": "function"
    },
    {
      "constant": false,
      "inputs": [
        {
          "internalType": "bytes",
          "name": "interactionHash",
          "type": "bytes"
        },
        {
          "internalType": "address",
          "name": "recipient",
          "type": "address"
        }
      ],
      "name": "addInteraction",
      "outputs": [],
      "payable": false,
      "stateMutability": "nonpayable",
      "type": "function"
    },
    {
      "constant": true,
      "inputs": [
        {
          "internalType": "address",
          "name": "individual",
          "type": "address"
        }
      ],
      "name": "getInteraction",
      "outputs": [
        {
          "internalType": "bytes[]",
          "name": "",
          "type": "bytes[]"
        }
      ],
      "payable": false,
      "stateMutability": "view",
      "type": "function"
    },
    {
      "constant": false,
      "inputs": [
        {
          "internalType": "bytes",
          "name": "feedbackText",
          "type": "bytes"
        },
        {
          "internalType": "address",
          "name": "institution",
          "type": "address"
        }
      ],
      "name": "addFeedback",
      "outputs": [],
      "payable": false,
      "stateMutability": "nonpayable",
      "type": "function"
    },
    {
      "constant": true,
      "inputs": [
        {
          "internalType": "address",
          "name": "institution",
          "type": "address"
        }
      ],
      "name": "getFeedback",
      "outputs": [
        {
          "internalType": "bytes[]",
          "name": "",
          "type": "bytes[]"
        }
      ],
      "payable": false,
      "stateMutability": "view",
      "type": "function"
    },
    {
      "constant": true,
      "inputs": [
        {
          "internalType": "address",
          "name": "userAddress",
          "type": "address"
        }
      ],
      "name": "checkUserIdentity",
      "outputs": [
        {
          "internalType": "enum BlockEcosystem.Identity",
          "name": "",
          "type": "uint8"
        }
      ],
      "payable": false,
      "stateMutability": "view",
      "type": "function"
    }
  ],
  "bytecode": "0x608060405234801561001057600080fd5b50336000806101000a81548173ffffffffffffffffffffffffffffffffffffffff021916908373ffffffffffffffffffffffffffffffffffffffff1602179055506003600460003373ffffffffffffffffffffffffffffffffffffffff1673ffffffffffffffffffffffffffffffffffffffff16815260200190815260200160002060006101000a81548160ff021916908360038111156100ad57fe5b0217905550610e49806100c16000396000f3fe608060405234801561001057600080fd5b506004361061007d5760003560e01c8063c7b059a71161005b578063c7b059a7146100d8578063e3c1d73a146100f4578063f06d80fc14610124578063f72b1628146101405761007d565b80631b544934146100825780631d170429146100b2578063b6267ae8146100ce575b600080fd5b61009c60048036036100979190810190610932565b610170565b6040516100a99190610bdc565b60405180910390f35b6100cc60048036036100c7919081019061095b565b610298565b005b6100d661034f565b005b6100f260048036036100ed919081019061095b565b610457565b005b61010e60048036036101099190810190610932565b6105b3565b60405161011b9190610bfe565b60405180910390f35b61013e60048036036101399190810190610932565b610609565b005b61015a60048036036101559190810190610932565b6106fc565b6040516101679190610bdc565b60405180910390f35b6060600160008373ffffffffffffffffffffffffffffffffffffffff1673ffffffffffffffffffffffffffffffffffffffff168152602001908152602001600020805480602002602001604051908101604052809291908181526020016000905b8282101561028d578382906000526020600020018054600181600116156101000203166002900480601f0160208091040260200160405190810160405280929190818152602001828054600181600116156101000203166002900480156102795780601f1061024e57610100808354040283529160200191610279565b820191906000526020600020905b81548152906001019060200180831161025c57829003601f168201915b5050505050815260200190600101906101d1565b505050509050919050565b600260008273ffffffffffffffffffffffffffffffffffffffff1673ffffffffffffffffffffffffffffffffffffffff168152602001908152602001600020829080600181540180825580915050906001820390600052602060002001600090919290919091509080519060200190610312929190610824565b50507f1694ac9ddbd8f8348b506e1cdfa239bbcfc4c466066bc550e60b508aa109266e816040516103439190610bc1565b60405180910390a15050565b6000600381111561035c57fe5b600460003373ffffffffffffffffffffffffffffffffffffffff1673ffffffffffffffffffffffffffffffffffffffff16815260200190815260200160002060009054906101000a900460ff1660038111156103b457fe5b146103f4576040517f08c379a00000000000000000000000000000000000000000000000000000000081526004016103eb90610c39565b60405180910390fd5b6001600460003373ffffffffffffffffffffffffffffffffffffffff1673ffffffffffffffffffffffffffffffffffffffff16815260200190815260200160002060006101000a81548160ff0219169083600381111561045057fe5b0217905550565b6002600381111561046457fe5b600460003373ffffffffffffffffffffffffffffffffffffffff1673ffffffffffffffffffffffffffffffffffffffff16815260200190815260200160002060009054906101000a900460ff1660038111156104bc57fe5b146104fc576040517f08c379a00000000000000000000000000000000000000000000000000000000081526004016104f390610c59565b60405180910390fd5b600160008273ffffffffffffffffffffffffffffffffffffffff1673ffffffffffffffffffffffffffffffffffffffff168152602001908152602001600020829080600181540180825580915050906001820390600052602060002001600090919290919091509080519060200190610576929190610824565b50507f3996fb11798e0eb60ad7b5b88e49e61ec8a8ab3a6f6d16f8cec5012137246872816040516105a79190610bc1565b60405180910390a15050565b6000600460008373ffffffffffffffffffffffffffffffffffffffff1673ffffffffffffffffffffffffffffffffffffffff16815260200190815260200160002060009054906101000a900460ff169050919050565b6000809054906101000a900473ffffffffffffffffffffffffffffffffffffffff1673ffffffffffffffffffffffffffffffffffffffff163373ffffffffffffffffffffffffffffffffffffffff1614610698576040517f08c379a000000000000000000000000000000000000000000000000000000000815260040161068f90610c19565b60405180910390fd5b6002600460008373ffffffffffffffffffffffffffffffffffffffff1673ffffffffffffffffffffffffffffffffffffffff16815260200190815260200160002060006101000a81548160ff021916908360038111156106f457fe5b021790555050565b6060600260008373ffffffffffffffffffffffffffffffffffffffff1673ffffffffffffffffffffffffffffffffffffffff168152602001908152602001600020805480602002602001604051908101604052809291908181526020016000905b82821015610819578382906000526020600020018054600181600116156101000203166002900480601f0160208091040260200160405190810160405280929190818152602001828054600181600116156101000203166002900480156108055780601f106107da57610100808354040283529160200191610805565b820191906000526020600020905b8154815290600101906020018083116107e857829003601f168201915b50505050508152602001906001019061075d565b505050509050919050565b828054600181600116156101000203166002900490600052602060002090601f016020900481019282601f1061086557805160ff1916838001178555610893565b82800160010185558215610893579182015b82811115610892578251825591602001919060010190610877565b5b5090506108a091906108a4565b5090565b6108c691905b808211156108c25760008160009055506001016108aa565b5090565b90565b6000813590506108d881610def565b92915050565b600082601f8301126108ef57600080fd5b81356109026108fd82610ca6565b610c79565b9150808252602083016020830185838301111561091e57600080fd5b610929838284610d8f565b50505092915050565b60006020828403121561094457600080fd5b6000610952848285016108c9565b91505092915050565b6000806040838503121561096e57600080fd5b600083013567ffffffffffffffff81111561098857600080fd5b610994858286016108de565b92505060206109a5858286016108c9565b9150509250929050565b60006109bb8383610a47565b905092915050565b6109cc81610d38565b82525050565b60006109dd82610ce2565b6109e78185610d05565b9350836020820285016109f985610cd2565b8060005b85811015610a355784840389528151610a1685826109af565b9450610a2183610cf8565b925060208a019950506001810190506109fd565b50829750879550505050505092915050565b6000610a5282610ced565b610a5c8185610d16565b9350610a6c818560208601610d9e565b610a7581610dd1565b840191505092915050565b610a8981610d7d565b82525050565b6000610a9c603083610d27565b91507f4f6e6c7920636f6e7472616374206f776e65722068617320616363657373207460008301527f6f20746869732066756e6374696f6e21000000000000000000000000000000006020830152604082019050919050565b6000610b02603583610d27565b91507f4f6e6c7920756e7265676973746572656420756573727320686176652061636360008301527f65737320746f20746869732066756e6374696f6e2100000000000000000000006020830152604082019050919050565b6000610b68603a83610d27565b91507f4f6e6c79207265676973746572656420696e737469747574696f6e732068617660008301527f652061636365737320746f20746869732066756e6374696f6e210000000000006020830152604082019050919050565b6000602082019050610bd660008301846109c3565b92915050565b60006020820190508181036000830152610bf681846109d2565b905092915050565b6000602082019050610c136000830184610a80565b92915050565b60006020820190508181036000830152610c3281610a8f565b9050919050565b60006020820190508181036000830152610c5281610af5565b9050919050565b60006020820190508181036000830152610c7281610b5b565b9050919050565b6000604051905081810181811067ffffffffffffffff82111715610c9c57600080fd5b8060405250919050565b600067ffffffffffffffff821115610cbd57600080fd5b601f19601f8301169050602081019050919050565b6000819050602082019050919050565b600081519050919050565b600081519050919050565b6000602082019050919050565b600082825260208201905092915050565b600082825260208201905092915050565b600082825260208201905092915050565b6000610d4382610d5d565b9050919050565b6000819050610d5882610de2565b919050565b600073ffffffffffffffffffffffffffffffffffffffff82169050919050565b6000610d8882610d4a565b9050919050565b82818337600083830152505050565b60005b83811015610dbc578082015181840152602081019050610da1565b83811115610dcb576000848401525b50505050565b6000601f19601f8301169050919050565b60048110610dec57fe5b50565b610df881610d38565b8114610e0357600080fd5b5056fea365627a7a72315820f40e70467db5ab61c7438ee0919475f91aa1bce03e2820002126983e007b634a6c6578706572696d656e74616cf564736f6c63430005100040",
  "source": "pragma solidity ^0.5.0;\r\npragma experimental ABIEncoderV2;\r\n\r\nimport \"../node_modules/@openzeppelin/contracts/math/SafeMath.sol\";\r\n\r\ncontract BlockEcosystem {\r\n    using SafeMath for uint256;\r\n\r\n    address contractOwner;\r\n\r\n    enum Identity { undefined, individual, institution, owner }\r\n\r\n    constructor() public {\r\n        contractOwner = msg.sender;\r\n        userIdentity[msg.sender] = Identity.owner;\r\n    }\r\n\r\n    mapping(address => bytes[]) individualProfile;\r\n    mapping(address => bytes[]) organizationFeedback; \r\n    mapping(address => mapping(address => uint)) previousInteraction;\r\n\r\n    mapping(address => Identity) userIdentity;\r\n\r\n    event AddedInteraction(address);\r\n    event AddedFeedBack(address);\r\n    event RegisteredInstitution(address);\r\n\r\n    modifier isContractOwner() {\r\n        require(msg.sender == contractOwner, \"Only contract owner has access to this function!\");\r\n        _;\r\n    }\r\n\r\n    modifier isRegisteredInstitution () {\r\n        require(userIdentity[msg.sender] == Identity.institution, \"Only registered institutions have access to this function!\");\r\n        _;\r\n    }\r\n\r\n    modifier isUnregisteredUser() {\r\n        require(userIdentity[msg.sender] == Identity.undefined, \"Only unregistered uesrs have access to this function!\");\r\n        _;\r\n    }\r\n\r\n    function registerIndividual() public isUnregisteredUser() {\r\n        userIdentity[msg.sender] = Identity.individual;\r\n    }\r\n\r\n    function registerInstitution(address newInstitution) public isContractOwner() {\r\n        userIdentity[newInstitution] = Identity.institution;\r\n    }\r\n\r\n    function addInteraction(bytes memory interactionHash, address recipient) public isRegisteredInstitution() {\r\n        individualProfile[recipient].push(interactionHash);\r\n        emit AddedInteraction(recipient);\r\n    }\r\n\r\n    function getInteraction(address individual) public view returns (bytes[] memory) {\r\n        return individualProfile[individual];\r\n    }\r\n\r\n    function addFeedback(bytes memory feedbackText, address institution) public {\r\n        organizationFeedback[institution].push(feedbackText);\r\n        emit AddedFeedBack(institution);\r\n    }\r\n\r\n    function getFeedback(address institution) public view returns (bytes[] memory) {\r\n        return organizationFeedback[institution];\r\n    }\r\n\r\n    function checkUserIdentity(address userAddress) public view returns (Identity) {\r\n        return userIdentity[userAddress];\r\n    }\r\n\r\n}",
  "sourcePath": "C:\\Users\\Huang Ming\\Desktop\\LifeBlock (My Version)\\BackEnd\\contracts\\BlockEcosystem.sol",
  "compiler": {
    "name": "solc",
    "version": "0.5.16+commit.9c3226ce.Emscripten.clang"
  },
  "schemaVersion": "3.0.23",
  "updatedAt": "2020-03-29T08:01:36.045Z",
  "devdoc": {
    "methods": {}
  },
  "userdoc": {
    "methods": {}
  }
}