{
  "contractName": "BlockEcosystem",
  "abi": [
    {
      "inputs": [],
      "payable": false,
      "stateMutability": "nonpayable",
      "type": "constructor"
    },
    {
      "anonymous": false,
      "inputs": [
        {
          "indexed": false,
          "internalType": "address",
          "name": "",
          "type": "address"
        }
      ],
      "name": "AddedFeedBack",
      "type": "event"
    },
    {
      "anonymous": false,
      "inputs": [
        {
          "indexed": false,
          "internalType": "address",
          "name": "",
          "type": "address"
        }
      ],
      "name": "AddedInteraction",
      "type": "event"
    },
    {
      "anonymous": false,
      "inputs": [
        {
          "indexed": false,
          "internalType": "uint256",
          "name": "",
          "type": "uint256"
        },
        {
          "indexed": false,
          "internalType": "address",
          "name": "",
          "type": "address"
        }
      ],
      "name": "InvalidateFeedback",
      "type": "event"
    },
    {
      "anonymous": false,
      "inputs": [
        {
          "indexed": false,
          "internalType": "bytes",
          "name": "",
          "type": "bytes"
        }
      ],
      "name": "InvalidateInteraction",
      "type": "event"
    },
    {
      "anonymous": false,
      "inputs": [
        {
          "indexed": false,
          "internalType": "address",
          "name": "",
          "type": "address"
        }
      ],
      "name": "RegisteredInstitution",
      "type": "event"
    },
    {
      "constant": false,
      "inputs": [
        {
          "internalType": "address",
          "name": "institutionAddress",
          "type": "address"
        }
      ],
      "name": "approveCA",
      "outputs": [],
      "payable": false,
      "stateMutability": "nonpayable",
      "type": "function"
    },
    {
      "constant": false,
      "inputs": [
        {
          "internalType": "bytes",
          "name": "individualName",
          "type": "bytes"
        }
      ],
      "name": "registerIndividual",
      "outputs": [],
      "payable": false,
      "stateMutability": "nonpayable",
      "type": "function"
    },
    {
      "constant": false,
      "inputs": [
        {
          "internalType": "address",
          "name": "newInstitution",
          "type": "address"
        },
        {
          "internalType": "bytes",
          "name": "institutionName",
          "type": "bytes"
        }
      ],
      "name": "registerInstitution",
      "outputs": [],
      "payable": false,
      "stateMutability": "nonpayable",
      "type": "function"
    },
    {
      "constant": false,
      "inputs": [
        {
          "internalType": "bytes",
          "name": "interactionHash",
          "type": "bytes"
        },
        {
          "internalType": "uint256",
          "name": "timestamp",
          "type": "uint256"
        },
        {
          "internalType": "address",
          "name": "recipient",
          "type": "address"
        }
      ],
      "name": "addInteraction",
      "outputs": [],
      "payable": false,
      "stateMutability": "nonpayable",
      "type": "function"
    },
    {
      "constant": false,
      "inputs": [
        {
          "internalType": "bytes",
          "name": "interactionHash",
          "type": "bytes"
        },
        {
          "internalType": "address",
          "name": "recipient",
          "type": "address"
        }
      ],
      "name": "invalidateInteraction",
      "outputs": [],
      "payable": false,
      "stateMutability": "nonpayable",
      "type": "function"
    },
    {
      "constant": false,
      "inputs": [
        {
          "internalType": "bytes",
          "name": "feedbackText",
          "type": "bytes"
        },
        {
          "internalType": "uint256",
          "name": "timestamp",
          "type": "uint256"
        },
        {
          "internalType": "address",
          "name": "institution",
          "type": "address"
        }
      ],
      "name": "addFeedback",
      "outputs": [],
      "payable": false,
      "stateMutability": "nonpayable",
      "type": "function"
    },
    {
      "constant": false,
      "inputs": [
        {
          "internalType": "uint256",
          "name": "feedbackID",
          "type": "uint256"
        },
        {
          "internalType": "address",
          "name": "institution",
          "type": "address"
        }
      ],
      "name": "invalidateFeedback",
      "outputs": [],
      "payable": false,
      "stateMutability": "nonpayable",
      "type": "function"
    },
    {
      "constant": true,
      "inputs": [],
      "name": "getUploadedInteraction",
      "outputs": [
        {
          "components": [
            {
              "internalType": "bytes",
              "name": "interactionHash",
              "type": "bytes"
            },
            {
              "internalType": "uint256",
              "name": "dateTime",
              "type": "uint256"
            },
            {
              "internalType": "address",
              "name": "issuer",
              "type": "address"
            },
            {
              "internalType": "address",
              "name": "recipient",
              "type": "address"
            },
            {
              "internalType": "bool",
              "name": "isValid",
              "type": "bool"
            }
          ],
          "internalType": "struct BlockEcosystem.Interaction[]",
          "name": "",
          "type": "tuple[]"
        }
      ],
      "payable": false,
      "stateMutability": "view",
      "type": "function"
    },
    {
      "constant": true,
      "inputs": [],
      "name": "getAddedFeedback",
      "outputs": [
        {
          "components": [
            {
              "internalType": "uint256",
              "name": "id",
              "type": "uint256"
            },
            {
              "internalType": "bytes",
              "name": "text",
              "type": "bytes"
            },
            {
              "internalType": "uint256",
              "name": "dateTime",
              "type": "uint256"
            },
            {
              "internalType": "address",
              "name": "issuer",
              "type": "address"
            },
            {
              "internalType": "address",
              "name": "recipient",
              "type": "address"
            },
            {
              "internalType": "bool",
              "name": "isValid",
              "type": "bool"
            }
          ],
          "internalType": "struct BlockEcosystem.Feedback[]",
          "name": "",
          "type": "tuple[]"
        }
      ],
      "payable": false,
      "stateMutability": "view",
      "type": "function"
    },
    {
      "constant": true,
      "inputs": [
        {
          "internalType": "address",
          "name": "individual",
          "type": "address"
        }
      ],
      "name": "getInteraction",
      "outputs": [
        {
          "components": [
            {
              "internalType": "bytes",
              "name": "interactionHash",
              "type": "bytes"
            },
            {
              "internalType": "uint256",
              "name": "dateTime",
              "type": "uint256"
            },
            {
              "internalType": "address",
              "name": "issuer",
              "type": "address"
            },
            {
              "internalType": "address",
              "name": "recipient",
              "type": "address"
            },
            {
              "internalType": "bool",
              "name": "isValid",
              "type": "bool"
            }
          ],
          "internalType": "struct BlockEcosystem.Interaction[]",
          "name": "",
          "type": "tuple[]"
        }
      ],
      "payable": false,
      "stateMutability": "view",
      "type": "function"
    },
    {
      "constant": true,
      "inputs": [
        {
          "internalType": "address",
          "name": "institution",
          "type": "address"
        }
      ],
      "name": "getFeedback",
      "outputs": [
        {
          "components": [
            {
              "internalType": "uint256",
              "name": "id",
              "type": "uint256"
            },
            {
              "internalType": "bytes",
              "name": "text",
              "type": "bytes"
            },
            {
              "internalType": "uint256",
              "name": "dateTime",
              "type": "uint256"
            },
            {
              "internalType": "address",
              "name": "issuer",
              "type": "address"
            },
            {
              "internalType": "address",
              "name": "recipient",
              "type": "address"
            },
            {
              "internalType": "bool",
              "name": "isValid",
              "type": "bool"
            }
          ],
          "internalType": "struct BlockEcosystem.Feedback[]",
          "name": "",
          "type": "tuple[]"
        }
      ],
      "payable": false,
      "stateMutability": "view",
      "type": "function"
    },
    {
      "constant": true,
      "inputs": [
        {
          "internalType": "address",
          "name": "userAddress",
          "type": "address"
        }
      ],
      "name": "checkUserIdentity",
      "outputs": [
        {
          "internalType": "enum BlockEcosystem.Identity",
          "name": "",
          "type": "uint8"
        }
      ],
      "payable": false,
      "stateMutability": "view",
      "type": "function"
    },
    {
      "constant": true,
      "inputs": [
        {
          "internalType": "address",
          "name": "targettedAddress",
          "type": "address"
        }
      ],
      "name": "getName",
      "outputs": [
        {
          "internalType": "bytes",
          "name": "",
          "type": "bytes"
        }
      ],
      "payable": false,
      "stateMutability": "view",
      "type": "function"
    },
    {
      "constant": true,
      "inputs": [
        {
          "internalType": "address",
          "name": "targettedAddress",
          "type": "address"
        }
      ],
      "name": "getAuthorizedStatus",
      "outputs": [
        {
          "internalType": "bool",
          "name": "",
          "type": "bool"
        }
      ],
      "payable": false,
      "stateMutability": "view",
      "type": "function"
    }
  ],
  "bytecode": "0x60806040523480156200001157600080fd5b50336000806101000a81548173ffffffffffffffffffffffffffffffffffffffff021916908373ffffffffffffffffffffffffffffffffffffffff1602179055506003600260003373ffffffffffffffffffffffffffffffffffffffff1673ffffffffffffffffffffffffffffffffffffffff16815260200190815260200160002060006101000a81548160ff02191690836003811115620000af57fe5b02179055506001600460003373ffffffffffffffffffffffffffffffffffffffff1673ffffffffffffffffffffffffffffffffffffffff16815260200190815260200160002060006101000a81548160ff0219169083151502179055506040518060400160405280600681526020017f4953343330320000000000000000000000000000000000000000000000000000815250600360003373ffffffffffffffffffffffffffffffffffffffff1673ffffffffffffffffffffffffffffffffffffffff1681526020019081526020016000209080519060200190620001969291906200019d565b506200024c565b828054600181600116156101000203166002900490600052602060002090601f016020900481019282601f10620001e057805160ff191683800117855562000211565b8280016001018555821562000211579182015b8281111562000210578251825591602001919060010190620001f3565b5b50905062000220919062000224565b5090565b6200024991905b80821115620002455760008160009055506001016200022b565b5090565b90565b613633806200025c6000396000f3fe608060405234801561001057600080fd5b50600436106100ea5760003560e01c8063aa380ecc1161008c578063e3c1d73a11610066578063e3c1d73a14610247578063ec9c195714610277578063f041466514610293578063f72b1628146102af576100ea565b8063aa380ecc146101f1578063cc0a06c01461020f578063d61a8eee1461022b576100ea565b806331cf0d5d116100c857806331cf0d5d146101575780633ee9853d146101875780635fd4b08a146101a3578063835f1ab9146101d3576100ea565b806309c6c290146100ef57806319ea55011461010b5780631b54493414610127575b600080fd5b61010960048036036101049190810190612ab5565b6102df565b005b610125600480360361012091908101906129cc565b610894565b005b610141600480360361013c91908101906129a3565b610a86565b60405161014e9190613213565b60405180910390f35b610171600480360361016c91908101906129a3565b610c97565b60405161017e9190613235565b60405180910390f35b6101a1600480360361019c9190810190612a20565b610ced565b005b6101bd60048036036101b891908101906129a3565b610e4a565b6040516101ca9190613250565b60405180910390f35b6101db610f2b565b6040516101e89190613213565b60405180910390f35b6101f96111e1565b60405161020691906131f1565b60405180910390f35b610229600480360361022491908101906129a3565b61149f565b005b61024560048036036102409190810190612b1c565b611630565b005b610261600480360361025c91908101906129a3565b6119cb565b60405161026e9190613272565b60405180910390f35b610291600480360361028c9190810190612a61565b611a21565b005b6102ad60048036036102a89190810190612ab5565b611e11565b005b6102c960048036036102c491908101906129a3565b612428565b6040516102d691906131f1565b60405180910390f35b33600260038111156102ed57fe5b600260008373ffffffffffffffffffffffffffffffffffffffff1673ffffffffffffffffffffffffffffffffffffffff16815260200190815260200160002060009054906101000a900460ff16600381111561034557fe5b14610385576040517f08c379a000000000000000000000000000000000000000000000000000000000815260040161037c9061328d565b60405180910390fd5b61038d61273f565b6040518060a001604052808681526020018581526020013373ffffffffffffffffffffffffffffffffffffffff1681526020018473ffffffffffffffffffffffffffffffffffffffff168152602001600115158152509050600560008473ffffffffffffffffffffffffffffffffffffffff1673ffffffffffffffffffffffffffffffffffffffff1681526020019081526020016000208190806001815401808255809150509060018203906000526020600020906004020160009091929091909150600082015181600001908051906020019061046c92919061279c565b506020820151816001015560408201518160020160006101000a81548173ffffffffffffffffffffffffffffffffffffffff021916908373ffffffffffffffffffffffffffffffffffffffff16021790555060608201518160030160006101000a81548173ffffffffffffffffffffffffffffffffffffffff021916908373ffffffffffffffffffffffffffffffffffffffff16021790555060808201518160030160146101000a81548160ff0219169083151502179055505050506000600560008573ffffffffffffffffffffffffffffffffffffffff1673ffffffffffffffffffffffffffffffffffffffff16815260200190815260200160002080549050905060018103600660008673ffffffffffffffffffffffffffffffffffffffff1673ffffffffffffffffffffffffffffffffffffffff168152602001908152602001600020876040516105c091906131bf565b908152602001604051809103902081905550600960003373ffffffffffffffffffffffffffffffffffffffff1673ffffffffffffffffffffffffffffffffffffffff1681526020019081526020016000208290806001815401808255809150509060018203906000526020600020906004020160009091929091909150600082015181600001908051906020019061065992919061279c565b506020820151816001015560408201518160020160006101000a81548173ffffffffffffffffffffffffffffffffffffffff021916908373ffffffffffffffffffffffffffffffffffffffff16021790555060608201518160030160006101000a81548173ffffffffffffffffffffffffffffffffffffffff021916908373ffffffffffffffffffffffffffffffffffffffff16021790555060808201518160030160146101000a81548160ff0219169083151502179055505050506000600960003373ffffffffffffffffffffffffffffffffffffffff1673ffffffffffffffffffffffffffffffffffffffff16815260200190815260200160002080549050905060018103600a60003373ffffffffffffffffffffffffffffffffffffffff1673ffffffffffffffffffffffffffffffffffffffff168152602001908152602001600020886040516107ad91906131bf565b9081526020016040518091039020819055506001600d60008773ffffffffffffffffffffffffffffffffffffffff1673ffffffffffffffffffffffffffffffffffffffff16815260200190815260200160002060003373ffffffffffffffffffffffffffffffffffffffff1673ffffffffffffffffffffffffffffffffffffffff16815260200190815260200160002060006101000a81548160ff0219169083151502179055507f3996fb11798e0eb60ad7b5b88e49e61ec8a8ab3a6f6d16f8cec50121372468728560405161088391906131d6565b60405180910390a150505050505050565b60011515600460003373ffffffffffffffffffffffffffffffffffffffff1673ffffffffffffffffffffffffffffffffffffffff16815260200190815260200160002060009054906101000a900460ff16151514610927576040517f08c379a000000000000000000000000000000000000000000000000000000000815260040161091e9061332d565b60405180910390fd5b816000600381111561093557fe5b600260008373ffffffffffffffffffffffffffffffffffffffff1673ffffffffffffffffffffffffffffffffffffffff16815260200190815260200160002060009054906101000a900460ff16600381111561098d57fe5b146109cd576040517f08c379a00000000000000000000000000000000000000000000000000000000081526004016109c49061338d565b60405180910390fd5b60028060008573ffffffffffffffffffffffffffffffffffffffff1673ffffffffffffffffffffffffffffffffffffffff16815260200190815260200160002060006101000a81548160ff02191690836003811115610a2857fe5b021790555081600360008573ffffffffffffffffffffffffffffffffffffffff1673ffffffffffffffffffffffffffffffffffffffff1681526020019081526020016000209080519060200190610a8092919061281c565b50505050565b6060600560008373ffffffffffffffffffffffffffffffffffffffff1673ffffffffffffffffffffffffffffffffffffffff168152602001908152602001600020805480602002602001604051908101604052809291908181526020016000905b82821015610c8c57838290600052602060002090600402016040518060a0016040529081600082018054600181600116156101000203166002900480601f016020809104026020016040519081016040528092919081815260200182805460018160011615610100020316600290048015610ba35780601f10610b7857610100808354040283529160200191610ba3565b820191906000526020600020905b815481529060010190602001808311610b8657829003601f168201915b50505050508152602001600182015481526020016002820160009054906101000a900473ffffffffffffffffffffffffffffffffffffffff1673ffffffffffffffffffffffffffffffffffffffff1673ffffffffffffffffffffffffffffffffffffffff1681526020016003820160009054906101000a900473ffffffffffffffffffffffffffffffffffffffff1673ffffffffffffffffffffffffffffffffffffffff1673ffffffffffffffffffffffffffffffffffffffff1681526020016003820160149054906101000a900460ff16151515158152505081526020019060010190610ae7565b505050509050919050565b6000600460008373ffffffffffffffffffffffffffffffffffffffff1673ffffffffffffffffffffffffffffffffffffffff16815260200190815260200160002060009054906101000a900460ff169050919050565b60006003811115610cfa57fe5b600260003373ffffffffffffffffffffffffffffffffffffffff1673ffffffffffffffffffffffffffffffffffffffff16815260200190815260200160002060009054906101000a900460ff166003811115610d5257fe5b14610d92576040517f08c379a0000000000000000000000000000000000000000000000000000000008152600401610d899061338d565b60405180910390fd5b6001600260003373ffffffffffffffffffffffffffffffffffffffff1673ffffffffffffffffffffffffffffffffffffffff16815260200190815260200160002060006101000a81548160ff02191690836003811115610dee57fe5b021790555080600360003373ffffffffffffffffffffffffffffffffffffffff1673ffffffffffffffffffffffffffffffffffffffff1681526020019081526020016000209080519060200190610e4692919061281c565b5050565b6060600360008373ffffffffffffffffffffffffffffffffffffffff1673ffffffffffffffffffffffffffffffffffffffff1681526020019081526020016000208054600181600116156101000203166002900480601f016020809104026020016040519081016040528092919081815260200182805460018160011615610100020316600290048015610f1f5780601f10610ef457610100808354040283529160200191610f1f565b820191906000526020600020905b815481529060010190602001808311610f0257829003601f168201915b50505050509050919050565b60603360026003811115610f3b57fe5b600260008373ffffffffffffffffffffffffffffffffffffffff1673ffffffffffffffffffffffffffffffffffffffff16815260200190815260200160002060009054906101000a900460ff166003811115610f9357fe5b14610fd3576040517f08c379a0000000000000000000000000000000000000000000000000000000008152600401610fca9061328d565b60405180910390fd5b600960003373ffffffffffffffffffffffffffffffffffffffff1673ffffffffffffffffffffffffffffffffffffffff168152602001908152602001600020805480602002602001604051908101604052809291908181526020016000905b828210156111d757838290600052602060002090600402016040518060a0016040529081600082018054600181600116156101000203166002900480601f0160208091040260200160405190810160405280929190818152602001828054600181600116156101000203166002900480156110ee5780601f106110c3576101008083540402835291602001916110ee565b820191906000526020600020905b8154815290600101906020018083116110d157829003601f168201915b50505050508152602001600182015481526020016002820160009054906101000a900473ffffffffffffffffffffffffffffffffffffffff1673ffffffffffffffffffffffffffffffffffffffff1673ffffffffffffffffffffffffffffffffffffffff1681526020016003820160009054906101000a900473ffffffffffffffffffffffffffffffffffffffff1673ffffffffffffffffffffffffffffffffffffffff1673ffffffffffffffffffffffffffffffffffffffff1681526020016003820160149054906101000a900460ff16151515158152505081526020019060010190611032565b5050505091505090565b6060600160038111156111f057fe5b600260003373ffffffffffffffffffffffffffffffffffffffff1673ffffffffffffffffffffffffffffffffffffffff16815260200190815260200160002060009054906101000a900460ff16600381111561124857fe5b14611288576040517f08c379a000000000000000000000000000000000000000000000000000000000815260040161127f906132ad565b60405180910390fd5b600b60003373ffffffffffffffffffffffffffffffffffffffff1673ffffffffffffffffffffffffffffffffffffffff168152602001908152602001600020805480602002602001604051908101604052809291908181526020016000905b8282101561149657838290600052602060002090600502016040518060c001604052908160008201548152602001600182018054600181600116156101000203166002900480601f0160208091040260200160405190810160405280929190818152602001828054600181600116156101000203166002900480156113ad5780601f10611382576101008083540402835291602001916113ad565b820191906000526020600020905b81548152906001019060200180831161139057829003601f168201915b50505050508152602001600282015481526020016003820160009054906101000a900473ffffffffffffffffffffffffffffffffffffffff1673ffffffffffffffffffffffffffffffffffffffff1673ffffffffffffffffffffffffffffffffffffffff1681526020016004820160009054906101000a900473ffffffffffffffffffffffffffffffffffffffff1673ffffffffffffffffffffffffffffffffffffffff1673ffffffffffffffffffffffffffffffffffffffff1681526020016004820160149054906101000a900460ff161515151581525050815260200190600101906112e7565b50505050905090565b6000809054906101000a900473ffffffffffffffffffffffffffffffffffffffff1673ffffffffffffffffffffffffffffffffffffffff163373ffffffffffffffffffffffffffffffffffffffff161461152e576040517f08c379a00000000000000000000000000000000000000000000000000000000081526004016115259061336d565b60405180910390fd5b806002600381111561153c57fe5b600260008373ffffffffffffffffffffffffffffffffffffffff1673ffffffffffffffffffffffffffffffffffffffff16815260200190815260200160002060009054906101000a900460ff16600381111561159457fe5b146115d4576040517f08c379a00000000000000000000000000000000000000000000000000000000081526004016115cb9061328d565b60405180910390fd5b6001600460008473ffffffffffffffffffffffffffffffffffffffff1673ffffffffffffffffffffffffffffffffffffffff16815260200190815260200160002060006101000a81548160ff0219169083151502179055505050565b81816000600860008373ffffffffffffffffffffffffffffffffffffffff1673ffffffffffffffffffffffffffffffffffffffff16815260200190815260200160002060008481526020019081526020016000205490506000600760008473ffffffffffffffffffffffffffffffffffffffff1673ffffffffffffffffffffffffffffffffffffffff16815260200190815260200160002082815481106116d357fe5b906000526020600020906005020160030160009054906101000a900473ffffffffffffffffffffffffffffffffffffffff1690508073ffffffffffffffffffffffffffffffffffffffff163373ffffffffffffffffffffffffffffffffffffffff1614611775576040517f08c379a000000000000000000000000000000000000000000000000000000000815260040161176c9061334d565b60405180910390fd5b6000600860008773ffffffffffffffffffffffffffffffffffffffff1673ffffffffffffffffffffffffffffffffffffffff16815260200190815260200160002060008881526020019081526020016000205490506000600760008873ffffffffffffffffffffffffffffffffffffffff1673ffffffffffffffffffffffffffffffffffffffff168152602001908152602001600020828154811061181657fe5b906000526020600020906005020160040160146101000a81548160ff0219169083151502179055506000600760008873ffffffffffffffffffffffffffffffffffffffff1673ffffffffffffffffffffffffffffffffffffffff168152602001908152602001600020828154811061188a57fe5b906000526020600020906005020160030160009054906101000a900473ffffffffffffffffffffffffffffffffffffffff1690506000600c60008373ffffffffffffffffffffffffffffffffffffffff1673ffffffffffffffffffffffffffffffffffffffff16815260200190815260200160002060008a81526020019081526020016000205490506000600b60008473ffffffffffffffffffffffffffffffffffffffff1673ffffffffffffffffffffffffffffffffffffffff168152602001908152602001600020828154811061195f57fe5b906000526020600020906005020160040160146101000a81548160ff0219169083151502179055507f37bf27240c438d4479f915894da45e5b4f08ddf979fa0ec340c131be32d313c189896040516119b89291906133ad565b60405180910390a1505050505050505050565b6000600260008373ffffffffffffffffffffffffffffffffffffffff1673ffffffffffffffffffffffffffffffffffffffff16815260200190815260200160002060009054906101000a900460ff169050919050565b81816000600660008373ffffffffffffffffffffffffffffffffffffffff1673ffffffffffffffffffffffffffffffffffffffff16815260200190815260200160002083604051611a7291906131bf565b90815260200160405180910390205490506000600560008473ffffffffffffffffffffffffffffffffffffffff1673ffffffffffffffffffffffffffffffffffffffff1681526020019081526020016000208281548110611acf57fe5b906000526020600020906004020160020160009054906101000a900473ffffffffffffffffffffffffffffffffffffffff1690508273ffffffffffffffffffffffffffffffffffffffff163373ffffffffffffffffffffffffffffffffffffffff161480611b6857508073ffffffffffffffffffffffffffffffffffffffff163373ffffffffffffffffffffffffffffffffffffffff16145b611ba7576040517f08c379a0000000000000000000000000000000000000000000000000000000008152600401611b9e9061330d565b60405180910390fd5b6000600660008773ffffffffffffffffffffffffffffffffffffffff1673ffffffffffffffffffffffffffffffffffffffff16815260200190815260200160002087604051611bf691906131bf565b90815260200160405180910390205490506000600560008873ffffffffffffffffffffffffffffffffffffffff1673ffffffffffffffffffffffffffffffffffffffff1681526020019081526020016000208281548110611c5357fe5b906000526020600020906004020160030160146101000a81548160ff0219169083151502179055506000600560008873ffffffffffffffffffffffffffffffffffffffff1673ffffffffffffffffffffffffffffffffffffffff1681526020019081526020016000208281548110611cc757fe5b906000526020600020906004020160020160009054906101000a900473ffffffffffffffffffffffffffffffffffffffff1690506000600a60008373ffffffffffffffffffffffffffffffffffffffff1673ffffffffffffffffffffffffffffffffffffffff16815260200190815260200160002089604051611d4a91906131bf565b90815260200160405180910390205490506000600960008473ffffffffffffffffffffffffffffffffffffffff1673ffffffffffffffffffffffffffffffffffffffff1681526020019081526020016000208281548110611da757fe5b906000526020600020906004020160030160146101000a81548160ff0219169083151502179055507f21fad878da788fbcee4a7275fbf97dfb086b87190403f17439f8ccccd4e370ef89604051611dfe9190613250565b60405180910390a1505050505050505050565b60016003811115611e1e57fe5b600260003373ffffffffffffffffffffffffffffffffffffffff1673ffffffffffffffffffffffffffffffffffffffff16815260200190815260200160002060009054906101000a900460ff166003811115611e7657fe5b14611eb6576040517f08c379a0000000000000000000000000000000000000000000000000000000008152600401611ead906132ad565b60405180910390fd5b8060011515600d60003373ffffffffffffffffffffffffffffffffffffffff1673ffffffffffffffffffffffffffffffffffffffff16815260200190815260200160002060008373ffffffffffffffffffffffffffffffffffffffff1673ffffffffffffffffffffffffffffffffffffffff16815260200190815260200160002060009054906101000a900460ff16151514611f87576040517f08c379a0000000000000000000000000000000000000000000000000000000008152600401611f7e906132cd565b60405180910390fd5b60006001549050611fa3600180546126ea90919063ffffffff16565b600181905550611fb161289c565b6040518060c001604052808381526020018781526020018681526020013373ffffffffffffffffffffffffffffffffffffffff1681526020018573ffffffffffffffffffffffffffffffffffffffff168152602001600115158152509050600760008573ffffffffffffffffffffffffffffffffffffffff1673ffffffffffffffffffffffffffffffffffffffff16815260200190815260200160002081908060018154018082558091505090600182039060005260206000209060050201600090919290919091506000820151816000015560208201518160010190805190602001906120a092919061279c565b506040820151816002015560608201518160030160006101000a81548173ffffffffffffffffffffffffffffffffffffffff021916908373ffffffffffffffffffffffffffffffffffffffff16021790555060808201518160040160006101000a81548173ffffffffffffffffffffffffffffffffffffffff021916908373ffffffffffffffffffffffffffffffffffffffff16021790555060a08201518160040160146101000a81548160ff0219169083151502179055505050506000600760008673ffffffffffffffffffffffffffffffffffffffff1673ffffffffffffffffffffffffffffffffffffffff16815260200190815260200160002080549050905060018103600860008773ffffffffffffffffffffffffffffffffffffffff1673ffffffffffffffffffffffffffffffffffffffff168152602001908152602001600020600085815260200190815260200160002081905550600b60003373ffffffffffffffffffffffffffffffffffffffff1673ffffffffffffffffffffffffffffffffffffffff168152602001908152602001600020829080600181540180825580915050906001820390600052602060002090600502016000909192909190915060008201518160000155602082015181600101908051906020019061228c92919061279c565b506040820151816002015560608201518160030160006101000a81548173ffffffffffffffffffffffffffffffffffffffff021916908373ffffffffffffffffffffffffffffffffffffffff16021790555060808201518160040160006101000a81548173ffffffffffffffffffffffffffffffffffffffff021916908373ffffffffffffffffffffffffffffffffffffffff16021790555060a08201518160040160146101000a81548160ff0219169083151502179055505050506000600b60003373ffffffffffffffffffffffffffffffffffffffff1673ffffffffffffffffffffffffffffffffffffffff16815260200190815260200160002080549050905060018103600c60003373ffffffffffffffffffffffffffffffffffffffff1673ffffffffffffffffffffffffffffffffffffffff1681526020019081526020016000206000868152602001908152602001600020819055507f1694ac9ddbd8f8348b506e1cdfa239bbcfc4c466066bc550e60b508aa109266e8660405161241691906131d6565b60405180910390a15050505050505050565b6060816002600381111561243857fe5b600260008373ffffffffffffffffffffffffffffffffffffffff1673ffffffffffffffffffffffffffffffffffffffff16815260200190815260200160002060009054906101000a900460ff16600381111561249057fe5b146124d0576040517f08c379a00000000000000000000000000000000000000000000000000000000081526004016124c79061328d565b60405180910390fd5b600760008473ffffffffffffffffffffffffffffffffffffffff1673ffffffffffffffffffffffffffffffffffffffff168152602001908152602001600020805480602002602001604051908101604052809291908181526020016000905b828210156126de57838290600052602060002090600502016040518060c001604052908160008201548152602001600182018054600181600116156101000203166002900480601f0160208091040260200160405190810160405280929190818152602001828054600181600116156101000203166002900480156125f55780601f106125ca576101008083540402835291602001916125f5565b820191906000526020600020905b8154815290600101906020018083116125d857829003601f168201915b50505050508152602001600282015481526020016003820160009054906101000a900473ffffffffffffffffffffffffffffffffffffffff1673ffffffffffffffffffffffffffffffffffffffff1673ffffffffffffffffffffffffffffffffffffffff1681526020016004820160009054906101000a900473ffffffffffffffffffffffffffffffffffffffff1673ffffffffffffffffffffffffffffffffffffffff1673ffffffffffffffffffffffffffffffffffffffff1681526020016004820160149054906101000a900460ff1615151515815250508152602001906001019061252f565b50505050915050919050565b600080828401905083811015612735576040517f08c379a000000000000000000000000000000000000000000000000000000000815260040161272c906132ed565b60405180910390fd5b8091505092915050565b6040518060a001604052806060815260200160008152602001600073ffffffffffffffffffffffffffffffffffffffff168152602001600073ffffffffffffffffffffffffffffffffffffffff1681526020016000151581525090565b828054600181600116156101000203166002900490600052602060002090601f016020900481019282601f106127dd57805160ff191683800117855561280b565b8280016001018555821561280b579182015b8281111561280a5782518255916020019190600101906127ef565b5b5090506128189190612900565b5090565b828054600181600116156101000203166002900490600052602060002090601f016020900481019282601f1061285d57805160ff191683800117855561288b565b8280016001018555821561288b579182015b8281111561288a57825182559160200191906001019061286f565b5b5090506128989190612900565b5090565b6040518060c00160405280600081526020016060815260200160008152602001600073ffffffffffffffffffffffffffffffffffffffff168152602001600073ffffffffffffffffffffffffffffffffffffffff1681526020016000151581525090565b61292291905b8082111561291e576000816000905550600101612906565b5090565b90565b600081359050612934816135c2565b92915050565b600082601f83011261294b57600080fd5b813561295e61295982613403565b6133d6565b9150808252602083016020830185838301111561297a57600080fd5b612985838284613562565b50505092915050565b60008135905061299d816135d9565b92915050565b6000602082840312156129b557600080fd5b60006129c384828501612925565b91505092915050565b600080604083850312156129df57600080fd5b60006129ed85828601612925565b925050602083013567ffffffffffffffff811115612a0a57600080fd5b612a168582860161293a565b9150509250929050565b600060208284031215612a3257600080fd5b600082013567ffffffffffffffff811115612a4c57600080fd5b612a588482850161293a565b91505092915050565b60008060408385031215612a7457600080fd5b600083013567ffffffffffffffff811115612a8e57600080fd5b612a9a8582860161293a565b9250506020612aab85828601612925565b9150509250929050565b600080600060608486031215612aca57600080fd5b600084013567ffffffffffffffff811115612ae457600080fd5b612af08682870161293a565b9350506020612b018682870161298e565b9250506040612b1286828701612925565b9150509250925092565b60008060408385031215612b2f57600080fd5b6000612b3d8582860161298e565b9250506020612b4e85828601612925565b9150509250929050565b6000612b6483836130a2565b905092915050565b6000612b78838361312b565b905092915050565b612b89816134f5565b82525050565b612b98816134f5565b82525050565b6000612ba98261344f565b612bb38185613495565b935083602082028501612bc58561342f565b8060005b85811015612c015784840389528151612be28582612b58565b9450612bed8361347b565b925060208a01995050600181019050612bc9565b50829750879550505050505092915050565b6000612c1e8261345a565b612c2881856134a6565b935083602082028501612c3a8561343f565b8060005b85811015612c765784840389528151612c578582612b6c565b9450612c6283613488565b925060208a01995050600181019050612c3e565b50829750879550505050505092915050565b612c9181613507565b82525050565b612ca081613507565b82525050565b6000612cb182613470565b612cbb81856134c8565b9350612ccb818560208601613571565b612cd4816135a4565b840191505092915050565b6000612cea82613470565b612cf481856134d9565b9350612d04818560208601613571565b80840191505092915050565b6000612d1b82613465565b612d2581856134b7565b9350612d35818560208601613571565b612d3e816135a4565b840191505092915050565b612d5281613550565b82525050565b6000612d65601e836134e4565b91507f496e737469747574696f6e206973206e6f7420726567697374657265642100006000830152602082019050919050565b6000612da56039836134e4565b91507f4f6e6c79207265676973746572656420696e646976696475616c73206861766560008301527f2061636365737320746f20746869732066756e6374696f6e21000000000000006020830152604082019050919050565b6000612e0b603f836134e4565b91507f4f6e6c7920757365727320776974682070726576696f757320696e746572616360008301527f74696f6e732063616e2061636365737320746869732066756e6374696f6e21006020830152604082019050919050565b6000612e71601b836134e4565b91507f536166654d6174683a206164646974696f6e206f766572666c6f7700000000006000830152602082019050919050565b6000612eb1603e836134e4565b91507f4f6e6c792074686520726563697069656e74206f7220697373756572206f662060008301527f696e746572616374696f6e2063616e20696e76616c69646174652069742100006020830152604082019050919050565b6000612f176035836134e4565b91507f4f6e6c7920617574686f72697a6564207061727469657320686176652061636360008301527f65737320746f20746869732066756e6374696f6e2100000000000000000000006020830152604082019050919050565b6000612f7d6035836134e4565b91507f4f6e6c792074686520666565646261636b20697373756572206861732061636360008301527f65737320746f20746869732066756e6374696f6e2100000000000000000000006020830152604082019050919050565b6000612fe36030836134e4565b91507f4f6e6c7920636f6e7472616374206f776e65722068617320616363657373207460008301527f6f20746869732066756e6374696f6e21000000000000000000000000000000006020830152604082019050919050565b60006130496035836134e4565b91507f4f6e6c7920756e7265676973746572656420757365727320686176652061636360008301527f65737320746f20746869732066756e6374696f6e2100000000000000000000006020830152604082019050919050565b600060c0830160008301516130ba60008601826131a1565b50602083015184820360208601526130d28282612d10565b91505060408301516130e760408601826131a1565b5060608301516130fa6060860182612b80565b50608083015161310d6080860182612b80565b5060a083015161312060a0860182612c88565b508091505092915050565b600060a08301600083015184820360008601526131488282612d10565b915050602083015161315d60208601826131a1565b5060408301516131706040860182612b80565b5060608301516131836060860182612b80565b5060808301516131966080860182612c88565b508091505092915050565b6131aa81613546565b82525050565b6131b981613546565b82525050565b60006131cb8284612cdf565b915081905092915050565b60006020820190506131eb6000830184612b8f565b92915050565b6000602082019050818103600083015261320b8184612b9e565b905092915050565b6000602082019050818103600083015261322d8184612c13565b905092915050565b600060208201905061324a6000830184612c97565b92915050565b6000602082019050818103600083015261326a8184612ca6565b905092915050565b60006020820190506132876000830184612d49565b92915050565b600060208201905081810360008301526132a681612d58565b9050919050565b600060208201905081810360008301526132c681612d98565b9050919050565b600060208201905081810360008301526132e681612dfe565b9050919050565b6000602082019050818103600083015261330681612e64565b9050919050565b6000602082019050818103600083015261332681612ea4565b9050919050565b6000602082019050818103600083015261334681612f0a565b9050919050565b6000602082019050818103600083015261336681612f70565b9050919050565b6000602082019050818103600083015261338681612fd6565b9050919050565b600060208201905081810360008301526133a68161303c565b9050919050565b60006040820190506133c260008301856131b0565b6133cf6020830184612b8f565b9392505050565b6000604051905081810181811067ffffffffffffffff821117156133f957600080fd5b8060405250919050565b600067ffffffffffffffff82111561341a57600080fd5b601f19601f8301169050602081019050919050565b6000819050602082019050919050565b6000819050602082019050919050565b600081519050919050565b600081519050919050565b600081519050919050565b600081519050919050565b6000602082019050919050565b6000602082019050919050565b600082825260208201905092915050565b600082825260208201905092915050565b600082825260208201905092915050565b600082825260208201905092915050565b600081905092915050565b600082825260208201905092915050565b600061350082613526565b9050919050565b60008115159050919050565b6000819050613521826135b5565b919050565b600073ffffffffffffffffffffffffffffffffffffffff82169050919050565b6000819050919050565b600061355b82613513565b9050919050565b82818337600083830152505050565b60005b8381101561358f578082015181840152602081019050613574565b8381111561359e576000848401525b50505050565b6000601f19601f8301169050919050565b600481106135bf57fe5b50565b6135cb816134f5565b81146135d657600080fd5b50565b6135e281613546565b81146135ed57600080fd5b5056fea365627a7a7231582093d57288f6ee24f14f32d1cb63d654053da8c03407c92141e39faad12687564d6c6578706572696d656e74616cf564736f6c63430005100040",
  "source": "pragma solidity ^0.5.0;\r\npragma experimental ABIEncoderV2;\r\n\r\nimport \"../node_modules/@openzeppelin/contracts/math/SafeMath.sol\";\r\n\r\ncontract BlockEcosystem {\r\n    using SafeMath for uint256;\r\n\r\n    address contractOwner;\r\n\r\n    enum Identity { undefined, individual, institution, owner }\r\n\r\n    struct Interaction {\r\n        bytes interactionHash;\r\n        uint dateTime;\r\n        address issuer;\r\n        address recipient;\r\n        bool isValid;\r\n    }\r\n\r\n    struct Feedback {\r\n        uint id;\r\n        bytes text;\r\n        uint dateTime;\r\n        address issuer;\r\n        address recipient;\r\n        bool isValid;\r\n    }\r\n\r\n    uint256 numberFeedback;\r\n\r\n    constructor() public {\r\n        contractOwner = msg.sender;\r\n        userIdentity[msg.sender] = Identity.owner;\r\n        authorizedList[msg.sender] = true;\r\n        registeredName[msg.sender] = \"IS4302\";\r\n    }\r\n\r\n\r\n    mapping(address => Identity) userIdentity;\r\n    mapping(address => bytes) registeredName;\r\n\r\n    mapping(address => bool) authorizedList;\r\n    mapping(address => Interaction[]) individualProfile;\r\n    // maps to address to interaction hash to index\r\n    mapping(address => mapping(bytes => uint)) private _indexOfInteractionList;\r\n    mapping(address => Feedback[]) organizationFeedback; \r\n    // maps to address to feedback id to index\r\n    mapping(address => mapping(uint => uint)) private _indexOfFeedbackList;    \r\n    \r\n    mapping(address => Interaction[]) uploadedInteraction;\r\n    mapping(address => mapping(bytes => uint)) private _indexOfUploadedInteraction;\r\n\r\n    mapping(address => Feedback[]) addedFeedback;\r\n    mapping(address => mapping(uint => uint)) private _indexOfAddedFeedback;\r\n\r\n    mapping(address => mapping(address => bool)) hadInteraction;\r\n\r\n\r\n    event AddedInteraction(address);\r\n    event AddedFeedBack(address);\r\n    event RegisteredInstitution(address);\r\n    event InvalidateInteraction(bytes);\r\n    event InvalidateFeedback(uint, address);\r\n\r\n    modifier isContractOwner() {\r\n        require(msg.sender == contractOwner, \"Only contract owner has access to this function!\");\r\n        _;\r\n    }\r\n\r\n    // check if identity is either contract owner or CA\r\n    modifier isAuthorized() {\r\n        require(authorizedList[msg.sender] == true, \"Only authorized parties have access to this function!\");\r\n        _;\r\n    }\r\n\r\n    modifier eitherRecipientOrIssuer(bytes memory interactionHash, address recipient) {\r\n        uint interactionIndex = _indexOfInteractionList[recipient][interactionHash];\r\n        address issuer = individualProfile[recipient][interactionIndex].issuer;\r\n        require(msg.sender == recipient || msg.sender == issuer, \"Only the recipient or issuer of interaction can invalidate it!\");\r\n        _;\r\n    }\r\n\r\n    modifier isFeedbackIssuer(uint feedbackID, address institution) {\r\n        uint index = _indexOfFeedbackList[institution][feedbackID];\r\n        address owner = organizationFeedback[institution][index].issuer;\r\n        require(msg.sender == owner, \"Only the feedback issuer has access to this function!\");\r\n        _;\r\n    }\r\n\r\n    modifier isRegisteredInstitution (address institutionAddress) {\r\n        require(userIdentity[institutionAddress] == Identity.institution, \"Institution is not registered!\");\r\n        _;\r\n    }\r\n\r\n    modifier isRegisteredIndividual() {\r\n        require(userIdentity[msg.sender] == Identity.individual, \"Only registered individuals have access to this function!\");\r\n        _;\r\n    }\r\n\r\n    modifier isUnregisteredUser() {\r\n        require(userIdentity[msg.sender] == Identity.undefined, \"Only unregistered users have access to this function!\");\r\n        _;\r\n    }\r\n\r\n    modifier isUnregisteredUser_(address newAddress) {\r\n        require(userIdentity[newAddress] == Identity.undefined, \"Only unregistered users have access to this function!\");\r\n        _;\r\n    }\r\n\r\n    modifier hasPreviousInteraction(address institutionAddress) {\r\n        require(hadInteraction[msg.sender][institutionAddress] == true, \"Only users with previous interactions can access this function!\");\r\n        _;\r\n    }\r\n\r\n    // Can only be performed by contract owner, on registered institutions\r\n    function approveCA(address institutionAddress) public isContractOwner() isRegisteredInstitution(institutionAddress) {\r\n        authorizedList[institutionAddress] = true;\r\n    }\r\n\r\n    function registerIndividual(bytes memory individualName) public isUnregisteredUser() {\r\n        userIdentity[msg.sender] = Identity.individual;\r\n        registeredName[msg.sender] = individualName;\r\n    }\r\n\r\n    function registerInstitution(address newInstitution, bytes memory institutionName) public \r\n    isAuthorized() isUnregisteredUser_(newInstitution) {\r\n        userIdentity[newInstitution] = Identity.institution;\r\n        registeredName[newInstitution] = institutionName;\r\n    }\r\n\r\n    function addInteraction(bytes memory interactionHash, uint timestamp, address recipient) public isRegisteredInstitution(msg.sender) {\r\n        Interaction memory newInteraction = Interaction(interactionHash, timestamp, msg.sender, recipient, true);\r\n        individualProfile[recipient].push(newInteraction);\r\n        uint256 individualIndex = individualProfile[recipient].length;\r\n        _indexOfInteractionList[recipient][interactionHash] = individualIndex - 1;\r\n        \r\n        uploadedInteraction[msg.sender].push(newInteraction);\r\n        uint256 institutionIndex = uploadedInteraction[msg.sender].length;\r\n        _indexOfUploadedInteraction[msg.sender][interactionHash] = institutionIndex - 1;\r\n\r\n        hadInteraction[recipient][msg.sender] = true;\r\n        emit AddedInteraction(recipient);\r\n    }\r\n\r\n    function invalidateInteraction(bytes memory interactionHash, address recipient) public eitherRecipientOrIssuer(interactionHash, recipient) {\r\n        uint interactionIndex = _indexOfInteractionList[recipient][interactionHash];\r\n        individualProfile[recipient][interactionIndex].isValid = false;\r\n\r\n        address issuer = individualProfile[recipient][interactionIndex].issuer;\r\n        uint uploadedIndex = _indexOfUploadedInteraction[issuer][interactionHash];\r\n        uploadedInteraction[issuer][uploadedIndex].isValid = false;\r\n        emit InvalidateInteraction(interactionHash);\r\n    }\r\n\r\n    function addFeedback(bytes memory feedbackText, uint timestamp, address institution) public  \r\n    isRegisteredIndividual() hasPreviousInteraction(institution) {\r\n        uint newId = numberFeedback;\r\n        numberFeedback = numberFeedback.add(1); \r\n        Feedback memory newFeedback = Feedback(newId, feedbackText, timestamp, msg.sender, institution, true);\r\n        organizationFeedback[institution].push(newFeedback);\r\n        uint256 institutionIndex = organizationFeedback[institution].length;\r\n        _indexOfFeedbackList[institution][newId] = institutionIndex - 1;\r\n\r\n        addedFeedback[msg.sender].push(newFeedback);\r\n        uint256 individualIndex = addedFeedback[msg.sender].length;\r\n        _indexOfAddedFeedback[msg.sender][newId] = individualIndex - 1;\r\n        emit AddedFeedBack(institution);\r\n    }\r\n\r\n    function invalidateFeedback(uint feedbackID, address institution) public isFeedbackIssuer(feedbackID, institution){\r\n        uint feedbackIndex = _indexOfFeedbackList[institution][feedbackID];\r\n        organizationFeedback[institution][feedbackIndex].isValid = false;\r\n\r\n        address issuer = organizationFeedback[institution][feedbackIndex].issuer;\r\n        uint addedIndex = _indexOfAddedFeedback[issuer][feedbackID];\r\n        addedFeedback[issuer][addedIndex].isValid = false;\r\n        emit InvalidateFeedback(feedbackID, institution);\r\n    }\r\n\r\n\r\n    // For institutions to retrieve all the interactions they uploaded.\r\n    function getUploadedInteraction() public view isRegisteredInstitution(msg.sender) returns (Interaction[] memory) {\r\n        return uploadedInteraction[msg.sender];\r\n    }\r\n\r\n    // For users to retrieve all the feedback they added.\r\n    function getAddedFeedback() public view isRegisteredIndividual() returns (Feedback[] memory) {\r\n        return addedFeedback[msg.sender];\r\n    }\r\n\r\n    function getInteraction(address individual) public view returns (Interaction[] memory) {\r\n        return individualProfile[individual];\r\n    }\r\n\r\n    function getFeedback(address institution) public view isRegisteredInstitution(institution) returns (Feedback[] memory) {\r\n        return organizationFeedback[institution];\r\n    }\r\n\r\n    function checkUserIdentity(address userAddress) public view returns (Identity) {\r\n        return userIdentity[userAddress];\r\n    }\r\n\r\n    function getName(address targettedAddress) public view returns (bytes memory) {\r\n        return registeredName[targettedAddress];\r\n    }\r\n\r\n    function getAuthorizedStatus(address targettedAddress) public view returns (bool) {\r\n        return authorizedList[targettedAddress];\r\n    }   \r\n\r\n}",
  "sourcePath": "C:\\Users\\Huang Ming\\Desktop\\LifeBlock (My Version)\\BackEnd\\contracts\\BlockEcosystem.sol",
  "compiler": {
    "name": "solc",
    "version": "0.5.16+commit.9c3226ce.Emscripten.clang"
  },
  "schemaVersion": "3.0.23",
  "updatedAt": "2020-04-13T04:54:48.032Z",
  "devdoc": {
    "methods": {}
  },
  "userdoc": {
    "methods": {}
  }
}