{
  "contractName": "BlockEcosystem",
  "abi": [
    {
      "inputs": [],
      "payable": false,
      "stateMutability": "nonpayable",
      "type": "constructor"
    },
    {
      "anonymous": false,
      "inputs": [
        {
          "indexed": false,
          "internalType": "address",
          "name": "",
          "type": "address"
        }
      ],
      "name": "AddedFeedBack",
      "type": "event"
    },
    {
      "anonymous": false,
      "inputs": [
        {
          "indexed": false,
          "internalType": "address",
          "name": "",
          "type": "address"
        }
      ],
      "name": "AddedInteraction",
      "type": "event"
    },
    {
      "anonymous": false,
      "inputs": [
        {
          "indexed": false,
          "internalType": "uint256",
          "name": "",
          "type": "uint256"
        },
        {
          "indexed": false,
          "internalType": "address",
          "name": "",
          "type": "address"
        }
      ],
      "name": "InvalidateFeedback",
      "type": "event"
    },
    {
      "anonymous": false,
      "inputs": [
        {
          "indexed": false,
          "internalType": "bytes",
          "name": "",
          "type": "bytes"
        }
      ],
      "name": "InvalidateInteraction",
      "type": "event"
    },
    {
      "anonymous": false,
      "inputs": [
        {
          "indexed": false,
          "internalType": "address",
          "name": "",
          "type": "address"
        }
      ],
      "name": "RegisteredInstitution",
      "type": "event"
    },
    {
      "constant": false,
      "inputs": [
        {
          "internalType": "address",
          "name": "addressCA",
          "type": "address"
        }
      ],
      "name": "registerCA",
      "outputs": [],
      "payable": false,
      "stateMutability": "nonpayable",
      "type": "function"
    },
    {
      "constant": false,
      "inputs": [],
      "name": "registerIndividual",
      "outputs": [],
      "payable": false,
      "stateMutability": "nonpayable",
      "type": "function"
    },
    {
      "constant": false,
      "inputs": [
        {
          "internalType": "address",
          "name": "newInstitution",
          "type": "address"
        }
      ],
      "name": "registerInstitution",
      "outputs": [],
      "payable": false,
      "stateMutability": "nonpayable",
      "type": "function"
    },
    {
      "constant": false,
      "inputs": [
        {
          "internalType": "bytes",
          "name": "interactionHash",
          "type": "bytes"
        },
        {
          "internalType": "uint256",
          "name": "timestamp",
          "type": "uint256"
        },
        {
          "internalType": "address",
          "name": "recipient",
          "type": "address"
        }
      ],
      "name": "addInteraction",
      "outputs": [],
      "payable": false,
      "stateMutability": "nonpayable",
      "type": "function"
    },
    {
      "constant": false,
      "inputs": [
        {
          "internalType": "bytes",
          "name": "interactionHash",
          "type": "bytes"
        },
        {
          "internalType": "address",
          "name": "recipient",
          "type": "address"
        }
      ],
      "name": "invalidateInteraction",
      "outputs": [],
      "payable": false,
      "stateMutability": "nonpayable",
      "type": "function"
    },
    {
      "constant": false,
      "inputs": [
        {
          "internalType": "bytes",
          "name": "feedbackText",
          "type": "bytes"
        },
        {
          "internalType": "uint256",
          "name": "timestamp",
          "type": "uint256"
        },
        {
          "internalType": "address",
          "name": "institution",
          "type": "address"
        }
      ],
      "name": "addFeedback",
      "outputs": [],
      "payable": false,
      "stateMutability": "nonpayable",
      "type": "function"
    },
    {
      "constant": false,
      "inputs": [
        {
          "internalType": "uint256",
          "name": "feedbackID",
          "type": "uint256"
        },
        {
          "internalType": "address",
          "name": "institution",
          "type": "address"
        }
      ],
      "name": "invalidateFeedback",
      "outputs": [],
      "payable": false,
      "stateMutability": "nonpayable",
      "type": "function"
    },
    {
      "constant": true,
      "inputs": [],
      "name": "getUploadedInteraction",
      "outputs": [
        {
          "components": [
            {
              "internalType": "bytes",
              "name": "interactionHash",
              "type": "bytes"
            },
            {
              "internalType": "uint256",
              "name": "dateTime",
              "type": "uint256"
            },
            {
              "internalType": "address",
              "name": "issuer",
              "type": "address"
            },
            {
              "internalType": "bool",
              "name": "isValid",
              "type": "bool"
            }
          ],
          "internalType": "struct BlockEcosystem.Interaction[]",
          "name": "",
          "type": "tuple[]"
        }
      ],
      "payable": false,
      "stateMutability": "view",
      "type": "function"
    },
    {
      "constant": true,
      "inputs": [],
      "name": "getAddedFeedback",
      "outputs": [
        {
          "components": [
            {
              "internalType": "uint256",
              "name": "id",
              "type": "uint256"
            },
            {
              "internalType": "bytes",
              "name": "text",
              "type": "bytes"
            },
            {
              "internalType": "uint256",
              "name": "dateTime",
              "type": "uint256"
            },
            {
              "internalType": "address",
              "name": "owner",
              "type": "address"
            },
            {
              "internalType": "bool",
              "name": "isValid",
              "type": "bool"
            }
          ],
          "internalType": "struct BlockEcosystem.Feedback[]",
          "name": "",
          "type": "tuple[]"
        }
      ],
      "payable": false,
      "stateMutability": "view",
      "type": "function"
    },
    {
      "constant": true,
      "inputs": [
        {
          "internalType": "address",
          "name": "individual",
          "type": "address"
        }
      ],
      "name": "getInteraction",
      "outputs": [
        {
          "components": [
            {
              "internalType": "bytes",
              "name": "interactionHash",
              "type": "bytes"
            },
            {
              "internalType": "uint256",
              "name": "dateTime",
              "type": "uint256"
            },
            {
              "internalType": "address",
              "name": "issuer",
              "type": "address"
            },
            {
              "internalType": "bool",
              "name": "isValid",
              "type": "bool"
            }
          ],
          "internalType": "struct BlockEcosystem.Interaction[]",
          "name": "",
          "type": "tuple[]"
        }
      ],
      "payable": false,
      "stateMutability": "view",
      "type": "function"
    },
    {
      "constant": true,
      "inputs": [
        {
          "internalType": "address",
          "name": "institution",
          "type": "address"
        }
      ],
      "name": "getFeedback",
      "outputs": [
        {
          "components": [
            {
              "internalType": "uint256",
              "name": "id",
              "type": "uint256"
            },
            {
              "internalType": "bytes",
              "name": "text",
              "type": "bytes"
            },
            {
              "internalType": "uint256",
              "name": "dateTime",
              "type": "uint256"
            },
            {
              "internalType": "address",
              "name": "owner",
              "type": "address"
            },
            {
              "internalType": "bool",
              "name": "isValid",
              "type": "bool"
            }
          ],
          "internalType": "struct BlockEcosystem.Feedback[]",
          "name": "",
          "type": "tuple[]"
        }
      ],
      "payable": false,
      "stateMutability": "view",
      "type": "function"
    },
    {
      "constant": true,
      "inputs": [
        {
          "internalType": "address",
          "name": "userAddress",
          "type": "address"
        }
      ],
      "name": "checkUserIdentity",
      "outputs": [
        {
          "internalType": "enum BlockEcosystem.Identity",
          "name": "",
          "type": "uint8"
        }
      ],
      "payable": false,
      "stateMutability": "view",
      "type": "function"
    }
  ],
  "bytecode": "0x608060405234801561001057600080fd5b50336000806101000a81548173ffffffffffffffffffffffffffffffffffffffff021916908373ffffffffffffffffffffffffffffffffffffffff1602179055506003600260003373ffffffffffffffffffffffffffffffffffffffff1673ffffffffffffffffffffffffffffffffffffffff16815260200190815260200160002060006101000a81548160ff021916908360038111156100ad57fe5b02179055506001600360003373ffffffffffffffffffffffffffffffffffffffff1673ffffffffffffffffffffffffffffffffffffffff16815260200190815260200160002060006101000a81548160ff0219169083151502179055506128be806101196000396000f3fe608060405234801561001057600080fd5b50600436106100b45760003560e01c8063d61a8eee11610071578063d61a8eee14610167578063e3c1d73a14610183578063ec9c1957146101b3578063f0414665146101cf578063f06d80fc146101eb578063f72b162814610207576100b4565b806309c6c290146100b95780631b544934146100d557806355a0823114610105578063835f1ab914610121578063aa380ecc1461013f578063b6267ae81461015d575b600080fd5b6100d360048036036100ce9190810190611e76565b610237565b005b6100ef60048036036100ea9190810190611df9565b6106ad565b6040516100fc91906124f9565b60405180910390f35b61011f600480360361011a9190810190611df9565b610868565b005b6101296109f9565b60405161013691906124f9565b60405180910390f35b610147610c59565b60405161015491906124d7565b60405180910390f35b610165610ec1565b005b610181600480360361017c9190810190611edd565b610fc9565b005b61019d60048036036101989190810190611df9565b611219565b6040516101aa919061253d565b60405180910390f35b6101cd60048036036101c89190810190611e22565b61126f565b005b6101e960048036036101e49190810190611e76565b611509565b005b61020560048036036102009190810190611df9565b611994565b005b610221600480360361021c9190810190611df9565b611a8a565b60405161022e91906124d7565b60405180910390f35b336002600381111561024557fe5b600260008373ffffffffffffffffffffffffffffffffffffffff1673ffffffffffffffffffffffffffffffffffffffff16815260200190815260200160002060009054906101000a900460ff16600381111561029d57fe5b146102dd576040517f08c379a00000000000000000000000000000000000000000000000000000000081526004016102d490612578565b60405180910390fd5b6102e5611c4f565b60405180608001604052808681526020018581526020013373ffffffffffffffffffffffffffffffffffffffff168152602001600115158152509050600460008473ffffffffffffffffffffffffffffffffffffffff1673ffffffffffffffffffffffffffffffffffffffff168152602001908152602001600020819080600181540180825580915050906001820390600052602060002090600302016000909192909190915060008201518160000190805190602001906103a8929190611c8f565b506020820151816001015560408201518160020160006101000a81548173ffffffffffffffffffffffffffffffffffffffff021916908373ffffffffffffffffffffffffffffffffffffffff16021790555060608201518160020160146101000a81548160ff0219169083151502179055505050506000600460008573ffffffffffffffffffffffffffffffffffffffff1673ffffffffffffffffffffffffffffffffffffffff16815260200190815260200160002080549050905060018103600560008673ffffffffffffffffffffffffffffffffffffffff1673ffffffffffffffffffffffffffffffffffffffff168152602001908152602001600020876040516104b591906124a5565b908152602001604051809103902081905550600860003373ffffffffffffffffffffffffffffffffffffffff1673ffffffffffffffffffffffffffffffffffffffff1681526020019081526020016000208290806001815401808255809150509060018203906000526020600020906003020160009091929091909150600082015181600001908051906020019061054e929190611c8f565b506020820151816001015560408201518160020160006101000a81548173ffffffffffffffffffffffffffffffffffffffff021916908373ffffffffffffffffffffffffffffffffffffffff16021790555060608201518160020160146101000a81548160ff0219169083151502179055505050506000600860003373ffffffffffffffffffffffffffffffffffffffff1673ffffffffffffffffffffffffffffffffffffffff16815260200190815260200160002080549050905060018103600960003373ffffffffffffffffffffffffffffffffffffffff1673ffffffffffffffffffffffffffffffffffffffff1681526020019081526020016000208860405161065b91906124a5565b9081526020016040518091039020819055507f3996fb11798e0eb60ad7b5b88e49e61ec8a8ab3a6f6d16f8cec50121372468728560405161069c91906124bc565b60405180910390a150505050505050565b6060600460008373ffffffffffffffffffffffffffffffffffffffff1673ffffffffffffffffffffffffffffffffffffffff168152602001908152602001600020805480602002602001604051908101604052809291908181526020016000905b8282101561085d5783829060005260206000209060030201604051806080016040529081600082018054600181600116156101000203166002900480601f0160208091040260200160405190810160405280929190818152602001828054600181600116156101000203166002900480156107ca5780601f1061079f576101008083540402835291602001916107ca565b820191906000526020600020905b8154815290600101906020018083116107ad57829003601f168201915b50505050508152602001600182015481526020016002820160009054906101000a900473ffffffffffffffffffffffffffffffffffffffff1673ffffffffffffffffffffffffffffffffffffffff1673ffffffffffffffffffffffffffffffffffffffff1681526020016002820160149054906101000a900460ff1615151515815250508152602001906001019061070e565b505050509050919050565b6000809054906101000a900473ffffffffffffffffffffffffffffffffffffffff1673ffffffffffffffffffffffffffffffffffffffff163373ffffffffffffffffffffffffffffffffffffffff16146108f7576040517f08c379a00000000000000000000000000000000000000000000000000000000081526004016108ee906125d8565b60405180910390fd5b806002600381111561090557fe5b600260008373ffffffffffffffffffffffffffffffffffffffff1673ffffffffffffffffffffffffffffffffffffffff16815260200190815260200160002060009054906101000a900460ff16600381111561095d57fe5b1461099d576040517f08c379a000000000000000000000000000000000000000000000000000000000815260040161099490612578565b60405180910390fd5b6001600360008473ffffffffffffffffffffffffffffffffffffffff1673ffffffffffffffffffffffffffffffffffffffff16815260200190815260200160002060006101000a81548160ff0219169083151502179055505050565b60603360026003811115610a0957fe5b600260008373ffffffffffffffffffffffffffffffffffffffff1673ffffffffffffffffffffffffffffffffffffffff16815260200190815260200160002060009054906101000a900460ff166003811115610a6157fe5b14610aa1576040517f08c379a0000000000000000000000000000000000000000000000000000000008152600401610a9890612578565b60405180910390fd5b600860003373ffffffffffffffffffffffffffffffffffffffff1673ffffffffffffffffffffffffffffffffffffffff168152602001908152602001600020805480602002602001604051908101604052809291908181526020016000905b82821015610c4f5783829060005260206000209060030201604051806080016040529081600082018054600181600116156101000203166002900480601f016020809104026020016040519081016040528092919081815260200182805460018160011615610100020316600290048015610bbc5780601f10610b9157610100808354040283529160200191610bbc565b820191906000526020600020905b815481529060010190602001808311610b9f57829003601f168201915b50505050508152602001600182015481526020016002820160009054906101000a900473ffffffffffffffffffffffffffffffffffffffff1673ffffffffffffffffffffffffffffffffffffffff1673ffffffffffffffffffffffffffffffffffffffff1681526020016002820160149054906101000a900460ff16151515158152505081526020019060010190610b00565b5050505091505090565b606060016003811115610c6857fe5b600260003373ffffffffffffffffffffffffffffffffffffffff1673ffffffffffffffffffffffffffffffffffffffff16815260200190815260200160002060009054906101000a900460ff166003811115610cc057fe5b14610d00576040517f08c379a0000000000000000000000000000000000000000000000000000000008152600401610cf790612618565b60405180910390fd5b600a60003373ffffffffffffffffffffffffffffffffffffffff1673ffffffffffffffffffffffffffffffffffffffff168152602001908152602001600020805480602002602001604051908101604052809291908181526020016000905b82821015610eb857838290600052602060002090600402016040518060a001604052908160008201548152602001600182018054600181600116156101000203166002900480601f016020809104026020016040519081016040528092919081815260200182805460018160011615610100020316600290048015610e255780601f10610dfa57610100808354040283529160200191610e25565b820191906000526020600020905b815481529060010190602001808311610e0857829003601f168201915b50505050508152602001600282015481526020016003820160009054906101000a900473ffffffffffffffffffffffffffffffffffffffff1673ffffffffffffffffffffffffffffffffffffffff1673ffffffffffffffffffffffffffffffffffffffff1681526020016003820160149054906101000a900460ff16151515158152505081526020019060010190610d5f565b50505050905090565b60006003811115610ece57fe5b600260003373ffffffffffffffffffffffffffffffffffffffff1673ffffffffffffffffffffffffffffffffffffffff16815260200190815260200160002060009054906101000a900460ff166003811115610f2657fe5b14610f66576040517f08c379a0000000000000000000000000000000000000000000000000000000008152600401610f5d906125f8565b60405180910390fd5b6001600260003373ffffffffffffffffffffffffffffffffffffffff1673ffffffffffffffffffffffffffffffffffffffff16815260200190815260200160002060006101000a81548160ff02191690836003811115610fc257fe5b0217905550565b81816000600760008373ffffffffffffffffffffffffffffffffffffffff1673ffffffffffffffffffffffffffffffffffffffff16815260200190815260200160002060008481526020019081526020016000205490506000600660008473ffffffffffffffffffffffffffffffffffffffff1673ffffffffffffffffffffffffffffffffffffffff168152602001908152602001600020828154811061106c57fe5b906000526020600020906004020160030160009054906101000a900473ffffffffffffffffffffffffffffffffffffffff1690508073ffffffffffffffffffffffffffffffffffffffff163373ffffffffffffffffffffffffffffffffffffffff161461110e576040517f08c379a000000000000000000000000000000000000000000000000000000000815260040161110590612558565b60405180910390fd5b6000600760008773ffffffffffffffffffffffffffffffffffffffff1673ffffffffffffffffffffffffffffffffffffffff16815260200190815260200160002060008881526020019081526020016000205490506000600660008873ffffffffffffffffffffffffffffffffffffffff1673ffffffffffffffffffffffffffffffffffffffff16815260200190815260200160002082815481106111af57fe5b906000526020600020906004020160030160146101000a81548160ff0219169083151502179055507f37bf27240c438d4479f915894da45e5b4f08ddf979fa0ec340c131be32d313c18787604051611208929190612638565b60405180910390a150505050505050565b6000600260008373ffffffffffffffffffffffffffffffffffffffff1673ffffffffffffffffffffffffffffffffffffffff16815260200190815260200160002060009054906101000a900460ff169050919050565b81816000600560008373ffffffffffffffffffffffffffffffffffffffff1673ffffffffffffffffffffffffffffffffffffffff168152602001908152602001600020836040516112c091906124a5565b90815260200160405180910390205490506000600460008473ffffffffffffffffffffffffffffffffffffffff1673ffffffffffffffffffffffffffffffffffffffff168152602001908152602001600020828154811061131d57fe5b906000526020600020906003020160020160009054906101000a900473ffffffffffffffffffffffffffffffffffffffff1690508273ffffffffffffffffffffffffffffffffffffffff163373ffffffffffffffffffffffffffffffffffffffff1614806113b657508073ffffffffffffffffffffffffffffffffffffffff163373ffffffffffffffffffffffffffffffffffffffff16145b6113f5576040517f08c379a00000000000000000000000000000000000000000000000000000000081526004016113ec90612598565b60405180910390fd5b6000600560008773ffffffffffffffffffffffffffffffffffffffff1673ffffffffffffffffffffffffffffffffffffffff1681526020019081526020016000208760405161144491906124a5565b90815260200160405180910390205490506000600460008873ffffffffffffffffffffffffffffffffffffffff1673ffffffffffffffffffffffffffffffffffffffff16815260200190815260200160002082815481106114a157fe5b906000526020600020906003020160020160146101000a81548160ff0219169083151502179055507f21fad878da788fbcee4a7275fbf97dfb086b87190403f17439f8ccccd4e370ef876040516114f8919061251b565b60405180910390a150505050505050565b6001600381111561151657fe5b600260003373ffffffffffffffffffffffffffffffffffffffff1673ffffffffffffffffffffffffffffffffffffffff16815260200190815260200160002060009054906101000a900460ff16600381111561156e57fe5b146115ae576040517f08c379a00000000000000000000000000000000000000000000000000000000081526004016115a590612618565b60405180910390fd5b6000600154905060018054016001819055506115c8611d0f565b6040518060a001604052808381526020018681526020018581526020013373ffffffffffffffffffffffffffffffffffffffff168152602001600115158152509050600660008473ffffffffffffffffffffffffffffffffffffffff1673ffffffffffffffffffffffffffffffffffffffff168152602001908152602001600020819080600181540180825580915050906001820390600052602060002090600402016000909192909190915060008201518160000155602082015181600101908051906020019061169b929190611c8f565b506040820151816002015560608201518160030160006101000a81548173ffffffffffffffffffffffffffffffffffffffff021916908373ffffffffffffffffffffffffffffffffffffffff16021790555060808201518160030160146101000a81548160ff0219169083151502179055505050506000600660008573ffffffffffffffffffffffffffffffffffffffff1673ffffffffffffffffffffffffffffffffffffffff16815260200190815260200160002080549050905060018103600760008673ffffffffffffffffffffffffffffffffffffffff1673ffffffffffffffffffffffffffffffffffffffff168152602001908152602001600020600085815260200190815260200160002081905550600a60003373ffffffffffffffffffffffffffffffffffffffff1673ffffffffffffffffffffffffffffffffffffffff1681526020019081526020016000208290806001815401808255809150509060018203906000526020600020906004020160009091929091909150600082015181600001556020820151816001019080519060200190611840929190611c8f565b506040820151816002015560608201518160030160006101000a81548173ffffffffffffffffffffffffffffffffffffffff021916908373ffffffffffffffffffffffffffffffffffffffff16021790555060808201518160030160146101000a81548160ff0219169083151502179055505050506000600a60003373ffffffffffffffffffffffffffffffffffffffff1673ffffffffffffffffffffffffffffffffffffffff16815260200190815260200160002080549050905060018103600b60003373ffffffffffffffffffffffffffffffffffffffff1673ffffffffffffffffffffffffffffffffffffffff1681526020019081526020016000206000868152602001908152602001600020819055507f1694ac9ddbd8f8348b506e1cdfa239bbcfc4c466066bc550e60b508aa109266e8560405161198391906124bc565b60405180910390a150505050505050565b60011515600360003373ffffffffffffffffffffffffffffffffffffffff1673ffffffffffffffffffffffffffffffffffffffff16815260200190815260200160002060009054906101000a900460ff16151514611a27576040517f08c379a0000000000000000000000000000000000000000000000000000000008152600401611a1e906125b8565b60405180910390fd5b60028060008373ffffffffffffffffffffffffffffffffffffffff1673ffffffffffffffffffffffffffffffffffffffff16815260200190815260200160002060006101000a81548160ff02191690836003811115611a8257fe5b021790555050565b6060600660008373ffffffffffffffffffffffffffffffffffffffff1673ffffffffffffffffffffffffffffffffffffffff168152602001908152602001600020805480602002602001604051908101604052809291908181526020016000905b82821015611c4457838290600052602060002090600402016040518060a001604052908160008201548152602001600182018054600181600116156101000203166002900480601f016020809104026020016040519081016040528092919081815260200182805460018160011615610100020316600290048015611bb15780601f10611b8657610100808354040283529160200191611bb1565b820191906000526020600020905b815481529060010190602001808311611b9457829003601f168201915b50505050508152602001600282015481526020016003820160009054906101000a900473ffffffffffffffffffffffffffffffffffffffff1673ffffffffffffffffffffffffffffffffffffffff1673ffffffffffffffffffffffffffffffffffffffff1681526020016003820160149054906101000a900460ff16151515158152505081526020019060010190611aeb565b505050509050919050565b60405180608001604052806060815260200160008152602001600073ffffffffffffffffffffffffffffffffffffffff1681526020016000151581525090565b828054600181600116156101000203166002900490600052602060002090601f016020900481019282601f10611cd057805160ff1916838001178555611cfe565b82800160010185558215611cfe579182015b82811115611cfd578251825591602001919060010190611ce2565b5b509050611d0b9190611d56565b5090565b6040518060a00160405280600081526020016060815260200160008152602001600073ffffffffffffffffffffffffffffffffffffffff1681526020016000151581525090565b611d7891905b80821115611d74576000816000905550600101611d5c565b5090565b90565b600081359050611d8a8161284d565b92915050565b600082601f830112611da157600080fd5b8135611db4611daf8261268e565b612661565b91508082526020830160208301858383011115611dd057600080fd5b611ddb8382846127ed565b50505092915050565b600081359050611df381612864565b92915050565b600060208284031215611e0b57600080fd5b6000611e1984828501611d7b565b91505092915050565b60008060408385031215611e3557600080fd5b600083013567ffffffffffffffff811115611e4f57600080fd5b611e5b85828601611d90565b9250506020611e6c85828601611d7b565b9150509250929050565b600080600060608486031215611e8b57600080fd5b600084013567ffffffffffffffff811115611ea557600080fd5b611eb186828701611d90565b9350506020611ec286828701611de4565b9250506040611ed386828701611d7b565b9150509250925092565b60008060408385031215611ef057600080fd5b6000611efe85828601611de4565b9250506020611f0f85828601611d7b565b9150509250929050565b6000611f2583836123ae565b905092915050565b6000611f398383612424565b905092915050565b611f4a81612780565b82525050565b611f5981612780565b82525050565b6000611f6a826126da565b611f748185612720565b935083602082028501611f86856126ba565b8060005b85811015611fc25784840389528151611fa38582611f19565b9450611fae83612706565b925060208a01995050600181019050611f8a565b50829750879550505050505092915050565b6000611fdf826126e5565b611fe98185612731565b935083602082028501611ffb856126ca565b8060005b8581101561203757848403895281516120188582611f2d565b945061202383612713565b925060208a01995050600181019050611fff565b50829750879550505050505092915050565b61205281612792565b82525050565b6000612063826126fb565b61206d8185612753565b935061207d8185602086016127fc565b6120868161282f565b840191505092915050565b600061209c826126fb565b6120a68185612764565b93506120b68185602086016127fc565b80840191505092915050565b60006120cd826126f0565b6120d78185612742565b93506120e78185602086016127fc565b6120f08161282f565b840191505092915050565b612104816127db565b82525050565b600061211760348361276f565b91507f4f6e6c792074686520666565646261636b206f776e657220686173206163636560008301527f737320746f20746869732066756e6374696f6e210000000000000000000000006020830152604082019050919050565b600061217d601e8361276f565b91507f496e737469747574696f6e206973206e6f7420726567697374657265642100006000830152602082019050919050565b60006121bd603e8361276f565b91507f4f6e6c792074686520726563697069656e74206f7220697373756572206f662060008301527f696e746572616374696f6e2063616e20696e76616c69646174652069742100006020830152604082019050919050565b600061222360358361276f565b91507f4f6e6c7920617574686f72697a6564207061727469657320686176652061636360008301527f65737320746f20746869732066756e6374696f6e2100000000000000000000006020830152604082019050919050565b600061228960308361276f565b91507f4f6e6c7920636f6e7472616374206f776e65722068617320616363657373207460008301527f6f20746869732066756e6374696f6e21000000000000000000000000000000006020830152604082019050919050565b60006122ef60358361276f565b91507f4f6e6c7920756e7265676973746572656420756573727320686176652061636360008301527f65737320746f20746869732066756e6374696f6e2100000000000000000000006020830152604082019050919050565b600061235560338361276f565b91507f4f6e6c792072656769737465726564207565737273206861766520616363657360008301527f7320746f20746869732066756e6374696f6e21000000000000000000000000006020830152604082019050919050565b600060a0830160008301516123c66000860182612487565b50602083015184820360208601526123de82826120c2565b91505060408301516123f36040860182612487565b5060608301516124066060860182611f41565b5060808301516124196080860182612049565b508091505092915050565b6000608083016000830151848203600086015261244182826120c2565b91505060208301516124566020860182612487565b5060408301516124696040860182611f41565b50606083015161247c6060860182612049565b508091505092915050565b612490816127d1565b82525050565b61249f816127d1565b82525050565b60006124b18284612091565b915081905092915050565b60006020820190506124d16000830184611f50565b92915050565b600060208201905081810360008301526124f18184611f5f565b905092915050565b600060208201905081810360008301526125138184611fd4565b905092915050565b600060208201905081810360008301526125358184612058565b905092915050565b600060208201905061255260008301846120fb565b92915050565b600060208201905081810360008301526125718161210a565b9050919050565b6000602082019050818103600083015261259181612170565b9050919050565b600060208201905081810360008301526125b1816121b0565b9050919050565b600060208201905081810360008301526125d181612216565b9050919050565b600060208201905081810360008301526125f18161227c565b9050919050565b60006020820190508181036000830152612611816122e2565b9050919050565b6000602082019050818103600083015261263181612348565b9050919050565b600060408201905061264d6000830185612496565b61265a6020830184611f50565b9392505050565b6000604051905081810181811067ffffffffffffffff8211171561268457600080fd5b8060405250919050565b600067ffffffffffffffff8211156126a557600080fd5b601f19601f8301169050602081019050919050565b6000819050602082019050919050565b6000819050602082019050919050565b600081519050919050565b600081519050919050565b600081519050919050565b600081519050919050565b6000602082019050919050565b6000602082019050919050565b600082825260208201905092915050565b600082825260208201905092915050565b600082825260208201905092915050565b600082825260208201905092915050565b600081905092915050565b600082825260208201905092915050565b600061278b826127b1565b9050919050565b60008115159050919050565b60008190506127ac82612840565b919050565b600073ffffffffffffffffffffffffffffffffffffffff82169050919050565b6000819050919050565b60006127e68261279e565b9050919050565b82818337600083830152505050565b60005b8381101561281a5780820151818401526020810190506127ff565b83811115612829576000848401525b50505050565b6000601f19601f8301169050919050565b6004811061284a57fe5b50565b61285681612780565b811461286157600080fd5b50565b61286d816127d1565b811461287857600080fd5b5056fea365627a7a72315820b51576ab76c176c84d607e54f4717bbc2a9e4c842e5faa3f4c685be08ff82ba66c6578706572696d656e74616cf564736f6c63430005100040",
  "source": "pragma solidity ^0.5.0;\r\npragma experimental ABIEncoderV2;\r\n\r\nimport \"../node_modules/@openzeppelin/contracts/math/SafeMath.sol\";\r\n\r\ncontract BlockEcosystem {\r\n    using SafeMath for uint256;\r\n\r\n    address contractOwner;\r\n\r\n    enum Identity { undefined, individual, institution, owner }\r\n\r\n    struct Interaction {\r\n        bytes interactionHash;\r\n        uint dateTime;\r\n        address issuer;\r\n        bool isValid;\r\n    }\r\n\r\n    struct Feedback {\r\n        uint id;\r\n        bytes text;\r\n        uint dateTime;\r\n        address owner;\r\n        bool isValid;\r\n    }\r\n\r\n    uint256 numberFeedback;\r\n\r\n    constructor() public {\r\n        contractOwner = msg.sender;\r\n        userIdentity[msg.sender] = Identity.owner;\r\n        authorizedList[msg.sender] = true;\r\n    }\r\n\r\n    mapping(address => Identity) userIdentity;\r\n    mapping(address => bool) authorizedList;\r\n    mapping(address => Interaction[]) individualProfile;\r\n    // maps to address to interaction hash to index\r\n    mapping(address => mapping(bytes => uint)) private _indexOfInteractionList;\r\n    mapping(address => Feedback[]) organizationFeedback; \r\n    // maps to address to feedback id to index\r\n    mapping(address => mapping(uint => uint)) private _indexOfFeedbackList;    \r\n    \r\n    mapping(address => Interaction[]) uploadedInteraction;\r\n    mapping(address => mapping(bytes => uint)) private _indexOfUploadedInteraction;\r\n\r\n    mapping(address => Feedback[]) addedFeedback;\r\n    mapping(address => mapping(uint => uint)) private _indexOfAddedFeedback;\r\n\r\n\r\n    event AddedInteraction(address);\r\n    event AddedFeedBack(address);\r\n    event RegisteredInstitution(address);\r\n    event InvalidateInteraction(bytes);\r\n    event InvalidateFeedback(uint, address);\r\n\r\n    modifier isContractOwner() {\r\n        require(msg.sender == contractOwner, \"Only contract owner has access to this function!\");\r\n        _;\r\n    }\r\n\r\n    // check if identity is either contract owner or \r\n    modifier isAuthorized() {\r\n        require(authorizedList[msg.sender] == true, \"Only authorized parties have access to this function!\");\r\n        _;\r\n    }\r\n\r\n    modifier eitherRecipientOrIssuer(bytes memory interactionHash, address recipient) {\r\n        uint interactionIndex = _indexOfInteractionList[recipient][interactionHash];\r\n        address issuer = individualProfile[recipient][interactionIndex].issuer;\r\n        require(msg.sender == recipient || msg.sender == issuer, \"Only the recipient or issuer of interaction can invalidate it!\");\r\n        _;\r\n    }\r\n\r\n    modifier isFeedbackOwner(uint feedbackID, address institution) {\r\n        uint index = _indexOfFeedbackList[institution][feedbackID];\r\n        address owner = organizationFeedback[institution][index].owner;\r\n        require(msg.sender == owner, \"Only the feedback owner has access to this function!\");\r\n        _;\r\n    }\r\n\r\n    modifier isRegisteredInstitution (address institutionAddress) {\r\n        require(userIdentity[institutionAddress] == Identity.institution, \"Institution is not registered!\");\r\n        _;\r\n    }\r\n\r\n    modifier isRegisteredUser() {\r\n        require(userIdentity[msg.sender] == Identity.individual, \"Only registered uesrs have access to this function!\");\r\n        _;\r\n    }\r\n\r\n    modifier isUnregisteredUser() {\r\n        require(userIdentity[msg.sender] == Identity.undefined, \"Only unregistered uesrs have access to this function!\");\r\n        _;\r\n    }\r\n\r\n    // Can only be performed by contract owner, on registered institutions\r\n    function registerCA(address addressCA) public isContractOwner() isRegisteredInstitution(addressCA) {\r\n        authorizedList[addressCA] = true;\r\n    }\r\n\r\n    function registerIndividual() public isUnregisteredUser() {\r\n        userIdentity[msg.sender] = Identity.individual;\r\n    }\r\n\r\n    function registerInstitution(address newInstitution) public isAuthorized() {\r\n        userIdentity[newInstitution] = Identity.institution;\r\n    }\r\n\r\n    function addInteraction(bytes memory interactionHash, uint timestamp, address recipient) public isRegisteredInstitution(msg.sender) {\r\n        Interaction memory newInteraction = Interaction(interactionHash, timestamp, msg.sender, true);\r\n        individualProfile[recipient].push(newInteraction);\r\n        uint256 individualIndex = individualProfile[recipient].length;\r\n        _indexOfInteractionList[recipient][interactionHash] = individualIndex - 1;\r\n        \r\n        uploadedInteraction[msg.sender].push(newInteraction);\r\n        uint256 institutionIndex = uploadedInteraction[msg.sender].length;\r\n        _indexOfUploadedInteraction[msg.sender][interactionHash] = institutionIndex - 1;\r\n        emit AddedInteraction(recipient);\r\n    }\r\n\r\n    function invalidateInteraction(bytes memory interactionHash, address recipient) public eitherRecipientOrIssuer(interactionHash, recipient) {\r\n        uint interactionIndex = _indexOfInteractionList[recipient][interactionHash];\r\n        individualProfile[recipient][interactionIndex].isValid = false;\r\n        emit InvalidateInteraction(interactionHash);\r\n    }\r\n\r\n    function addFeedback(bytes memory feedbackText, uint timestamp, address institution) public  isRegisteredUser() {\r\n        uint newId = numberFeedback;\r\n        numberFeedback = numberFeedback + 1; \r\n        Feedback memory newFeedback = Feedback(newId, feedbackText, timestamp, msg.sender, true);\r\n        organizationFeedback[institution].push(newFeedback);\r\n        uint256 institutionIndex = organizationFeedback[institution].length;\r\n        _indexOfFeedbackList[institution][newId] = institutionIndex - 1;\r\n\r\n        addedFeedback[msg.sender].push(newFeedback);\r\n        uint256 individualIndex = addedFeedback[msg.sender].length;\r\n        _indexOfAddedFeedback[msg.sender][newId] = individualIndex - 1;\r\n        emit AddedFeedBack(institution);\r\n    }\r\n\r\n    function invalidateFeedback(uint feedbackID, address institution) public isFeedbackOwner(feedbackID, institution){\r\n        uint feedbackIndex = _indexOfFeedbackList[institution][feedbackID];\r\n        organizationFeedback[institution][feedbackIndex].isValid = false;\r\n        emit InvalidateFeedback(feedbackID, institution);\r\n    }\r\n\r\n\r\n    // For institutions to retrieve all the interactions they uploaded.\r\n    function getUploadedInteraction() public view isRegisteredInstitution(msg.sender) returns (Interaction[] memory) {\r\n        return uploadedInteraction[msg.sender];\r\n    }\r\n\r\n    // For uesrs to retrieve all the feedback they added.\r\n    function getAddedFeedback() public view isRegisteredUser() returns (Feedback[] memory) {\r\n        return addedFeedback[msg.sender];\r\n    }\r\n\r\n    function getInteraction(address individual) public view returns (Interaction[] memory) {\r\n        return individualProfile[individual];\r\n    }\r\n\r\n    function getFeedback(address institution) public view returns (Feedback[] memory) {\r\n        return organizationFeedback[institution];\r\n    }\r\n\r\n    function checkUserIdentity(address userAddress) public view returns (Identity) {\r\n        return userIdentity[userAddress];\r\n    }   \r\n\r\n}",
  "sourcePath": "C:\\Users\\Huang Ming\\Desktop\\LifeBlock (My Version)\\BackEnd\\contracts\\BlockEcosystem.sol",
  "compiler": {
    "name": "solc",
    "version": "0.5.16+commit.9c3226ce.Emscripten.clang"
  },
  "schemaVersion": "3.0.23",
  "updatedAt": "2020-04-08T15:32:13.430Z",
  "devdoc": {
    "methods": {}
  },
  "userdoc": {
    "methods": {}
  }
}