{
  "contractName": "BlockEcosystem",
  "abi": [
    {
      "inputs": [],
      "payable": false,
      "stateMutability": "nonpayable",
      "type": "constructor"
    },
    {
      "anonymous": false,
      "inputs": [
        {
          "indexed": false,
          "internalType": "address",
          "name": "",
          "type": "address"
        }
      ],
      "name": "AddedFeedBack",
      "type": "event"
    },
    {
      "anonymous": false,
      "inputs": [
        {
          "indexed": false,
          "internalType": "address",
          "name": "",
          "type": "address"
        }
      ],
      "name": "AddedInteraction",
      "type": "event"
    },
    {
      "anonymous": false,
      "inputs": [
        {
          "indexed": false,
          "internalType": "uint256",
          "name": "",
          "type": "uint256"
        },
        {
          "indexed": false,
          "internalType": "address",
          "name": "",
          "type": "address"
        }
      ],
      "name": "InvalidateFeedback",
      "type": "event"
    },
    {
      "anonymous": false,
      "inputs": [
        {
          "indexed": false,
          "internalType": "bytes",
          "name": "",
          "type": "bytes"
        }
      ],
      "name": "InvalidateInteraction",
      "type": "event"
    },
    {
      "anonymous": false,
      "inputs": [
        {
          "indexed": false,
          "internalType": "address",
          "name": "",
          "type": "address"
        }
      ],
      "name": "RegisteredInstitution",
      "type": "event"
    },
    {
      "constant": false,
      "inputs": [
        {
          "internalType": "address",
          "name": "addressCA",
          "type": "address"
        }
      ],
      "name": "registerCA",
      "outputs": [],
      "payable": false,
      "stateMutability": "nonpayable",
      "type": "function"
    },
    {
      "constant": false,
      "inputs": [],
      "name": "registerIndividual",
      "outputs": [],
      "payable": false,
      "stateMutability": "nonpayable",
      "type": "function"
    },
    {
      "constant": false,
      "inputs": [
        {
          "internalType": "address",
          "name": "newInstitution",
          "type": "address"
        }
      ],
      "name": "registerInstitution",
      "outputs": [],
      "payable": false,
      "stateMutability": "nonpayable",
      "type": "function"
    },
    {
      "constant": false,
      "inputs": [
        {
          "internalType": "bytes",
          "name": "interactionHash",
          "type": "bytes"
        },
        {
          "internalType": "uint256",
          "name": "timestamp",
          "type": "uint256"
        },
        {
          "internalType": "address",
          "name": "recipient",
          "type": "address"
        }
      ],
      "name": "addInteraction",
      "outputs": [],
      "payable": false,
      "stateMutability": "nonpayable",
      "type": "function"
    },
    {
      "constant": false,
      "inputs": [
        {
          "internalType": "bytes",
          "name": "interactionHash",
          "type": "bytes"
        },
        {
          "internalType": "address",
          "name": "recipient",
          "type": "address"
        }
      ],
      "name": "invalidateInteraction",
      "outputs": [],
      "payable": false,
      "stateMutability": "nonpayable",
      "type": "function"
    },
    {
      "constant": false,
      "inputs": [
        {
          "internalType": "bytes",
          "name": "feedbackText",
          "type": "bytes"
        },
        {
          "internalType": "uint256",
          "name": "timestamp",
          "type": "uint256"
        },
        {
          "internalType": "address",
          "name": "institution",
          "type": "address"
        }
      ],
      "name": "addFeedback",
      "outputs": [],
      "payable": false,
      "stateMutability": "nonpayable",
      "type": "function"
    },
    {
      "constant": false,
      "inputs": [
        {
          "internalType": "uint256",
          "name": "feedbackID",
          "type": "uint256"
        },
        {
          "internalType": "address",
          "name": "institution",
          "type": "address"
        }
      ],
      "name": "invalidateFeedback",
      "outputs": [],
      "payable": false,
      "stateMutability": "nonpayable",
      "type": "function"
    },
    {
      "constant": true,
      "inputs": [
        {
          "internalType": "address",
          "name": "individual",
          "type": "address"
        }
      ],
      "name": "getInteraction",
      "outputs": [
        {
          "components": [
            {
              "internalType": "bytes",
              "name": "interactionHash",
              "type": "bytes"
            },
            {
              "internalType": "uint256",
              "name": "dateTime",
              "type": "uint256"
            },
            {
              "internalType": "address",
              "name": "issuer",
              "type": "address"
            },
            {
              "internalType": "bool",
              "name": "isValid",
              "type": "bool"
            }
          ],
          "internalType": "struct BlockEcosystem.Interaction[]",
          "name": "",
          "type": "tuple[]"
        }
      ],
      "payable": false,
      "stateMutability": "view",
      "type": "function"
    },
    {
      "constant": true,
      "inputs": [
        {
          "internalType": "address",
          "name": "institution",
          "type": "address"
        }
      ],
      "name": "getFeedback",
      "outputs": [
        {
          "components": [
            {
              "internalType": "uint256",
              "name": "id",
              "type": "uint256"
            },
            {
              "internalType": "bytes",
              "name": "text",
              "type": "bytes"
            },
            {
              "internalType": "uint256",
              "name": "dateTime",
              "type": "uint256"
            },
            {
              "internalType": "address",
              "name": "owner",
              "type": "address"
            },
            {
              "internalType": "bool",
              "name": "isValid",
              "type": "bool"
            }
          ],
          "internalType": "struct BlockEcosystem.Feedback[]",
          "name": "",
          "type": "tuple[]"
        }
      ],
      "payable": false,
      "stateMutability": "view",
      "type": "function"
    },
    {
      "constant": true,
      "inputs": [
        {
          "internalType": "address",
          "name": "userAddress",
          "type": "address"
        }
      ],
      "name": "checkUserIdentity",
      "outputs": [
        {
          "internalType": "enum BlockEcosystem.Identity",
          "name": "",
          "type": "uint8"
        }
      ],
      "payable": false,
      "stateMutability": "view",
      "type": "function"
    }
  ],
  "bytecode": "0x608060405234801561001057600080fd5b50336000806101000a81548173ffffffffffffffffffffffffffffffffffffffff021916908373ffffffffffffffffffffffffffffffffffffffff1602179055506003600160003373ffffffffffffffffffffffffffffffffffffffff1673ffffffffffffffffffffffffffffffffffffffff16815260200190815260200160002060006101000a81548160ff021916908360038111156100ad57fe5b02179055506001600260003373ffffffffffffffffffffffffffffffffffffffff1673ffffffffffffffffffffffffffffffffffffffff16815260200190815260200160002060006101000a81548160ff021916908315150217905550611e16806101196000396000f3fe608060405234801561001057600080fd5b506004361061009e5760003560e01c8063e3c1d73a11610066578063e3c1d73a14610131578063ec9c195714610161578063f04146651461017d578063f06d80fc14610199578063f72b1628146101b55761009e565b806309c6c290146100a35780631b544934146100bf57806355a08231146100ef578063b6267ae81461010b578063d61a8eee14610115575b600080fd5b6100bd60048036036100b89190810190611454565b6101e5565b005b6100d960048036036100d491908101906113d7565b610409565b6040516100e69190611a71565b60405180910390f35b610109600480360361010491908101906113d7565b6105c4565b005b610113610755565b005b61012f600480360361012a91908101906114bb565b61085c565b005b61014b600480360361014691908101906113d7565b610aac565b6040516101589190611ab5565b60405180910390f35b61017b60048036036101769190810190611400565b610b02565b005b61019760048036036101929190810190611454565b610d9c565b005b6101b360048036036101ae91908101906113d7565b610f71565b005b6101cf60048036036101ca91908101906113d7565b611068565b6040516101dc9190611a4f565b60405180910390f35b33600260038111156101f357fe5b600160008373ffffffffffffffffffffffffffffffffffffffff1673ffffffffffffffffffffffffffffffffffffffff16815260200190815260200160002060009054906101000a900460ff16600381111561024b57fe5b1461028b576040517f08c379a000000000000000000000000000000000000000000000000000000000815260040161028290611af0565b60405180910390fd5b61029361122d565b60405180608001604052808681526020018581526020013373ffffffffffffffffffffffffffffffffffffffff168152602001600115158152509050600360008473ffffffffffffffffffffffffffffffffffffffff1673ffffffffffffffffffffffffffffffffffffffff1681526020019081526020016000208190806001815401808255809150509060018203906000526020600020906003020160009091929091909150600082015181600001908051906020019061035692919061126d565b506020820151816001015560408201518160020160006101000a81548173ffffffffffffffffffffffffffffffffffffffff021916908373ffffffffffffffffffffffffffffffffffffffff16021790555060608201518160020160146101000a81548160ff0219169083151502179055505050507f3996fb11798e0eb60ad7b5b88e49e61ec8a8ab3a6f6d16f8cec5012137246872836040516103fa9190611a34565b60405180910390a15050505050565b6060600360008373ffffffffffffffffffffffffffffffffffffffff1673ffffffffffffffffffffffffffffffffffffffff168152602001908152602001600020805480602002602001604051908101604052809291908181526020016000905b828210156105b95783829060005260206000209060030201604051806080016040529081600082018054600181600116156101000203166002900480601f0160208091040260200160405190810160405280929190818152602001828054600181600116156101000203166002900480156105265780601f106104fb57610100808354040283529160200191610526565b820191906000526020600020905b81548152906001019060200180831161050957829003601f168201915b50505050508152602001600182015481526020016002820160009054906101000a900473ffffffffffffffffffffffffffffffffffffffff1673ffffffffffffffffffffffffffffffffffffffff1673ffffffffffffffffffffffffffffffffffffffff1681526020016002820160149054906101000a900460ff1615151515815250508152602001906001019061046a565b505050509050919050565b6000809054906101000a900473ffffffffffffffffffffffffffffffffffffffff1673ffffffffffffffffffffffffffffffffffffffff163373ffffffffffffffffffffffffffffffffffffffff1614610653576040517f08c379a000000000000000000000000000000000000000000000000000000000815260040161064a90611b50565b60405180910390fd5b806002600381111561066157fe5b600160008373ffffffffffffffffffffffffffffffffffffffff1673ffffffffffffffffffffffffffffffffffffffff16815260200190815260200160002060009054906101000a900460ff1660038111156106b957fe5b146106f9576040517f08c379a00000000000000000000000000000000000000000000000000000000081526004016106f090611af0565b60405180910390fd5b6001600260008473ffffffffffffffffffffffffffffffffffffffff1673ffffffffffffffffffffffffffffffffffffffff16815260200190815260200160002060006101000a81548160ff0219169083151502179055505050565b6000600381111561076257fe5b600160003373ffffffffffffffffffffffffffffffffffffffff1673ffffffffffffffffffffffffffffffffffffffff16815260200190815260200160002060009054906101000a900460ff1660038111156107ba57fe5b146107fa576040517f08c379a00000000000000000000000000000000000000000000000000000000081526004016107f190611b70565b60405180910390fd5b60018060003373ffffffffffffffffffffffffffffffffffffffff1673ffffffffffffffffffffffffffffffffffffffff16815260200190815260200160002060006101000a81548160ff0219169083600381111561085557fe5b0217905550565b81816000600660008373ffffffffffffffffffffffffffffffffffffffff1673ffffffffffffffffffffffffffffffffffffffff16815260200190815260200160002060008481526020019081526020016000205490506000600560008473ffffffffffffffffffffffffffffffffffffffff1673ffffffffffffffffffffffffffffffffffffffff16815260200190815260200160002082815481106108ff57fe5b906000526020600020906004020160030160009054906101000a900473ffffffffffffffffffffffffffffffffffffffff1690508073ffffffffffffffffffffffffffffffffffffffff163373ffffffffffffffffffffffffffffffffffffffff16146109a1576040517f08c379a000000000000000000000000000000000000000000000000000000000815260040161099890611ad0565b60405180910390fd5b6000600660008773ffffffffffffffffffffffffffffffffffffffff1673ffffffffffffffffffffffffffffffffffffffff16815260200190815260200160002060008881526020019081526020016000205490506000600560008873ffffffffffffffffffffffffffffffffffffffff1673ffffffffffffffffffffffffffffffffffffffff1681526020019081526020016000208281548110610a4257fe5b906000526020600020906004020160030160146101000a81548160ff0219169083151502179055507f37bf27240c438d4479f915894da45e5b4f08ddf979fa0ec340c131be32d313c18787604051610a9b929190611b90565b60405180910390a150505050505050565b6000600160008373ffffffffffffffffffffffffffffffffffffffff1673ffffffffffffffffffffffffffffffffffffffff16815260200190815260200160002060009054906101000a900460ff169050919050565b81816000600460008373ffffffffffffffffffffffffffffffffffffffff1673ffffffffffffffffffffffffffffffffffffffff16815260200190815260200160002083604051610b539190611a1d565b90815260200160405180910390205490506000600360008473ffffffffffffffffffffffffffffffffffffffff1673ffffffffffffffffffffffffffffffffffffffff1681526020019081526020016000208281548110610bb057fe5b906000526020600020906003020160020160009054906101000a900473ffffffffffffffffffffffffffffffffffffffff1690508273ffffffffffffffffffffffffffffffffffffffff163373ffffffffffffffffffffffffffffffffffffffff161480610c4957508073ffffffffffffffffffffffffffffffffffffffff163373ffffffffffffffffffffffffffffffffffffffff16145b610c88576040517f08c379a0000000000000000000000000000000000000000000000000000000008152600401610c7f90611b10565b60405180910390fd5b6000600460008773ffffffffffffffffffffffffffffffffffffffff1673ffffffffffffffffffffffffffffffffffffffff16815260200190815260200160002087604051610cd79190611a1d565b90815260200160405180910390205490506000600360008873ffffffffffffffffffffffffffffffffffffffff1673ffffffffffffffffffffffffffffffffffffffff1681526020019081526020016000208281548110610d3457fe5b906000526020600020906003020160020160146101000a81548160ff0219169083151502179055507f21fad878da788fbcee4a7275fbf97dfb086b87190403f17439f8ccccd4e370ef87604051610d8b9190611a93565b60405180910390a150505050505050565b6000600560008373ffffffffffffffffffffffffffffffffffffffff1673ffffffffffffffffffffffffffffffffffffffff168152602001908152602001600020805490509050610deb6112ed565b6040518060a001604052808381526020018681526020018581526020013373ffffffffffffffffffffffffffffffffffffffff168152602001600115158152509050600560008473ffffffffffffffffffffffffffffffffffffffff1673ffffffffffffffffffffffffffffffffffffffff1681526020019081526020016000208190806001815401808255809150509060018203906000526020600020906004020160009091929091909150600082015181600001556020820151816001019080519060200190610ebe92919061126d565b506040820151816002015560608201518160030160006101000a81548173ffffffffffffffffffffffffffffffffffffffff021916908373ffffffffffffffffffffffffffffffffffffffff16021790555060808201518160030160146101000a81548160ff0219169083151502179055505050507f1694ac9ddbd8f8348b506e1cdfa239bbcfc4c466066bc550e60b508aa109266e83604051610f629190611a34565b60405180910390a15050505050565b60011515600260003373ffffffffffffffffffffffffffffffffffffffff1673ffffffffffffffffffffffffffffffffffffffff16815260200190815260200160002060009054906101000a900460ff16151514611004576040517f08c379a0000000000000000000000000000000000000000000000000000000008152600401610ffb90611b30565b60405180910390fd5b6002600160008373ffffffffffffffffffffffffffffffffffffffff1673ffffffffffffffffffffffffffffffffffffffff16815260200190815260200160002060006101000a81548160ff0219169083600381111561106057fe5b021790555050565b6060600560008373ffffffffffffffffffffffffffffffffffffffff1673ffffffffffffffffffffffffffffffffffffffff168152602001908152602001600020805480602002602001604051908101604052809291908181526020016000905b8282101561122257838290600052602060002090600402016040518060a001604052908160008201548152602001600182018054600181600116156101000203166002900480601f01602080910402602001604051908101604052809291908181526020018280546001816001161561010002031660029004801561118f5780601f106111645761010080835404028352916020019161118f565b820191906000526020600020905b81548152906001019060200180831161117257829003601f168201915b50505050508152602001600282015481526020016003820160009054906101000a900473ffffffffffffffffffffffffffffffffffffffff1673ffffffffffffffffffffffffffffffffffffffff1673ffffffffffffffffffffffffffffffffffffffff1681526020016003820160149054906101000a900460ff161515151581525050815260200190600101906110c9565b505050509050919050565b60405180608001604052806060815260200160008152602001600073ffffffffffffffffffffffffffffffffffffffff1681526020016000151581525090565b828054600181600116156101000203166002900490600052602060002090601f016020900481019282601f106112ae57805160ff19168380011785556112dc565b828001600101855582156112dc579182015b828111156112db5782518255916020019190600101906112c0565b5b5090506112e99190611334565b5090565b6040518060a00160405280600081526020016060815260200160008152602001600073ffffffffffffffffffffffffffffffffffffffff1681526020016000151581525090565b61135691905b8082111561135257600081600090555060010161133a565b5090565b90565b60008135905061136881611da5565b92915050565b600082601f83011261137f57600080fd5b813561139261138d82611be6565b611bb9565b915080825260208301602083018583830111156113ae57600080fd5b6113b9838284611d45565b50505092915050565b6000813590506113d181611dbc565b92915050565b6000602082840312156113e957600080fd5b60006113f784828501611359565b91505092915050565b6000806040838503121561141357600080fd5b600083013567ffffffffffffffff81111561142d57600080fd5b6114398582860161136e565b925050602061144a85828601611359565b9150509250929050565b60008060006060848603121561146957600080fd5b600084013567ffffffffffffffff81111561148357600080fd5b61148f8682870161136e565b93505060206114a0868287016113c2565b92505060406114b186828701611359565b9150509250925092565b600080604083850312156114ce57600080fd5b60006114dc858286016113c2565b92505060206114ed85828601611359565b9150509250929050565b60006115038383611926565b905092915050565b6000611517838361199c565b905092915050565b61152881611cd8565b82525050565b61153781611cd8565b82525050565b600061154882611c32565b6115528185611c78565b93508360208202850161156485611c12565b8060005b858110156115a0578484038952815161158185826114f7565b945061158c83611c5e565b925060208a01995050600181019050611568565b50829750879550505050505092915050565b60006115bd82611c3d565b6115c78185611c89565b9350836020820285016115d985611c22565b8060005b8581101561161557848403895281516115f6858261150b565b945061160183611c6b565b925060208a019950506001810190506115dd565b50829750879550505050505092915050565b61163081611cea565b82525050565b600061164182611c53565b61164b8185611cab565b935061165b818560208601611d54565b61166481611d87565b840191505092915050565b600061167a82611c53565b6116848185611cbc565b9350611694818560208601611d54565b80840191505092915050565b60006116ab82611c48565b6116b58185611c9a565b93506116c5818560208601611d54565b6116ce81611d87565b840191505092915050565b6116e281611d33565b82525050565b60006116f5603483611cc7565b91507f4f6e6c792074686520666565646261636b206f776e657220686173206163636560008301527f737320746f20746869732066756e6374696f6e210000000000000000000000006020830152604082019050919050565b600061175b601e83611cc7565b91507f496e737469747574696f6e206973206e6f7420726567697374657265642100006000830152602082019050919050565b600061179b603e83611cc7565b91507f4f6e6c792074686520726563697069656e74206f7220697373756572206f662060008301527f696e746572616374696f6e2063616e20696e76616c69646174652069742100006020830152604082019050919050565b6000611801603583611cc7565b91507f4f6e6c7920617574686f72697a6564207061727469657320686176652061636360008301527f65737320746f20746869732066756e6374696f6e2100000000000000000000006020830152604082019050919050565b6000611867603083611cc7565b91507f4f6e6c7920636f6e7472616374206f776e65722068617320616363657373207460008301527f6f20746869732066756e6374696f6e21000000000000000000000000000000006020830152604082019050919050565b60006118cd603583611cc7565b91507f4f6e6c7920756e7265676973746572656420756573727320686176652061636360008301527f65737320746f20746869732066756e6374696f6e2100000000000000000000006020830152604082019050919050565b600060a08301600083015161193e60008601826119ff565b506020830151848203602086015261195682826116a0565b915050604083015161196b60408601826119ff565b50606083015161197e606086018261151f565b5060808301516119916080860182611627565b508091505092915050565b600060808301600083015184820360008601526119b982826116a0565b91505060208301516119ce60208601826119ff565b5060408301516119e1604086018261151f565b5060608301516119f46060860182611627565b508091505092915050565b611a0881611d29565b82525050565b611a1781611d29565b82525050565b6000611a29828461166f565b915081905092915050565b6000602082019050611a49600083018461152e565b92915050565b60006020820190508181036000830152611a69818461153d565b905092915050565b60006020820190508181036000830152611a8b81846115b2565b905092915050565b60006020820190508181036000830152611aad8184611636565b905092915050565b6000602082019050611aca60008301846116d9565b92915050565b60006020820190508181036000830152611ae9816116e8565b9050919050565b60006020820190508181036000830152611b098161174e565b9050919050565b60006020820190508181036000830152611b298161178e565b9050919050565b60006020820190508181036000830152611b49816117f4565b9050919050565b60006020820190508181036000830152611b698161185a565b9050919050565b60006020820190508181036000830152611b89816118c0565b9050919050565b6000604082019050611ba56000830185611a0e565b611bb2602083018461152e565b9392505050565b6000604051905081810181811067ffffffffffffffff82111715611bdc57600080fd5b8060405250919050565b600067ffffffffffffffff821115611bfd57600080fd5b601f19601f8301169050602081019050919050565b6000819050602082019050919050565b6000819050602082019050919050565b600081519050919050565b600081519050919050565b600081519050919050565b600081519050919050565b6000602082019050919050565b6000602082019050919050565b600082825260208201905092915050565b600082825260208201905092915050565b600082825260208201905092915050565b600082825260208201905092915050565b600081905092915050565b600082825260208201905092915050565b6000611ce382611d09565b9050919050565b60008115159050919050565b6000819050611d0482611d98565b919050565b600073ffffffffffffffffffffffffffffffffffffffff82169050919050565b6000819050919050565b6000611d3e82611cf6565b9050919050565b82818337600083830152505050565b60005b83811015611d72578082015181840152602081019050611d57565b83811115611d81576000848401525b50505050565b6000601f19601f8301169050919050565b60048110611da257fe5b50565b611dae81611cd8565b8114611db957600080fd5b50565b611dc581611d29565b8114611dd057600080fd5b5056fea365627a7a723158204925de5612a8ba8a93555d26a4100b548b2d1ca4ab7a25fbee2d35718ca4e9cd6c6578706572696d656e74616cf564736f6c63430005100040",
  "source": "pragma solidity ^0.5.0;\r\npragma experimental ABIEncoderV2;\r\n\r\nimport \"../node_modules/@openzeppelin/contracts/math/SafeMath.sol\";\r\n\r\ncontract BlockEcosystem {\r\n    using SafeMath for uint256;\r\n\r\n    address contractOwner;\r\n\r\n    enum Identity { undefined, individual, institution, owner }\r\n\r\n    struct Interaction {\r\n        bytes interactionHash;\r\n        uint dateTime;\r\n        address issuer;\r\n        bool isValid;\r\n    }\r\n\r\n    struct Feedback {\r\n        uint id;\r\n        bytes text;\r\n        uint dateTime;\r\n        address owner;\r\n        bool isValid;\r\n    }\r\n\r\n    constructor() public {\r\n        contractOwner = msg.sender;\r\n        userIdentity[msg.sender] = Identity.owner;\r\n        authorizedList[msg.sender] = true;\r\n    }\r\n\r\n    mapping(address => Identity) userIdentity;\r\n    mapping(address => bool) authorizedList;\r\n    mapping(address => Interaction[]) individualProfile;\r\n    // maps to address to interaction hash to index\r\n    mapping(address => mapping(bytes => uint)) private _indexOfInteractionList;\r\n    mapping(address => Feedback[]) organizationFeedback; \r\n    // maps to address to feedback id to index\r\n    mapping(address => mapping(uint => uint)) private _indexOfFeedbackList;    \r\n    \r\n    // mapping(address => mapping(address => uint)) previousInteraction;\r\n\r\n    event AddedInteraction(address);\r\n    event AddedFeedBack(address);\r\n    event RegisteredInstitution(address);\r\n    event InvalidateInteraction(bytes);\r\n    event InvalidateFeedback(uint, address);\r\n\r\n    modifier isContractOwner() {\r\n        require(msg.sender == contractOwner, \"Only contract owner has access to this function!\");\r\n        _;\r\n    }\r\n\r\n    // check if identity is either contract owner or \r\n    modifier isAuthorized() {\r\n        require(authorizedList[msg.sender] == true, \"Only authorized parties have access to this function!\");\r\n        _;\r\n    }\r\n\r\n    modifier eitherRecipientOrIssuer(bytes memory interactionHash, address recipient) {\r\n        uint interactionIndex = _indexOfInteractionList[recipient][interactionHash];\r\n        address issuer = individualProfile[recipient][interactionIndex].issuer;\r\n        require(msg.sender == recipient || msg.sender == issuer, \"Only the recipient or issuer of interaction can invalidate it!\");\r\n        _;\r\n    }\r\n\r\n    modifier isFeedbackOwner(uint feedbackID, address institution) {\r\n        uint index = _indexOfFeedbackList[institution][feedbackID];\r\n        address owner = organizationFeedback[institution][index].owner;\r\n        require(msg.sender == owner, \"Only the feedback owner has access to this function!\");\r\n        _;\r\n    }\r\n\r\n    modifier isRegisteredInstitution (address institutionAddress) {\r\n        require(userIdentity[institutionAddress] == Identity.institution, \"Institution is not registered!\");\r\n        _;\r\n    }\r\n\r\n    modifier isUnregisteredUser() {\r\n        require(userIdentity[msg.sender] == Identity.undefined, \"Only unregistered uesrs have access to this function!\");\r\n        _;\r\n    }\r\n\r\n    // Can only be performed by contract owner, on registered institutions\r\n    function registerCA(address addressCA) public isContractOwner() isRegisteredInstitution(addressCA) {\r\n        authorizedList[addressCA] = true;\r\n    }\r\n\r\n    function registerIndividual() public isUnregisteredUser() {\r\n        userIdentity[msg.sender] = Identity.individual;\r\n    }\r\n\r\n    function registerInstitution(address newInstitution) public isAuthorized() {\r\n        userIdentity[newInstitution] = Identity.institution;\r\n    }\r\n\r\n    function addInteraction(bytes memory interactionHash, uint timestamp, address recipient) public isRegisteredInstitution(msg.sender) {\r\n        Interaction memory newInteraction = Interaction(interactionHash, timestamp, msg.sender, true);\r\n        individualProfile[recipient].push(newInteraction);\r\n        emit AddedInteraction(recipient);\r\n    }\r\n\r\n    function invalidateInteraction(bytes memory interactionHash, address recipient) public eitherRecipientOrIssuer(interactionHash, recipient) {\r\n        uint interactionIndex = _indexOfInteractionList[recipient][interactionHash];\r\n        individualProfile[recipient][interactionIndex].isValid = false;\r\n        emit InvalidateInteraction(interactionHash);\r\n    }\r\n\r\n    function addFeedback(bytes memory feedbackText, uint timestamp, address institution) public {\r\n        uint newId = organizationFeedback[institution].length;\r\n        Feedback memory newFeedback = Feedback(newId, feedbackText, timestamp, msg.sender, true);\r\n        organizationFeedback[institution].push(newFeedback);\r\n        emit AddedFeedBack(institution);\r\n    }\r\n\r\n    function invalidateFeedback(uint feedbackID, address institution) public isFeedbackOwner(feedbackID, institution){\r\n        uint feedbackIndex = _indexOfFeedbackList[institution][feedbackID];\r\n        organizationFeedback[institution][feedbackIndex].isValid = false;\r\n        emit InvalidateFeedback(feedbackID, institution);\r\n    }\r\n\r\n    function getInteraction(address individual) public view returns (Interaction[] memory) {\r\n        return individualProfile[individual];\r\n    }\r\n\r\n    function getFeedback(address institution) public view returns (Feedback[] memory) {\r\n        return organizationFeedback[institution];\r\n    }\r\n\r\n    function checkUserIdentity(address userAddress) public view returns (Identity) {\r\n        return userIdentity[userAddress];\r\n    }   \r\n\r\n}",
  "sourcePath": "C:\\Users\\Huang Ming\\Desktop\\LifeBlock (My Version)\\BackEnd\\contracts\\BlockEcosystem.sol",
  "compiler": {
    "name": "solc",
    "version": "0.5.16+commit.9c3226ce.Emscripten.clang"
  },
  "schemaVersion": "3.0.23",
  "updatedAt": "2020-04-08T08:23:28.492Z",
  "devdoc": {
    "methods": {}
  },
  "userdoc": {
    "methods": {}
  }
}