{
  "contractName": "BlockEcosystem",
  "abi": [
    {
      "inputs": [],
      "payable": false,
      "stateMutability": "nonpayable",
      "type": "constructor"
    },
    {
      "anonymous": false,
      "inputs": [
        {
          "indexed": false,
          "internalType": "address",
          "name": "",
          "type": "address"
        }
      ],
      "name": "AddedFeedBack",
      "type": "event"
    },
    {
      "anonymous": false,
      "inputs": [
        {
          "indexed": false,
          "internalType": "address",
          "name": "",
          "type": "address"
        }
      ],
      "name": "AddedInteraction",
      "type": "event"
    },
    {
      "anonymous": false,
      "inputs": [
        {
          "indexed": false,
          "internalType": "address",
          "name": "",
          "type": "address"
        }
      ],
      "name": "RegisteredInstitution",
      "type": "event"
    },
    {
      "constant": false,
      "inputs": [],
      "name": "registerIndividual",
      "outputs": [],
      "payable": false,
      "stateMutability": "nonpayable",
      "type": "function"
    },
    {
      "constant": false,
      "inputs": [
        {
          "internalType": "address",
          "name": "newInstitution",
          "type": "address"
        }
      ],
      "name": "registerInstitution",
      "outputs": [],
      "payable": false,
      "stateMutability": "nonpayable",
      "type": "function"
    },
    {
      "constant": false,
      "inputs": [
        {
          "internalType": "bytes",
          "name": "interactionHash",
          "type": "bytes"
        },
        {
          "internalType": "uint256",
          "name": "timestamp",
          "type": "uint256"
        },
        {
          "internalType": "address",
          "name": "recipient",
          "type": "address"
        }
      ],
      "name": "addInteraction",
      "outputs": [],
      "payable": false,
      "stateMutability": "nonpayable",
      "type": "function"
    },
    {
      "constant": true,
      "inputs": [
        {
          "internalType": "address",
          "name": "individual",
          "type": "address"
        }
      ],
      "name": "getInteraction",
      "outputs": [
        {
          "components": [
            {
              "internalType": "bytes",
              "name": "interactionHash",
              "type": "bytes"
            },
            {
              "internalType": "uint256",
              "name": "dateTime",
              "type": "uint256"
            }
          ],
          "internalType": "struct BlockEcosystem.Interaction[]",
          "name": "",
          "type": "tuple[]"
        }
      ],
      "payable": false,
      "stateMutability": "view",
      "type": "function"
    },
    {
      "constant": false,
      "inputs": [
        {
          "internalType": "bytes",
          "name": "feedbackText",
          "type": "bytes"
        },
        {
          "internalType": "uint256",
          "name": "timestamp",
          "type": "uint256"
        },
        {
          "internalType": "address",
          "name": "institution",
          "type": "address"
        }
      ],
      "name": "addFeedback",
      "outputs": [],
      "payable": false,
      "stateMutability": "nonpayable",
      "type": "function"
    },
    {
      "constant": true,
      "inputs": [
        {
          "internalType": "address",
          "name": "institution",
          "type": "address"
        }
      ],
      "name": "getFeedback",
      "outputs": [
        {
          "components": [
            {
              "internalType": "bytes",
              "name": "text",
              "type": "bytes"
            },
            {
              "internalType": "uint256",
              "name": "dateTime",
              "type": "uint256"
            }
          ],
          "internalType": "struct BlockEcosystem.Feedback[]",
          "name": "",
          "type": "tuple[]"
        }
      ],
      "payable": false,
      "stateMutability": "view",
      "type": "function"
    },
    {
      "constant": true,
      "inputs": [
        {
          "internalType": "address",
          "name": "userAddress",
          "type": "address"
        }
      ],
      "name": "checkUserIdentity",
      "outputs": [
        {
          "internalType": "enum BlockEcosystem.Identity",
          "name": "",
          "type": "uint8"
        }
      ],
      "payable": false,
      "stateMutability": "view",
      "type": "function"
    }
  ],
  "bytecode": "0x608060405234801561001057600080fd5b50336000806101000a81548173ffffffffffffffffffffffffffffffffffffffff021916908373ffffffffffffffffffffffffffffffffffffffff1602179055506003600460003373ffffffffffffffffffffffffffffffffffffffff1673ffffffffffffffffffffffffffffffffffffffff16815260200190815260200160002060006101000a81548160ff021916908360038111156100ad57fe5b02179055506110eb806100c16000396000f3fe608060405234801561001057600080fd5b506004361061007d5760003560e01c8063e3c1d73a1161005b578063e3c1d73a146100d8578063f041466514610108578063f06d80fc14610124578063f72b1628146101405761007d565b806309c6c290146100825780631b5449341461009e578063b6267ae8146100ce575b600080fd5b61009c60048036036100979190810190610a5c565b610170565b005b6100b860048036036100b39190810190610a33565b610306565b6040516100c59190610e24565b60405180910390f35b6100d6610450565b005b6100f260048036036100ed9190810190610a33565b610558565b6040516100ff9190610e46565b60405180910390f35b610122600480360361011d9190810190610a5c565b6105ae565b005b61013e60048036036101399190810190610a33565b61069f565b005b61015a60048036036101559190810190610a33565b610792565b6040516101679190610e02565b60405180910390f35b6002600381111561017d57fe5b600460003373ffffffffffffffffffffffffffffffffffffffff1673ffffffffffffffffffffffffffffffffffffffff16815260200190815260200160002060009054906101000a900460ff1660038111156101d557fe5b14610215576040517f08c379a000000000000000000000000000000000000000000000000000000000815260040161020c90610ea1565b60405180910390fd5b61021d6108dc565b6040518060400160405280858152602001848152509050600160008373ffffffffffffffffffffffffffffffffffffffff1673ffffffffffffffffffffffffffffffffffffffff168152602001908152602001600020819080600181540180825580915050906001820390600052602060002090600202016000909192909190915060008201518160000190805190602001906102bb9291906108f6565b50602082015181600101555050507f3996fb11798e0eb60ad7b5b88e49e61ec8a8ab3a6f6d16f8cec5012137246872826040516102f89190610de7565b60405180910390a150505050565b6060600160008373ffffffffffffffffffffffffffffffffffffffff1673ffffffffffffffffffffffffffffffffffffffff168152602001908152602001600020805480602002602001604051908101604052809291908181526020016000905b828210156104455783829060005260206000209060020201604051806040016040529081600082018054600181600116156101000203166002900480601f0160208091040260200160405190810160405280929190818152602001828054600181600116156101000203166002900480156104235780601f106103f857610100808354040283529160200191610423565b820191906000526020600020905b81548152906001019060200180831161040657829003601f168201915b5050505050815260200160018201548152505081526020019060010190610367565b505050509050919050565b6000600381111561045d57fe5b600460003373ffffffffffffffffffffffffffffffffffffffff1673ffffffffffffffffffffffffffffffffffffffff16815260200190815260200160002060009054906101000a900460ff1660038111156104b557fe5b146104f5576040517f08c379a00000000000000000000000000000000000000000000000000000000081526004016104ec90610e81565b60405180910390fd5b6001600460003373ffffffffffffffffffffffffffffffffffffffff1673ffffffffffffffffffffffffffffffffffffffff16815260200190815260200160002060006101000a81548160ff0219169083600381111561055157fe5b0217905550565b6000600460008373ffffffffffffffffffffffffffffffffffffffff1673ffffffffffffffffffffffffffffffffffffffff16815260200190815260200160002060009054906101000a900460ff169050919050565b6105b6610976565b6040518060400160405280858152602001848152509050600260008373ffffffffffffffffffffffffffffffffffffffff1673ffffffffffffffffffffffffffffffffffffffff168152602001908152602001600020819080600181540180825580915050906001820390600052602060002090600202016000909192909190915060008201518160000190805190602001906106549291906108f6565b50602082015181600101555050507f1694ac9ddbd8f8348b506e1cdfa239bbcfc4c466066bc550e60b508aa109266e826040516106919190610de7565b60405180910390a150505050565b6000809054906101000a900473ffffffffffffffffffffffffffffffffffffffff1673ffffffffffffffffffffffffffffffffffffffff163373ffffffffffffffffffffffffffffffffffffffff161461072e576040517f08c379a000000000000000000000000000000000000000000000000000000000815260040161072590610e61565b60405180910390fd5b6002600460008373ffffffffffffffffffffffffffffffffffffffff1673ffffffffffffffffffffffffffffffffffffffff16815260200190815260200160002060006101000a81548160ff0219169083600381111561078a57fe5b021790555050565b6060600260008373ffffffffffffffffffffffffffffffffffffffff1673ffffffffffffffffffffffffffffffffffffffff168152602001908152602001600020805480602002602001604051908101604052809291908181526020016000905b828210156108d15783829060005260206000209060020201604051806040016040529081600082018054600181600116156101000203166002900480601f0160208091040260200160405190810160405280929190818152602001828054600181600116156101000203166002900480156108af5780601f10610884576101008083540402835291602001916108af565b820191906000526020600020905b81548152906001019060200180831161089257829003601f168201915b50505050508152602001600182015481525050815260200190600101906107f3565b505050509050919050565b604051806040016040528060608152602001600081525090565b828054600181600116156101000203166002900490600052602060002090601f016020900481019282601f1061093757805160ff1916838001178555610965565b82800160010185558215610965579182015b82811115610964578251825591602001919060010190610949565b5b5090506109729190610990565b5090565b604051806040016040528060608152602001600081525090565b6109b291905b808211156109ae576000816000905550600101610996565b5090565b90565b6000813590506109c48161107a565b92915050565b600082601f8301126109db57600080fd5b81356109ee6109e982610eee565b610ec1565b91508082526020830160208301858383011115610a0a57600080fd5b610a1583828461101a565b50505092915050565b600081359050610a2d81611091565b92915050565b600060208284031215610a4557600080fd5b6000610a53848285016109b5565b91505092915050565b600080600060608486031215610a7157600080fd5b600084013567ffffffffffffffff811115610a8b57600080fd5b610a97868287016109ca565b9350506020610aa886828701610a1e565b9250506040610ab9868287016109b5565b9150509250925092565b6000610acf8383610d5e565b905092915050565b6000610ae38383610d9b565b905092915050565b610af481610fb9565b82525050565b6000610b0582610f3a565b610b0f8185610f75565b935083602082028501610b2185610f1a565b8060005b85811015610b5d5784840389528151610b3e8582610ac3565b9450610b4983610f5b565b925060208a01995050600181019050610b25565b50829750879550505050505092915050565b6000610b7a82610f45565b610b848185610f86565b935083602082028501610b9685610f2a565b8060005b85811015610bd25784840389528151610bb38582610ad7565b9450610bbe83610f68565b925060208a01995050600181019050610b9a565b50829750879550505050505092915050565b6000610bef82610f50565b610bf98185610f97565b9350610c09818560208601611029565b610c128161105c565b840191505092915050565b610c2681611008565b82525050565b6000610c39603083610fa8565b91507f4f6e6c7920636f6e7472616374206f776e65722068617320616363657373207460008301527f6f20746869732066756e6374696f6e21000000000000000000000000000000006020830152604082019050919050565b6000610c9f603583610fa8565b91507f4f6e6c7920756e7265676973746572656420756573727320686176652061636360008301527f65737320746f20746869732066756e6374696f6e2100000000000000000000006020830152604082019050919050565b6000610d05603a83610fa8565b91507f4f6e6c79207265676973746572656420696e737469747574696f6e732068617660008301527f652061636365737320746f20746869732066756e6374696f6e210000000000006020830152604082019050919050565b60006040830160008301518482036000860152610d7b8282610be4565b9150506020830151610d906020860182610dd8565b508091505092915050565b60006040830160008301518482036000860152610db88282610be4565b9150506020830151610dcd6020860182610dd8565b508091505092915050565b610de181610ffe565b82525050565b6000602082019050610dfc6000830184610aeb565b92915050565b60006020820190508181036000830152610e1c8184610afa565b905092915050565b60006020820190508181036000830152610e3e8184610b6f565b905092915050565b6000602082019050610e5b6000830184610c1d565b92915050565b60006020820190508181036000830152610e7a81610c2c565b9050919050565b60006020820190508181036000830152610e9a81610c92565b9050919050565b60006020820190508181036000830152610eba81610cf8565b9050919050565b6000604051905081810181811067ffffffffffffffff82111715610ee457600080fd5b8060405250919050565b600067ffffffffffffffff821115610f0557600080fd5b601f19601f8301169050602081019050919050565b6000819050602082019050919050565b6000819050602082019050919050565b600081519050919050565b600081519050919050565b600081519050919050565b6000602082019050919050565b6000602082019050919050565b600082825260208201905092915050565b600082825260208201905092915050565b600082825260208201905092915050565b600082825260208201905092915050565b6000610fc482610fde565b9050919050565b6000819050610fd98261106d565b919050565b600073ffffffffffffffffffffffffffffffffffffffff82169050919050565b6000819050919050565b600061101382610fcb565b9050919050565b82818337600083830152505050565b60005b8381101561104757808201518184015260208101905061102c565b83811115611056576000848401525b50505050565b6000601f19601f8301169050919050565b6004811061107757fe5b50565b61108381610fb9565b811461108e57600080fd5b50565b61109a81610ffe565b81146110a557600080fd5b5056fea365627a7a723158203d3ef8715b360bb425e47151322611c69ff50ab590405ccbe266ceab5f4db1316c6578706572696d656e74616cf564736f6c63430005100040",
  "source": "pragma solidity ^0.5.0;\r\npragma experimental ABIEncoderV2;\r\n\r\nimport \"../node_modules/@openzeppelin/contracts/math/SafeMath.sol\";\r\n\r\ncontract BlockEcosystem {\r\n    using SafeMath for uint256;\r\n\r\n    address contractOwner;\r\n\r\n    enum Identity { undefined, individual, institution, owner }\r\n\r\n    struct Interaction {\r\n        bytes interactionHash;\r\n        uint dateTime;\r\n    }\r\n\r\n    struct Feedback {\r\n        bytes text;\r\n        uint dateTime;\r\n    }\r\n\r\n    constructor() public {\r\n        contractOwner = msg.sender;\r\n        userIdentity[msg.sender] = Identity.owner;\r\n    }\r\n\r\n    mapping(address => Interaction[]) individualProfile;\r\n    mapping(address => Feedback[]) organizationFeedback; \r\n    mapping(address => mapping(address => uint)) previousInteraction;\r\n\r\n    mapping(address => Identity) userIdentity;\r\n\r\n    event AddedInteraction(address);\r\n    event AddedFeedBack(address);\r\n    event RegisteredInstitution(address);\r\n\r\n    modifier isContractOwner() {\r\n        require(msg.sender == contractOwner, \"Only contract owner has access to this function!\");\r\n        _;\r\n    }\r\n\r\n    modifier isRegisteredInstitution () {\r\n        require(userIdentity[msg.sender] == Identity.institution, \"Only registered institutions have access to this function!\");\r\n        _;\r\n    }\r\n\r\n    modifier isUnregisteredUser() {\r\n        require(userIdentity[msg.sender] == Identity.undefined, \"Only unregistered uesrs have access to this function!\");\r\n        _;\r\n    }\r\n\r\n    function registerIndividual() public isUnregisteredUser() {\r\n        userIdentity[msg.sender] = Identity.individual;\r\n    }\r\n\r\n    function registerInstitution(address newInstitution) public isContractOwner() {\r\n        userIdentity[newInstitution] = Identity.institution;\r\n    }\r\n\r\n    function addInteraction(bytes memory interactionHash, uint timestamp, address recipient) public isRegisteredInstitution() {\r\n        Interaction memory newInteraction = Interaction(interactionHash, timestamp);\r\n        individualProfile[recipient].push(newInteraction);\r\n        emit AddedInteraction(recipient);\r\n    }\r\n\r\n    function getInteraction(address individual) public view returns (Interaction[] memory) {\r\n        return individualProfile[individual];\r\n    }\r\n\r\n    function addFeedback(bytes memory feedbackText, uint timestamp, address institution) public {\r\n        Feedback memory newFeedback = Feedback(feedbackText, timestamp);\r\n        organizationFeedback[institution].push(newFeedback);\r\n        emit AddedFeedBack(institution);\r\n    }\r\n\r\n    function getFeedback(address institution) public view returns (Feedback[] memory) {\r\n        return organizationFeedback[institution];\r\n    }\r\n\r\n    function checkUserIdentity(address userAddress) public view returns (Identity) {\r\n        return userIdentity[userAddress];\r\n    }\r\n\r\n}",
  "sourcePath": "C:\\Users\\Huang Ming\\Desktop\\LifeBlock (My Version)\\BackEnd\\contracts\\BlockEcosystem.sol",
  "compiler": {
    "name": "solc",
    "version": "0.5.16+commit.9c3226ce.Emscripten.clang"
  },
  "schemaVersion": "3.0.23",
  "updatedAt": "2020-03-31T08:23:59.858Z",
  "devdoc": {
    "methods": {}
  },
  "userdoc": {
    "methods": {}
  }
}