{
  "contractName": "BlockEcosystem",
  "abi": [
    {
      "inputs": [],
      "payable": false,
      "stateMutability": "nonpayable",
      "type": "constructor"
    },
    {
      "anonymous": false,
      "inputs": [
        {
          "indexed": false,
          "internalType": "address",
          "name": "",
          "type": "address"
        }
      ],
      "name": "AddedFeedBack",
      "type": "event"
    },
    {
      "anonymous": false,
      "inputs": [
        {
          "indexed": false,
          "internalType": "address",
          "name": "",
          "type": "address"
        }
      ],
      "name": "AddedInteraction",
      "type": "event"
    },
    {
      "anonymous": false,
      "inputs": [
        {
          "indexed": false,
          "internalType": "address",
          "name": "",
          "type": "address"
        }
      ],
      "name": "RegisteredInstitution",
      "type": "event"
    },
    {
      "constant": false,
      "inputs": [],
      "name": "registerIndividual",
      "outputs": [],
      "payable": false,
      "stateMutability": "nonpayable",
      "type": "function"
    },
    {
      "constant": false,
      "inputs": [
        {
          "internalType": "address",
          "name": "newInstitution",
          "type": "address"
        }
      ],
      "name": "registerInstitution",
      "outputs": [],
      "payable": false,
      "stateMutability": "nonpayable",
      "type": "function"
    },
    {
      "constant": false,
      "inputs": [
        {
          "internalType": "bytes",
          "name": "interactionHash",
          "type": "bytes"
        },
        {
          "internalType": "address",
          "name": "recipient",
          "type": "address"
        }
      ],
      "name": "addInteraction",
      "outputs": [],
      "payable": false,
      "stateMutability": "nonpayable",
      "type": "function"
    },
    {
      "constant": true,
      "inputs": [
        {
          "internalType": "address",
          "name": "individual",
          "type": "address"
        }
      ],
      "name": "getInteraction",
      "outputs": [
        {
          "internalType": "bytes[]",
          "name": "",
          "type": "bytes[]"
        }
      ],
      "payable": false,
      "stateMutability": "view",
      "type": "function"
    },
    {
      "constant": false,
      "inputs": [
        {
          "internalType": "bytes",
          "name": "feedbackText",
          "type": "bytes"
        },
        {
          "internalType": "address",
          "name": "institution",
          "type": "address"
        }
      ],
      "name": "addFeedback",
      "outputs": [],
      "payable": false,
      "stateMutability": "nonpayable",
      "type": "function"
    },
    {
      "constant": true,
      "inputs": [
        {
          "internalType": "address",
          "name": "institution",
          "type": "address"
        }
      ],
      "name": "getFeedback",
      "outputs": [
        {
          "internalType": "bytes[]",
          "name": "",
          "type": "bytes[]"
        }
      ],
      "payable": false,
      "stateMutability": "view",
      "type": "function"
    }
  ],
  "bytecode": "0x608060405234801561001057600080fd5b50336000806101000a81548173ffffffffffffffffffffffffffffffffffffffff021916908373ffffffffffffffffffffffffffffffffffffffff160217905550610d4b806100606000396000f3fe608060405234801561001057600080fd5b50600436106100625760003560e01c80631b544934146100675780631d17042914610097578063b6267ae8146100b3578063c7b059a7146100bd578063f06d80fc146100d9578063f72b1628146100f5575b600080fd5b610081600480360361007c9190810190610890565b610125565b60405161008e9190610b2b565b60405180910390f35b6100b160048036036100ac91908101906108b9565b61024d565b005b6100bb610304565b005b6100d760048036036100d291908101906108b9565b61040c565b005b6100f360048036036100ee9190810190610890565b610567565b005b61010f600480360361010a9190810190610890565b61065a565b60405161011c9190610b2b565b60405180910390f35b6060600160008373ffffffffffffffffffffffffffffffffffffffff1673ffffffffffffffffffffffffffffffffffffffff168152602001908152602001600020805480602002602001604051908101604052809291908181526020016000905b82821015610242578382906000526020600020018054600181600116156101000203166002900480601f01602080910402602001604051908101604052809291908181526020018280546001816001161561010002031660029004801561022e5780601f106102035761010080835404028352916020019161022e565b820191906000526020600020905b81548152906001019060200180831161021157829003601f168201915b505050505081526020019060010190610186565b505050509050919050565b600260008273ffffffffffffffffffffffffffffffffffffffff1673ffffffffffffffffffffffffffffffffffffffff1681526020019081526020016000208290806001815401808255809150509060018203906000526020600020016000909192909190915090805190602001906102c7929190610782565b50507f1694ac9ddbd8f8348b506e1cdfa239bbcfc4c466066bc550e60b508aa109266e816040516102f89190610b10565b60405180910390a15050565b6000600281111561031157fe5b600460003373ffffffffffffffffffffffffffffffffffffffff1673ffffffffffffffffffffffffffffffffffffffff16815260200190815260200160002060009054906101000a900460ff16600281111561036957fe5b146103a9576040517f08c379a00000000000000000000000000000000000000000000000000000000081526004016103a090610b6d565b60405180910390fd5b6001600460003373ffffffffffffffffffffffffffffffffffffffff1673ffffffffffffffffffffffffffffffffffffffff16815260200190815260200160002060006101000a81548160ff0219169083600281111561040557fe5b0217905550565b60028081111561041857fe5b600460003373ffffffffffffffffffffffffffffffffffffffff1673ffffffffffffffffffffffffffffffffffffffff16815260200190815260200160002060009054906101000a900460ff16600281111561047057fe5b146104b0576040517f08c379a00000000000000000000000000000000000000000000000000000000081526004016104a790610b8d565b60405180910390fd5b600160008273ffffffffffffffffffffffffffffffffffffffff1673ffffffffffffffffffffffffffffffffffffffff16815260200190815260200160002082908060018154018082558091505090600182039060005260206000200160009091929091909150908051906020019061052a929190610782565b50507f3996fb11798e0eb60ad7b5b88e49e61ec8a8ab3a6f6d16f8cec50121372468728160405161055b9190610b10565b60405180910390a15050565b6000809054906101000a900473ffffffffffffffffffffffffffffffffffffffff1673ffffffffffffffffffffffffffffffffffffffff163373ffffffffffffffffffffffffffffffffffffffff16146105f6576040517f08c379a00000000000000000000000000000000000000000000000000000000081526004016105ed90610b4d565b60405180910390fd5b6002600460008373ffffffffffffffffffffffffffffffffffffffff1673ffffffffffffffffffffffffffffffffffffffff16815260200190815260200160002060006101000a81548160ff0219169083600281111561065257fe5b021790555050565b6060600260008373ffffffffffffffffffffffffffffffffffffffff1673ffffffffffffffffffffffffffffffffffffffff168152602001908152602001600020805480602002602001604051908101604052809291908181526020016000905b82821015610777578382906000526020600020018054600181600116156101000203166002900480601f0160208091040260200160405190810160405280929190818152602001828054600181600116156101000203166002900480156107635780601f1061073857610100808354040283529160200191610763565b820191906000526020600020905b81548152906001019060200180831161074657829003601f168201915b5050505050815260200190600101906106bb565b505050509050919050565b828054600181600116156101000203166002900490600052602060002090601f016020900481019282601f106107c357805160ff19168380011785556107f1565b828001600101855582156107f1579182015b828111156107f05782518255916020019190600101906107d5565b5b5090506107fe9190610802565b5090565b61082491905b80821115610820576000816000905550600101610808565b5090565b90565b60008135905061083681610cf1565b92915050565b600082601f83011261084d57600080fd5b813561086061085b82610bda565b610bad565b9150808252602083016020830185838301111561087c57600080fd5b610887838284610c9e565b50505092915050565b6000602082840312156108a257600080fd5b60006108b084828501610827565b91505092915050565b600080604083850312156108cc57600080fd5b600083013567ffffffffffffffff8111156108e657600080fd5b6108f28582860161083c565b925050602061090385828601610827565b9150509250929050565b600061091983836109a5565b905092915050565b61092a81610c6c565b82525050565b600061093b82610c16565b6109458185610c39565b93508360208202850161095785610c06565b8060005b858110156109935784840389528151610974858261090d565b945061097f83610c2c565b925060208a0199505060018101905061095b565b50829750879550505050505092915050565b60006109b082610c21565b6109ba8185610c4a565b93506109ca818560208601610cad565b6109d381610ce0565b840191505092915050565b60006109eb603083610c5b565b91507f4f6e6c7920636f6e7472616374206f776e65722068617320616363657373207460008301527f6f20746869732066756e6374696f6e21000000000000000000000000000000006020830152604082019050919050565b6000610a51603583610c5b565b91507f4f6e6c7920756e7265676973746572656420756573727320686176652061636360008301527f65737320746f20746869732066756e6374696f6e2100000000000000000000006020830152604082019050919050565b6000610ab7603a83610c5b565b91507f4f6e6c79207265676973746572656420696e737469747574696f6e732068617660008301527f652061636365737320746f20746869732066756e6374696f6e210000000000006020830152604082019050919050565b6000602082019050610b256000830184610921565b92915050565b60006020820190508181036000830152610b458184610930565b905092915050565b60006020820190508181036000830152610b66816109de565b9050919050565b60006020820190508181036000830152610b8681610a44565b9050919050565b60006020820190508181036000830152610ba681610aaa565b9050919050565b6000604051905081810181811067ffffffffffffffff82111715610bd057600080fd5b8060405250919050565b600067ffffffffffffffff821115610bf157600080fd5b601f19601f8301169050602081019050919050565b6000819050602082019050919050565b600081519050919050565b600081519050919050565b6000602082019050919050565b600082825260208201905092915050565b600082825260208201905092915050565b600082825260208201905092915050565b6000610c7782610c7e565b9050919050565b600073ffffffffffffffffffffffffffffffffffffffff82169050919050565b82818337600083830152505050565b60005b83811015610ccb578082015181840152602081019050610cb0565b83811115610cda576000848401525b50505050565b6000601f19601f8301169050919050565b610cfa81610c6c565b8114610d0557600080fd5b5056fea365627a7a72315820f2be448a9346f2a6ad3d357ab99d2e6ee4ae09fd210825d0b3d63e49024b83e46c6578706572696d656e74616cf564736f6c63430005100040",
  "source": "pragma solidity ^0.5.0;\r\npragma experimental ABIEncoderV2;\r\n\r\nimport \"../node_modules/@openzeppelin/contracts/math/SafeMath.sol\";\r\n\r\ncontract BlockEcosystem {\r\n    using SafeMath for uint256;\r\n\r\n    address contractOwner;\r\n\r\n    enum Identity { undefined, individual, institution }\r\n\r\n    constructor() public {\r\n        contractOwner = msg.sender;\r\n    }\r\n\r\n    mapping(address => bytes[]) individualProfile;\r\n    mapping(address => bytes[]) organizationFeedback; \r\n    mapping(address => mapping(address => uint)) previousInteraction;\r\n\r\n    mapping(address => Identity) userIdentity;\r\n\r\n    event AddedInteraction(address);\r\n    event AddedFeedBack(address);\r\n    event RegisteredInstitution(address);\r\n\r\n    modifier isContractOwner() {\r\n        require(msg.sender == contractOwner, \"Only contract owner has access to this function!\");\r\n        _;\r\n    }\r\n\r\n    modifier isRegisteredInstitution () {\r\n        require(userIdentity[msg.sender] == Identity.institution, \"Only registered institutions have access to this function!\");\r\n        _;\r\n    }\r\n\r\n    modifier isUnregisteredUser() {\r\n        require(userIdentity[msg.sender] == Identity.undefined, \"Only unregistered uesrs have access to this function!\");\r\n        _;\r\n    }\r\n\r\n    function registerIndividual() public isUnregisteredUser() {\r\n        userIdentity[msg.sender] = Identity.individual;\r\n    }\r\n\r\n    function registerInstitution(address newInstitution) public isContractOwner() {\r\n        userIdentity[newInstitution] = Identity.institution;\r\n    }\r\n\r\n    function addInteraction(bytes memory interactionHash, address recipient) public isRegisteredInstitution() {\r\n        individualProfile[recipient].push(interactionHash);\r\n        emit AddedInteraction(recipient);\r\n    }\r\n\r\n    function getInteraction(address individual) public view returns (bytes[] memory) {\r\n        return individualProfile[individual];\r\n    }\r\n\r\n    function addFeedback(bytes memory feedbackText, address institution) public {\r\n        organizationFeedback[institution].push(feedbackText);\r\n        emit AddedFeedBack(institution);\r\n    }\r\n\r\n    function getFeedback(address institution) public view returns (bytes[] memory) {\r\n        return organizationFeedback[institution];\r\n    }\r\n\r\n}",
  "sourcePath": "C:\\Users\\Huang Ming\\Desktop\\LifeBlock\\BackEnd\\contracts\\BlockEcosystem.sol",
  "compiler": {
    "name": "solc",
    "version": "0.5.16+commit.9c3226ce.Emscripten.clang"
  },
  "schemaVersion": "3.0.23",
  "updatedAt": "2020-03-23T05:13:41.156Z",
  "devdoc": {
    "methods": {}
  },
  "userdoc": {
    "methods": {}
  }
}