{
  "contractName": "BlockEcosystem",
  "abi": [
    {
      "inputs": [],
      "payable": false,
      "stateMutability": "nonpayable",
      "type": "constructor"
    },
    {
      "anonymous": false,
      "inputs": [
        {
          "indexed": false,
          "internalType": "address",
          "name": "",
          "type": "address"
        }
      ],
      "name": "AddedFeedBack",
      "type": "event"
    },
    {
      "anonymous": false,
      "inputs": [
        {
          "indexed": false,
          "internalType": "address",
          "name": "",
          "type": "address"
        }
      ],
      "name": "AddedInteraction",
      "type": "event"
    },
    {
      "anonymous": false,
      "inputs": [
        {
          "indexed": false,
          "internalType": "uint256",
          "name": "",
          "type": "uint256"
        },
        {
          "indexed": false,
          "internalType": "address",
          "name": "",
          "type": "address"
        }
      ],
      "name": "InvalidateFeedback",
      "type": "event"
    },
    {
      "anonymous": false,
      "inputs": [
        {
          "indexed": false,
          "internalType": "bytes",
          "name": "",
          "type": "bytes"
        }
      ],
      "name": "InvalidateInteraction",
      "type": "event"
    },
    {
      "anonymous": false,
      "inputs": [
        {
          "indexed": false,
          "internalType": "address",
          "name": "",
          "type": "address"
        }
      ],
      "name": "RegisteredInstitution",
      "type": "event"
    },
    {
      "constant": false,
      "inputs": [
        {
          "internalType": "address",
          "name": "institutionAddress",
          "type": "address"
        }
      ],
      "name": "approveCA",
      "outputs": [],
      "payable": false,
      "stateMutability": "nonpayable",
      "type": "function"
    },
    {
      "constant": false,
      "inputs": [
        {
          "internalType": "bytes",
          "name": "individualName",
          "type": "bytes"
        }
      ],
      "name": "registerIndividual",
      "outputs": [],
      "payable": false,
      "stateMutability": "nonpayable",
      "type": "function"
    },
    {
      "constant": false,
      "inputs": [
        {
          "internalType": "address",
          "name": "newInstitution",
          "type": "address"
        },
        {
          "internalType": "bytes",
          "name": "institutionName",
          "type": "bytes"
        }
      ],
      "name": "registerInstitution",
      "outputs": [],
      "payable": false,
      "stateMutability": "nonpayable",
      "type": "function"
    },
    {
      "constant": false,
      "inputs": [
        {
          "internalType": "bytes",
          "name": "interactionHash",
          "type": "bytes"
        },
        {
          "internalType": "uint256",
          "name": "timestamp",
          "type": "uint256"
        },
        {
          "internalType": "address",
          "name": "recipient",
          "type": "address"
        }
      ],
      "name": "addInteraction",
      "outputs": [],
      "payable": false,
      "stateMutability": "nonpayable",
      "type": "function"
    },
    {
      "constant": false,
      "inputs": [
        {
          "internalType": "bytes",
          "name": "interactionHash",
          "type": "bytes"
        },
        {
          "internalType": "address",
          "name": "recipient",
          "type": "address"
        }
      ],
      "name": "invalidateInteraction",
      "outputs": [],
      "payable": false,
      "stateMutability": "nonpayable",
      "type": "function"
    },
    {
      "constant": false,
      "inputs": [
        {
          "internalType": "bytes",
          "name": "feedbackText",
          "type": "bytes"
        },
        {
          "internalType": "uint256",
          "name": "timestamp",
          "type": "uint256"
        },
        {
          "internalType": "address",
          "name": "institution",
          "type": "address"
        }
      ],
      "name": "addFeedback",
      "outputs": [],
      "payable": false,
      "stateMutability": "nonpayable",
      "type": "function"
    },
    {
      "constant": false,
      "inputs": [
        {
          "internalType": "uint256",
          "name": "feedbackID",
          "type": "uint256"
        },
        {
          "internalType": "address",
          "name": "institution",
          "type": "address"
        }
      ],
      "name": "invalidateFeedback",
      "outputs": [],
      "payable": false,
      "stateMutability": "nonpayable",
      "type": "function"
    },
    {
      "constant": true,
      "inputs": [],
      "name": "getUploadedInteraction",
      "outputs": [
        {
          "components": [
            {
              "internalType": "bytes",
              "name": "interactionHash",
              "type": "bytes"
            },
            {
              "internalType": "uint256",
              "name": "dateTime",
              "type": "uint256"
            },
            {
              "internalType": "address",
              "name": "issuer",
              "type": "address"
            },
            {
              "internalType": "address",
              "name": "recipient",
              "type": "address"
            },
            {
              "internalType": "bool",
              "name": "isValid",
              "type": "bool"
            }
          ],
          "internalType": "struct BlockEcosystem.Interaction[]",
          "name": "",
          "type": "tuple[]"
        }
      ],
      "payable": false,
      "stateMutability": "view",
      "type": "function"
    },
    {
      "constant": true,
      "inputs": [],
      "name": "getAddedFeedback",
      "outputs": [
        {
          "components": [
            {
              "internalType": "uint256",
              "name": "id",
              "type": "uint256"
            },
            {
              "internalType": "bytes",
              "name": "text",
              "type": "bytes"
            },
            {
              "internalType": "uint256",
              "name": "dateTime",
              "type": "uint256"
            },
            {
              "internalType": "address",
              "name": "issuer",
              "type": "address"
            },
            {
              "internalType": "address",
              "name": "recipient",
              "type": "address"
            },
            {
              "internalType": "bool",
              "name": "isValid",
              "type": "bool"
            }
          ],
          "internalType": "struct BlockEcosystem.Feedback[]",
          "name": "",
          "type": "tuple[]"
        }
      ],
      "payable": false,
      "stateMutability": "view",
      "type": "function"
    },
    {
      "constant": true,
      "inputs": [
        {
          "internalType": "address",
          "name": "individual",
          "type": "address"
        }
      ],
      "name": "getInteraction",
      "outputs": [
        {
          "components": [
            {
              "internalType": "bytes",
              "name": "interactionHash",
              "type": "bytes"
            },
            {
              "internalType": "uint256",
              "name": "dateTime",
              "type": "uint256"
            },
            {
              "internalType": "address",
              "name": "issuer",
              "type": "address"
            },
            {
              "internalType": "address",
              "name": "recipient",
              "type": "address"
            },
            {
              "internalType": "bool",
              "name": "isValid",
              "type": "bool"
            }
          ],
          "internalType": "struct BlockEcosystem.Interaction[]",
          "name": "",
          "type": "tuple[]"
        }
      ],
      "payable": false,
      "stateMutability": "view",
      "type": "function"
    },
    {
      "constant": true,
      "inputs": [
        {
          "internalType": "address",
          "name": "institution",
          "type": "address"
        }
      ],
      "name": "getFeedback",
      "outputs": [
        {
          "components": [
            {
              "internalType": "uint256",
              "name": "id",
              "type": "uint256"
            },
            {
              "internalType": "bytes",
              "name": "text",
              "type": "bytes"
            },
            {
              "internalType": "uint256",
              "name": "dateTime",
              "type": "uint256"
            },
            {
              "internalType": "address",
              "name": "issuer",
              "type": "address"
            },
            {
              "internalType": "address",
              "name": "recipient",
              "type": "address"
            },
            {
              "internalType": "bool",
              "name": "isValid",
              "type": "bool"
            }
          ],
          "internalType": "struct BlockEcosystem.Feedback[]",
          "name": "",
          "type": "tuple[]"
        }
      ],
      "payable": false,
      "stateMutability": "view",
      "type": "function"
    },
    {
      "constant": true,
      "inputs": [
        {
          "internalType": "address",
          "name": "userAddress",
          "type": "address"
        }
      ],
      "name": "checkUserIdentity",
      "outputs": [
        {
          "internalType": "enum BlockEcosystem.Identity",
          "name": "",
          "type": "uint8"
        }
      ],
      "payable": false,
      "stateMutability": "view",
      "type": "function"
    },
    {
      "constant": true,
      "inputs": [
        {
          "internalType": "address",
          "name": "targettedAddress",
          "type": "address"
        }
      ],
      "name": "getName",
      "outputs": [
        {
          "internalType": "bytes",
          "name": "",
          "type": "bytes"
        }
      ],
      "payable": false,
      "stateMutability": "view",
      "type": "function"
    }
  ],
  "bytecode": "0x60806040523480156200001157600080fd5b50336000806101000a81548173ffffffffffffffffffffffffffffffffffffffff021916908373ffffffffffffffffffffffffffffffffffffffff1602179055506003600260003373ffffffffffffffffffffffffffffffffffffffff1673ffffffffffffffffffffffffffffffffffffffff16815260200190815260200160002060006101000a81548160ff02191690836003811115620000af57fe5b02179055506001600460003373ffffffffffffffffffffffffffffffffffffffff1673ffffffffffffffffffffffffffffffffffffffff16815260200190815260200160002060006101000a81548160ff0219169083151502179055506040518060400160405280600681526020017f486f6c616c610000000000000000000000000000000000000000000000000000815250600360003373ffffffffffffffffffffffffffffffffffffffff1673ffffffffffffffffffffffffffffffffffffffff1681526020019081526020016000209080519060200190620001969291906200019d565b506200024c565b828054600181600116156101000203166002900490600052602060002090601f016020900481019282601f10620001e057805160ff191683800117855562000211565b8280016001018555821562000211579182015b8281111562000210578251825591602001919060010190620001f3565b5b50905062000220919062000224565b5090565b6200024991905b80821115620002455760008160009055506001016200022b565b5090565b90565b613168806200025c6000396000f3fe608060405234801561001057600080fd5b50600436106100cf5760003560e01c8063aa380ecc1161008c578063e3c1d73a11610066578063e3c1d73a146101fc578063ec9c19571461022c578063f041466514610248578063f72b162814610264576100cf565b8063aa380ecc146101a6578063cc0a06c0146101c4578063d61a8eee146101e0576100cf565b806309c6c290146100d457806319ea5501146100f05780631b5449341461010c5780633ee9853d1461013c5780635fd4b08a14610158578063835f1ab914610188575b600080fd5b6100ee60048036036100e991908101906126fa565b610294565b005b61010a60048036036101059190810190612611565b6107b4565b005b610126600480360361012191908101906125e8565b6108ff565b6040516101339190612da3565b60405180910390f35b61015660048036036101519190810190612665565b610b10565b005b610172600480360361016d91908101906125e8565b610c6d565b60405161017f9190612dc5565b60405180910390f35b610190610d4e565b60405161019d9190612da3565b60405180910390f35b6101ae611004565b6040516101bb9190612d81565b60405180910390f35b6101de60048036036101d991908101906125e8565b6112c2565b005b6101fa60048036036101f59190810190612761565b611453565b005b610216600480360361021191908101906125e8565b6117ee565b6040516102239190612de7565b60405180910390f35b610246600480360361024191908101906126a6565b611844565b005b610262600480360361025d91908101906126fa565b611c34565b005b61027e600480360361027991908101906125e8565b612169565b60405161028b9190612d81565b60405180910390f35b33600260038111156102a257fe5b600260008373ffffffffffffffffffffffffffffffffffffffff1673ffffffffffffffffffffffffffffffffffffffff16815260200190815260200160002060009054906101000a900460ff1660038111156102fa57fe5b1461033a576040517f08c379a000000000000000000000000000000000000000000000000000000000815260040161033190612e02565b60405180910390fd5b610342612384565b6040518060a001604052808681526020018581526020013373ffffffffffffffffffffffffffffffffffffffff1681526020018473ffffffffffffffffffffffffffffffffffffffff168152602001600115158152509050600560008473ffffffffffffffffffffffffffffffffffffffff1673ffffffffffffffffffffffffffffffffffffffff168152602001908152602001600020819080600181540180825580915050906001820390600052602060002090600402016000909192909190915060008201518160000190805190602001906104219291906123e1565b506020820151816001015560408201518160020160006101000a81548173ffffffffffffffffffffffffffffffffffffffff021916908373ffffffffffffffffffffffffffffffffffffffff16021790555060608201518160030160006101000a81548173ffffffffffffffffffffffffffffffffffffffff021916908373ffffffffffffffffffffffffffffffffffffffff16021790555060808201518160030160146101000a81548160ff0219169083151502179055505050506000600560008573ffffffffffffffffffffffffffffffffffffffff1673ffffffffffffffffffffffffffffffffffffffff16815260200190815260200160002080549050905060018103600660008673ffffffffffffffffffffffffffffffffffffffff1673ffffffffffffffffffffffffffffffffffffffff168152602001908152602001600020876040516105759190612d4f565b908152602001604051809103902081905550600960003373ffffffffffffffffffffffffffffffffffffffff1673ffffffffffffffffffffffffffffffffffffffff1681526020019081526020016000208290806001815401808255809150509060018203906000526020600020906004020160009091929091909150600082015181600001908051906020019061060e9291906123e1565b506020820151816001015560408201518160020160006101000a81548173ffffffffffffffffffffffffffffffffffffffff021916908373ffffffffffffffffffffffffffffffffffffffff16021790555060608201518160030160006101000a81548173ffffffffffffffffffffffffffffffffffffffff021916908373ffffffffffffffffffffffffffffffffffffffff16021790555060808201518160030160146101000a81548160ff0219169083151502179055505050506000600960003373ffffffffffffffffffffffffffffffffffffffff1673ffffffffffffffffffffffffffffffffffffffff16815260200190815260200160002080549050905060018103600a60003373ffffffffffffffffffffffffffffffffffffffff1673ffffffffffffffffffffffffffffffffffffffff168152602001908152602001600020886040516107629190612d4f565b9081526020016040518091039020819055507f3996fb11798e0eb60ad7b5b88e49e61ec8a8ab3a6f6d16f8cec5012137246872856040516107a39190612d66565b60405180910390a150505050505050565b60011515600460003373ffffffffffffffffffffffffffffffffffffffff1673ffffffffffffffffffffffffffffffffffffffff16815260200190815260200160002060009054906101000a900460ff16151514610847576040517f08c379a000000000000000000000000000000000000000000000000000000000815260040161083e90612e42565b60405180910390fd5b60028060008473ffffffffffffffffffffffffffffffffffffffff1673ffffffffffffffffffffffffffffffffffffffff16815260200190815260200160002060006101000a81548160ff021916908360038111156108a257fe5b021790555080600360008473ffffffffffffffffffffffffffffffffffffffff1673ffffffffffffffffffffffffffffffffffffffff16815260200190815260200160002090805190602001906108fa929190612461565b505050565b6060600560008373ffffffffffffffffffffffffffffffffffffffff1673ffffffffffffffffffffffffffffffffffffffff168152602001908152602001600020805480602002602001604051908101604052809291908181526020016000905b82821015610b0557838290600052602060002090600402016040518060a0016040529081600082018054600181600116156101000203166002900480601f016020809104026020016040519081016040528092919081815260200182805460018160011615610100020316600290048015610a1c5780601f106109f157610100808354040283529160200191610a1c565b820191906000526020600020905b8154815290600101906020018083116109ff57829003601f168201915b50505050508152602001600182015481526020016002820160009054906101000a900473ffffffffffffffffffffffffffffffffffffffff1673ffffffffffffffffffffffffffffffffffffffff1673ffffffffffffffffffffffffffffffffffffffff1681526020016003820160009054906101000a900473ffffffffffffffffffffffffffffffffffffffff1673ffffffffffffffffffffffffffffffffffffffff1673ffffffffffffffffffffffffffffffffffffffff1681526020016003820160149054906101000a900460ff16151515158152505081526020019060010190610960565b505050509050919050565b60006003811115610b1d57fe5b600260003373ffffffffffffffffffffffffffffffffffffffff1673ffffffffffffffffffffffffffffffffffffffff16815260200190815260200160002060009054906101000a900460ff166003811115610b7557fe5b14610bb5576040517f08c379a0000000000000000000000000000000000000000000000000000000008152600401610bac90612ea2565b60405180910390fd5b6001600260003373ffffffffffffffffffffffffffffffffffffffff1673ffffffffffffffffffffffffffffffffffffffff16815260200190815260200160002060006101000a81548160ff02191690836003811115610c1157fe5b021790555080600360003373ffffffffffffffffffffffffffffffffffffffff1673ffffffffffffffffffffffffffffffffffffffff1681526020019081526020016000209080519060200190610c69929190612461565b5050565b6060600360008373ffffffffffffffffffffffffffffffffffffffff1673ffffffffffffffffffffffffffffffffffffffff1681526020019081526020016000208054600181600116156101000203166002900480601f016020809104026020016040519081016040528092919081815260200182805460018160011615610100020316600290048015610d425780601f10610d1757610100808354040283529160200191610d42565b820191906000526020600020905b815481529060010190602001808311610d2557829003601f168201915b50505050509050919050565b60603360026003811115610d5e57fe5b600260008373ffffffffffffffffffffffffffffffffffffffff1673ffffffffffffffffffffffffffffffffffffffff16815260200190815260200160002060009054906101000a900460ff166003811115610db657fe5b14610df6576040517f08c379a0000000000000000000000000000000000000000000000000000000008152600401610ded90612e02565b60405180910390fd5b600960003373ffffffffffffffffffffffffffffffffffffffff1673ffffffffffffffffffffffffffffffffffffffff168152602001908152602001600020805480602002602001604051908101604052809291908181526020016000905b82821015610ffa57838290600052602060002090600402016040518060a0016040529081600082018054600181600116156101000203166002900480601f016020809104026020016040519081016040528092919081815260200182805460018160011615610100020316600290048015610f115780601f10610ee657610100808354040283529160200191610f11565b820191906000526020600020905b815481529060010190602001808311610ef457829003601f168201915b50505050508152602001600182015481526020016002820160009054906101000a900473ffffffffffffffffffffffffffffffffffffffff1673ffffffffffffffffffffffffffffffffffffffff1673ffffffffffffffffffffffffffffffffffffffff1681526020016003820160009054906101000a900473ffffffffffffffffffffffffffffffffffffffff1673ffffffffffffffffffffffffffffffffffffffff1673ffffffffffffffffffffffffffffffffffffffff1681526020016003820160149054906101000a900460ff16151515158152505081526020019060010190610e55565b5050505091505090565b60606001600381111561101357fe5b600260003373ffffffffffffffffffffffffffffffffffffffff1673ffffffffffffffffffffffffffffffffffffffff16815260200190815260200160002060009054906101000a900460ff16600381111561106b57fe5b146110ab576040517f08c379a00000000000000000000000000000000000000000000000000000000081526004016110a290612ec2565b60405180910390fd5b600b60003373ffffffffffffffffffffffffffffffffffffffff1673ffffffffffffffffffffffffffffffffffffffff168152602001908152602001600020805480602002602001604051908101604052809291908181526020016000905b828210156112b957838290600052602060002090600502016040518060c001604052908160008201548152602001600182018054600181600116156101000203166002900480601f0160208091040260200160405190810160405280929190818152602001828054600181600116156101000203166002900480156111d05780601f106111a5576101008083540402835291602001916111d0565b820191906000526020600020905b8154815290600101906020018083116111b357829003601f168201915b50505050508152602001600282015481526020016003820160009054906101000a900473ffffffffffffffffffffffffffffffffffffffff1673ffffffffffffffffffffffffffffffffffffffff1673ffffffffffffffffffffffffffffffffffffffff1681526020016004820160009054906101000a900473ffffffffffffffffffffffffffffffffffffffff1673ffffffffffffffffffffffffffffffffffffffff1673ffffffffffffffffffffffffffffffffffffffff1681526020016004820160149054906101000a900460ff1615151515815250508152602001906001019061110a565b50505050905090565b6000809054906101000a900473ffffffffffffffffffffffffffffffffffffffff1673ffffffffffffffffffffffffffffffffffffffff163373ffffffffffffffffffffffffffffffffffffffff1614611351576040517f08c379a000000000000000000000000000000000000000000000000000000000815260040161134890612e82565b60405180910390fd5b806002600381111561135f57fe5b600260008373ffffffffffffffffffffffffffffffffffffffff1673ffffffffffffffffffffffffffffffffffffffff16815260200190815260200160002060009054906101000a900460ff1660038111156113b757fe5b146113f7576040517f08c379a00000000000000000000000000000000000000000000000000000000081526004016113ee90612e02565b60405180910390fd5b6001600460008473ffffffffffffffffffffffffffffffffffffffff1673ffffffffffffffffffffffffffffffffffffffff16815260200190815260200160002060006101000a81548160ff0219169083151502179055505050565b81816000600860008373ffffffffffffffffffffffffffffffffffffffff1673ffffffffffffffffffffffffffffffffffffffff16815260200190815260200160002060008481526020019081526020016000205490506000600760008473ffffffffffffffffffffffffffffffffffffffff1673ffffffffffffffffffffffffffffffffffffffff16815260200190815260200160002082815481106114f657fe5b906000526020600020906005020160030160009054906101000a900473ffffffffffffffffffffffffffffffffffffffff1690508073ffffffffffffffffffffffffffffffffffffffff163373ffffffffffffffffffffffffffffffffffffffff1614611598576040517f08c379a000000000000000000000000000000000000000000000000000000000815260040161158f90612e62565b60405180910390fd5b6000600860008773ffffffffffffffffffffffffffffffffffffffff1673ffffffffffffffffffffffffffffffffffffffff16815260200190815260200160002060008881526020019081526020016000205490506000600760008873ffffffffffffffffffffffffffffffffffffffff1673ffffffffffffffffffffffffffffffffffffffff168152602001908152602001600020828154811061163957fe5b906000526020600020906005020160040160146101000a81548160ff0219169083151502179055506000600760008873ffffffffffffffffffffffffffffffffffffffff1673ffffffffffffffffffffffffffffffffffffffff16815260200190815260200160002082815481106116ad57fe5b906000526020600020906005020160030160009054906101000a900473ffffffffffffffffffffffffffffffffffffffff1690506000600c60008373ffffffffffffffffffffffffffffffffffffffff1673ffffffffffffffffffffffffffffffffffffffff16815260200190815260200160002060008a81526020019081526020016000205490506000600b60008473ffffffffffffffffffffffffffffffffffffffff1673ffffffffffffffffffffffffffffffffffffffff168152602001908152602001600020828154811061178257fe5b906000526020600020906005020160040160146101000a81548160ff0219169083151502179055507f37bf27240c438d4479f915894da45e5b4f08ddf979fa0ec340c131be32d313c189896040516117db929190612ee2565b60405180910390a1505050505050505050565b6000600260008373ffffffffffffffffffffffffffffffffffffffff1673ffffffffffffffffffffffffffffffffffffffff16815260200190815260200160002060009054906101000a900460ff169050919050565b81816000600660008373ffffffffffffffffffffffffffffffffffffffff1673ffffffffffffffffffffffffffffffffffffffff168152602001908152602001600020836040516118959190612d4f565b90815260200160405180910390205490506000600560008473ffffffffffffffffffffffffffffffffffffffff1673ffffffffffffffffffffffffffffffffffffffff16815260200190815260200160002082815481106118f257fe5b906000526020600020906004020160020160009054906101000a900473ffffffffffffffffffffffffffffffffffffffff1690508273ffffffffffffffffffffffffffffffffffffffff163373ffffffffffffffffffffffffffffffffffffffff16148061198b57508073ffffffffffffffffffffffffffffffffffffffff163373ffffffffffffffffffffffffffffffffffffffff16145b6119ca576040517f08c379a00000000000000000000000000000000000000000000000000000000081526004016119c190612e22565b60405180910390fd5b6000600660008773ffffffffffffffffffffffffffffffffffffffff1673ffffffffffffffffffffffffffffffffffffffff16815260200190815260200160002087604051611a199190612d4f565b90815260200160405180910390205490506000600560008873ffffffffffffffffffffffffffffffffffffffff1673ffffffffffffffffffffffffffffffffffffffff1681526020019081526020016000208281548110611a7657fe5b906000526020600020906004020160030160146101000a81548160ff0219169083151502179055506000600560008873ffffffffffffffffffffffffffffffffffffffff1673ffffffffffffffffffffffffffffffffffffffff1681526020019081526020016000208281548110611aea57fe5b906000526020600020906004020160020160009054906101000a900473ffffffffffffffffffffffffffffffffffffffff1690506000600a60008373ffffffffffffffffffffffffffffffffffffffff1673ffffffffffffffffffffffffffffffffffffffff16815260200190815260200160002089604051611b6d9190612d4f565b90815260200160405180910390205490506000600960008473ffffffffffffffffffffffffffffffffffffffff1673ffffffffffffffffffffffffffffffffffffffff1681526020019081526020016000208281548110611bca57fe5b906000526020600020906004020160030160146101000a81548160ff0219169083151502179055507f21fad878da788fbcee4a7275fbf97dfb086b87190403f17439f8ccccd4e370ef89604051611c219190612dc5565b60405180910390a1505050505050505050565b60016003811115611c4157fe5b600260003373ffffffffffffffffffffffffffffffffffffffff1673ffffffffffffffffffffffffffffffffffffffff16815260200190815260200160002060009054906101000a900460ff166003811115611c9957fe5b14611cd9576040517f08c379a0000000000000000000000000000000000000000000000000000000008152600401611cd090612ec2565b60405180910390fd5b600060015490506001805401600181905550611cf36124e1565b6040518060c001604052808381526020018681526020018581526020013373ffffffffffffffffffffffffffffffffffffffff1681526020018473ffffffffffffffffffffffffffffffffffffffff168152602001600115158152509050600760008473ffffffffffffffffffffffffffffffffffffffff1673ffffffffffffffffffffffffffffffffffffffff1681526020019081526020016000208190806001815401808255809150509060018203906000526020600020906005020160009091929091909150600082015181600001556020820151816001019080519060200190611de29291906123e1565b506040820151816002015560608201518160030160006101000a81548173ffffffffffffffffffffffffffffffffffffffff021916908373ffffffffffffffffffffffffffffffffffffffff16021790555060808201518160040160006101000a81548173ffffffffffffffffffffffffffffffffffffffff021916908373ffffffffffffffffffffffffffffffffffffffff16021790555060a08201518160040160146101000a81548160ff0219169083151502179055505050506000600760008573ffffffffffffffffffffffffffffffffffffffff1673ffffffffffffffffffffffffffffffffffffffff16815260200190815260200160002080549050905060018103600860008673ffffffffffffffffffffffffffffffffffffffff1673ffffffffffffffffffffffffffffffffffffffff168152602001908152602001600020600085815260200190815260200160002081905550600b60003373ffffffffffffffffffffffffffffffffffffffff1673ffffffffffffffffffffffffffffffffffffffff1681526020019081526020016000208290806001815401808255809150509060018203906000526020600020906005020160009091929091909150600082015181600001556020820151816001019080519060200190611fce9291906123e1565b506040820151816002015560608201518160030160006101000a81548173ffffffffffffffffffffffffffffffffffffffff021916908373ffffffffffffffffffffffffffffffffffffffff16021790555060808201518160040160006101000a81548173ffffffffffffffffffffffffffffffffffffffff021916908373ffffffffffffffffffffffffffffffffffffffff16021790555060a08201518160040160146101000a81548160ff0219169083151502179055505050506000600b60003373ffffffffffffffffffffffffffffffffffffffff1673ffffffffffffffffffffffffffffffffffffffff16815260200190815260200160002080549050905060018103600c60003373ffffffffffffffffffffffffffffffffffffffff1673ffffffffffffffffffffffffffffffffffffffff1681526020019081526020016000206000868152602001908152602001600020819055507f1694ac9ddbd8f8348b506e1cdfa239bbcfc4c466066bc550e60b508aa109266e856040516121589190612d66565b60405180910390a150505050505050565b6060600760008373ffffffffffffffffffffffffffffffffffffffff1673ffffffffffffffffffffffffffffffffffffffff168152602001908152602001600020805480602002602001604051908101604052809291908181526020016000905b8282101561237957838290600052602060002090600502016040518060c001604052908160008201548152602001600182018054600181600116156101000203166002900480601f0160208091040260200160405190810160405280929190818152602001828054600181600116156101000203166002900480156122905780601f1061226557610100808354040283529160200191612290565b820191906000526020600020905b81548152906001019060200180831161227357829003601f168201915b50505050508152602001600282015481526020016003820160009054906101000a900473ffffffffffffffffffffffffffffffffffffffff1673ffffffffffffffffffffffffffffffffffffffff1673ffffffffffffffffffffffffffffffffffffffff1681526020016004820160009054906101000a900473ffffffffffffffffffffffffffffffffffffffff1673ffffffffffffffffffffffffffffffffffffffff1673ffffffffffffffffffffffffffffffffffffffff1681526020016004820160149054906101000a900460ff161515151581525050815260200190600101906121ca565b505050509050919050565b6040518060a001604052806060815260200160008152602001600073ffffffffffffffffffffffffffffffffffffffff168152602001600073ffffffffffffffffffffffffffffffffffffffff1681526020016000151581525090565b828054600181600116156101000203166002900490600052602060002090601f016020900481019282601f1061242257805160ff1916838001178555612450565b82800160010185558215612450579182015b8281111561244f578251825591602001919060010190612434565b5b50905061245d9190612545565b5090565b828054600181600116156101000203166002900490600052602060002090601f016020900481019282601f106124a257805160ff19168380011785556124d0565b828001600101855582156124d0579182015b828111156124cf5782518255916020019190600101906124b4565b5b5090506124dd9190612545565b5090565b6040518060c00160405280600081526020016060815260200160008152602001600073ffffffffffffffffffffffffffffffffffffffff168152602001600073ffffffffffffffffffffffffffffffffffffffff1681526020016000151581525090565b61256791905b8082111561256357600081600090555060010161254b565b5090565b90565b600081359050612579816130f7565b92915050565b600082601f83011261259057600080fd5b81356125a361259e82612f38565b612f0b565b915080825260208301602083018583830111156125bf57600080fd5b6125ca838284613097565b50505092915050565b6000813590506125e28161310e565b92915050565b6000602082840312156125fa57600080fd5b60006126088482850161256a565b91505092915050565b6000806040838503121561262457600080fd5b60006126328582860161256a565b925050602083013567ffffffffffffffff81111561264f57600080fd5b61265b8582860161257f565b9150509250929050565b60006020828403121561267757600080fd5b600082013567ffffffffffffffff81111561269157600080fd5b61269d8482850161257f565b91505092915050565b600080604083850312156126b957600080fd5b600083013567ffffffffffffffff8111156126d357600080fd5b6126df8582860161257f565b92505060206126f08582860161256a565b9150509250929050565b60008060006060848603121561270f57600080fd5b600084013567ffffffffffffffff81111561272957600080fd5b6127358682870161257f565b9350506020612746868287016125d3565b92505060406127578682870161256a565b9150509250925092565b6000806040838503121561277457600080fd5b6000612782858286016125d3565b92505060206127938582860161256a565b9150509250929050565b60006127a98383612c32565b905092915050565b60006127bd8383612cbb565b905092915050565b6127ce8161302a565b82525050565b6127dd8161302a565b82525050565b60006127ee82612f84565b6127f88185612fca565b93508360208202850161280a85612f64565b8060005b858110156128465784840389528151612827858261279d565b945061283283612fb0565b925060208a0199505060018101905061280e565b50829750879550505050505092915050565b600061286382612f8f565b61286d8185612fdb565b93508360208202850161287f85612f74565b8060005b858110156128bb578484038952815161289c85826127b1565b94506128a783612fbd565b925060208a01995050600181019050612883565b50829750879550505050505092915050565b6128d68161303c565b82525050565b60006128e782612fa5565b6128f18185612ffd565b93506129018185602086016130a6565b61290a816130d9565b840191505092915050565b600061292082612fa5565b61292a818561300e565b935061293a8185602086016130a6565b80840191505092915050565b600061295182612f9a565b61295b8185612fec565b935061296b8185602086016130a6565b612974816130d9565b840191505092915050565b61298881613085565b82525050565b600061299b601e83613019565b91507f496e737469747574696f6e206973206e6f7420726567697374657265642100006000830152602082019050919050565b60006129db603e83613019565b91507f4f6e6c792074686520726563697069656e74206f7220697373756572206f662060008301527f696e746572616374696f6e2063616e20696e76616c69646174652069742100006020830152604082019050919050565b6000612a41603583613019565b91507f4f6e6c7920617574686f72697a6564207061727469657320686176652061636360008301527f65737320746f20746869732066756e6374696f6e2100000000000000000000006020830152604082019050919050565b6000612aa7603583613019565b91507f4f6e6c792074686520666565646261636b20697373756572206861732061636360008301527f65737320746f20746869732066756e6374696f6e2100000000000000000000006020830152604082019050919050565b6000612b0d603083613019565b91507f4f6e6c7920636f6e7472616374206f776e65722068617320616363657373207460008301527f6f20746869732066756e6374696f6e21000000000000000000000000000000006020830152604082019050919050565b6000612b73603583613019565b91507f4f6e6c7920756e7265676973746572656420756573727320686176652061636360008301527f65737320746f20746869732066756e6374696f6e2100000000000000000000006020830152604082019050919050565b6000612bd9603383613019565b91507f4f6e6c792072656769737465726564207565737273206861766520616363657360008301527f7320746f20746869732066756e6374696f6e21000000000000000000000000006020830152604082019050919050565b600060c083016000830151612c4a6000860182612d31565b5060208301518482036020860152612c628282612946565b9150506040830151612c776040860182612d31565b506060830151612c8a60608601826127c5565b506080830151612c9d60808601826127c5565b5060a0830151612cb060a08601826128cd565b508091505092915050565b600060a0830160008301518482036000860152612cd88282612946565b9150506020830151612ced6020860182612d31565b506040830151612d0060408601826127c5565b506060830151612d1360608601826127c5565b506080830151612d2660808601826128cd565b508091505092915050565b612d3a8161307b565b82525050565b612d498161307b565b82525050565b6000612d5b8284612915565b915081905092915050565b6000602082019050612d7b60008301846127d4565b92915050565b60006020820190508181036000830152612d9b81846127e3565b905092915050565b60006020820190508181036000830152612dbd8184612858565b905092915050565b60006020820190508181036000830152612ddf81846128dc565b905092915050565b6000602082019050612dfc600083018461297f565b92915050565b60006020820190508181036000830152612e1b8161298e565b9050919050565b60006020820190508181036000830152612e3b816129ce565b9050919050565b60006020820190508181036000830152612e5b81612a34565b9050919050565b60006020820190508181036000830152612e7b81612a9a565b9050919050565b60006020820190508181036000830152612e9b81612b00565b9050919050565b60006020820190508181036000830152612ebb81612b66565b9050919050565b60006020820190508181036000830152612edb81612bcc565b9050919050565b6000604082019050612ef76000830185612d40565b612f0460208301846127d4565b9392505050565b6000604051905081810181811067ffffffffffffffff82111715612f2e57600080fd5b8060405250919050565b600067ffffffffffffffff821115612f4f57600080fd5b601f19601f8301169050602081019050919050565b6000819050602082019050919050565b6000819050602082019050919050565b600081519050919050565b600081519050919050565b600081519050919050565b600081519050919050565b6000602082019050919050565b6000602082019050919050565b600082825260208201905092915050565b600082825260208201905092915050565b600082825260208201905092915050565b600082825260208201905092915050565b600081905092915050565b600082825260208201905092915050565b60006130358261305b565b9050919050565b60008115159050919050565b6000819050613056826130ea565b919050565b600073ffffffffffffffffffffffffffffffffffffffff82169050919050565b6000819050919050565b600061309082613048565b9050919050565b82818337600083830152505050565b60005b838110156130c45780820151818401526020810190506130a9565b838111156130d3576000848401525b50505050565b6000601f19601f8301169050919050565b600481106130f457fe5b50565b6131008161302a565b811461310b57600080fd5b50565b6131178161307b565b811461312257600080fd5b5056fea365627a7a72315820fd54c9704ea008de2e03821e49c946477329aaa587e64aae4f0cc5c40b2d8c7f6c6578706572696d656e74616cf564736f6c63430005100040",
  "source": "pragma solidity ^0.5.0;\r\npragma experimental ABIEncoderV2;\r\n\r\nimport \"../node_modules/@openzeppelin/contracts/math/SafeMath.sol\";\r\n\r\ncontract BlockEcosystem {\r\n    using SafeMath for uint256;\r\n\r\n    address contractOwner;\r\n\r\n    enum Identity { undefined, individual, institution, owner }\r\n\r\n    struct Interaction {\r\n        bytes interactionHash;\r\n        uint dateTime;\r\n        address issuer;\r\n        address recipient;\r\n        bool isValid;\r\n    }\r\n\r\n    struct Feedback {\r\n        uint id;\r\n        bytes text;\r\n        uint dateTime;\r\n        address issuer;\r\n        address recipient;\r\n        bool isValid;\r\n    }\r\n\r\n    uint256 numberFeedback;\r\n\r\n    constructor() public {\r\n        contractOwner = msg.sender;\r\n        userIdentity[msg.sender] = Identity.owner;\r\n        authorizedList[msg.sender] = true;\r\n        registeredName[msg.sender] = \"Holala\";\r\n    }\r\n\r\n\r\n    mapping(address => Identity) userIdentity;\r\n    mapping(address => bytes) registeredName;\r\n\r\n    mapping(address => bool) authorizedList;\r\n    mapping(address => Interaction[]) individualProfile;\r\n    // maps to address to interaction hash to index\r\n    mapping(address => mapping(bytes => uint)) private _indexOfInteractionList;\r\n    mapping(address => Feedback[]) organizationFeedback; \r\n    // maps to address to feedback id to index\r\n    mapping(address => mapping(uint => uint)) private _indexOfFeedbackList;    \r\n    \r\n    mapping(address => Interaction[]) uploadedInteraction;\r\n    mapping(address => mapping(bytes => uint)) private _indexOfUploadedInteraction;\r\n\r\n    mapping(address => Feedback[]) addedFeedback;\r\n    mapping(address => mapping(uint => uint)) private _indexOfAddedFeedback;\r\n\r\n\r\n    event AddedInteraction(address);\r\n    event AddedFeedBack(address);\r\n    event RegisteredInstitution(address);\r\n    event InvalidateInteraction(bytes);\r\n    event InvalidateFeedback(uint, address);\r\n\r\n    modifier isContractOwner() {\r\n        require(msg.sender == contractOwner, \"Only contract owner has access to this function!\");\r\n        _;\r\n    }\r\n\r\n    // check if identity is either contract owner or CA\r\n    modifier isAuthorized() {\r\n        require(authorizedList[msg.sender] == true, \"Only authorized parties have access to this function!\");\r\n        _;\r\n    }\r\n\r\n    modifier eitherRecipientOrIssuer(bytes memory interactionHash, address recipient) {\r\n        uint interactionIndex = _indexOfInteractionList[recipient][interactionHash];\r\n        address issuer = individualProfile[recipient][interactionIndex].issuer;\r\n        require(msg.sender == recipient || msg.sender == issuer, \"Only the recipient or issuer of interaction can invalidate it!\");\r\n        _;\r\n    }\r\n\r\n    modifier isFeedbackIssuer(uint feedbackID, address institution) {\r\n        uint index = _indexOfFeedbackList[institution][feedbackID];\r\n        address owner = organizationFeedback[institution][index].issuer;\r\n        require(msg.sender == owner, \"Only the feedback issuer has access to this function!\");\r\n        _;\r\n    }\r\n\r\n    modifier isRegisteredInstitution (address institutionAddress) {\r\n        require(userIdentity[institutionAddress] == Identity.institution, \"Institution is not registered!\");\r\n        _;\r\n    }\r\n\r\n    modifier isRegisteredUser() {\r\n        require(userIdentity[msg.sender] == Identity.individual, \"Only registered uesrs have access to this function!\");\r\n        _;\r\n    }\r\n\r\n    modifier isUnregisteredUser() {\r\n        require(userIdentity[msg.sender] == Identity.undefined, \"Only unregistered uesrs have access to this function!\");\r\n        _;\r\n    }\r\n\r\n    // Can only be performed by contract owner, on registered institutions\r\n    function approveCA(address institutionAddress) public isContractOwner() isRegisteredInstitution(institutionAddress) {\r\n        authorizedList[institutionAddress] = true;\r\n    }\r\n\r\n    function registerIndividual(bytes memory individualName) public isUnregisteredUser() {\r\n        userIdentity[msg.sender] = Identity.individual;\r\n        registeredName[msg.sender] = individualName;\r\n    }\r\n\r\n    function registerInstitution(address newInstitution, bytes memory institutionName) public isAuthorized() {\r\n        userIdentity[newInstitution] = Identity.institution;\r\n        registeredName[newInstitution] = institutionName;\r\n    }\r\n\r\n    function addInteraction(bytes memory interactionHash, uint timestamp, address recipient) public isRegisteredInstitution(msg.sender) {\r\n        Interaction memory newInteraction = Interaction(interactionHash, timestamp, msg.sender, recipient, true);\r\n        individualProfile[recipient].push(newInteraction);\r\n        uint256 individualIndex = individualProfile[recipient].length;\r\n        _indexOfInteractionList[recipient][interactionHash] = individualIndex - 1;\r\n        \r\n        uploadedInteraction[msg.sender].push(newInteraction);\r\n        uint256 institutionIndex = uploadedInteraction[msg.sender].length;\r\n        _indexOfUploadedInteraction[msg.sender][interactionHash] = institutionIndex - 1;\r\n        emit AddedInteraction(recipient);\r\n    }\r\n\r\n    function invalidateInteraction(bytes memory interactionHash, address recipient) public eitherRecipientOrIssuer(interactionHash, recipient) {\r\n        uint interactionIndex = _indexOfInteractionList[recipient][interactionHash];\r\n        individualProfile[recipient][interactionIndex].isValid = false;\r\n\r\n        address issuer = individualProfile[recipient][interactionIndex].issuer;\r\n        uint uploadedIndex = _indexOfUploadedInteraction[issuer][interactionHash];\r\n        uploadedInteraction[issuer][uploadedIndex].isValid = false;\r\n        emit InvalidateInteraction(interactionHash);\r\n    }\r\n\r\n    function addFeedback(bytes memory feedbackText, uint timestamp, address institution) public  isRegisteredUser() {\r\n        uint newId = numberFeedback;\r\n        numberFeedback = numberFeedback + 1; \r\n        Feedback memory newFeedback = Feedback(newId, feedbackText, timestamp, msg.sender, institution, true);\r\n        organizationFeedback[institution].push(newFeedback);\r\n        uint256 institutionIndex = organizationFeedback[institution].length;\r\n        _indexOfFeedbackList[institution][newId] = institutionIndex - 1;\r\n\r\n        addedFeedback[msg.sender].push(newFeedback);\r\n        uint256 individualIndex = addedFeedback[msg.sender].length;\r\n        _indexOfAddedFeedback[msg.sender][newId] = individualIndex - 1;\r\n        emit AddedFeedBack(institution);\r\n    }\r\n\r\n    function invalidateFeedback(uint feedbackID, address institution) public isFeedbackIssuer(feedbackID, institution){\r\n        uint feedbackIndex = _indexOfFeedbackList[institution][feedbackID];\r\n        organizationFeedback[institution][feedbackIndex].isValid = false;\r\n\r\n        address issuer = organizationFeedback[institution][feedbackIndex].issuer;\r\n        uint addedIndex = _indexOfAddedFeedback[issuer][feedbackID];\r\n        addedFeedback[issuer][addedIndex].isValid = false;\r\n        emit InvalidateFeedback(feedbackID, institution);\r\n    }\r\n\r\n\r\n    // For institutions to retrieve all the interactions they uploaded.\r\n    function getUploadedInteraction() public view isRegisteredInstitution(msg.sender) returns (Interaction[] memory) {\r\n        return uploadedInteraction[msg.sender];\r\n    }\r\n\r\n    // For uesrs to retrieve all the feedback they added.\r\n    function getAddedFeedback() public view isRegisteredUser() returns (Feedback[] memory) {\r\n        return addedFeedback[msg.sender];\r\n    }\r\n\r\n    function getInteraction(address individual) public view returns (Interaction[] memory) {\r\n        return individualProfile[individual];\r\n    }\r\n\r\n    function getFeedback(address institution) public view returns (Feedback[] memory) {\r\n        return organizationFeedback[institution];\r\n    }\r\n\r\n    function checkUserIdentity(address userAddress) public view returns (Identity) {\r\n        return userIdentity[userAddress];\r\n    }\r\n\r\n    function getName(address targettedAddress) public view returns (bytes memory) {\r\n        return registeredName[targettedAddress];\r\n    }   \r\n\r\n}",
  "sourcePath": "C:\\Users\\Huang Ming\\Desktop\\LifeBlock (My Version)\\BackEnd\\contracts\\BlockEcosystem.sol",
  "compiler": {
    "name": "solc",
    "version": "0.5.16+commit.9c3226ce.Emscripten.clang"
  },
  "schemaVersion": "3.0.23",
  "updatedAt": "2020-04-12T08:47:50.904Z",
  "devdoc": {
    "methods": {}
  },
  "userdoc": {
    "methods": {}
  }
}