{
  "contractName": "Ecosystem",
  "abi": [
    {
      "inputs": [],
      "payable": false,
      "stateMutability": "nonpayable",
      "type": "constructor"
    },
    {
      "anonymous": false,
      "inputs": [
        {
          "indexed": false,
          "internalType": "address",
          "name": "",
          "type": "address"
        }
      ],
      "name": "AddCA",
      "type": "event"
    },
    {
      "anonymous": false,
      "inputs": [
        {
          "indexed": false,
          "internalType": "uint256",
          "name": "",
          "type": "uint256"
        }
      ],
      "name": "Approved",
      "type": "event"
    },
    {
      "anonymous": false,
      "inputs": [
        {
          "indexed": false,
          "internalType": "uint256",
          "name": "",
          "type": "uint256"
        }
      ],
      "name": "IssueEntity",
      "type": "event"
    },
    {
      "anonymous": false,
      "inputs": [
        {
          "indexed": false,
          "internalType": "uint256",
          "name": "",
          "type": "uint256"
        }
      ],
      "name": "Pending",
      "type": "event"
    },
    {
      "anonymous": false,
      "inputs": [
        {
          "indexed": false,
          "internalType": "uint256",
          "name": "",
          "type": "uint256"
        }
      ],
      "name": "Rejected",
      "type": "event"
    },
    {
      "anonymous": false,
      "inputs": [
        {
          "indexed": false,
          "internalType": "address",
          "name": "",
          "type": "address"
        }
      ],
      "name": "RemoveCA",
      "type": "event"
    },
    {
      "anonymous": false,
      "inputs": [
        {
          "indexed": false,
          "internalType": "uint256",
          "name": "",
          "type": "uint256"
        }
      ],
      "name": "RevokeEntity",
      "type": "event"
    },
    {
      "constant": false,
      "inputs": [
        {
          "internalType": "address",
          "name": "addressCA",
          "type": "address"
        }
      ],
      "name": "addToCA",
      "outputs": [],
      "payable": false,
      "stateMutability": "nonpayable",
      "type": "function"
    },
    {
      "constant": false,
      "inputs": [
        {
          "internalType": "address",
          "name": "addressCA",
          "type": "address"
        }
      ],
      "name": "removeFromCA",
      "outputs": [],
      "payable": false,
      "stateMutability": "nonpayable",
      "type": "function"
    },
    {
      "constant": false,
      "inputs": [
        {
          "internalType": "bytes32",
          "name": "name",
          "type": "bytes32"
        },
        {
          "internalType": "bytes32",
          "name": "UEN",
          "type": "bytes32"
        },
        {
          "internalType": "bytes16",
          "name": "industry",
          "type": "bytes16"
        },
        {
          "internalType": "bytes32",
          "name": "listedAddress",
          "type": "bytes32"
        }
      ],
      "name": "createOrganization",
      "outputs": [],
      "payable": false,
      "stateMutability": "nonpayable",
      "type": "function"
    },
    {
      "constant": false,
      "inputs": [
        {
          "internalType": "uint256",
          "name": "orgID",
          "type": "uint256"
        }
      ],
      "name": "approveOrganization",
      "outputs": [],
      "payable": false,
      "stateMutability": "nonpayable",
      "type": "function"
    },
    {
      "constant": false,
      "inputs": [
        {
          "internalType": "uint256",
          "name": "orgID",
          "type": "uint256"
        }
      ],
      "name": "removeOrganiztion",
      "outputs": [],
      "payable": false,
      "stateMutability": "nonpayable",
      "type": "function"
    },
    {
      "constant": false,
      "inputs": [
        {
          "internalType": "address",
          "name": "newEmployee",
          "type": "address"
        },
        {
          "internalType": "uint256",
          "name": "orgId",
          "type": "uint256"
        },
        {
          "internalType": "uint8",
          "name": "permission",
          "type": "uint8"
        }
      ],
      "name": "editEmployee",
      "outputs": [],
      "payable": false,
      "stateMutability": "nonpayable",
      "type": "function"
    },
    {
      "constant": false,
      "inputs": [
        {
          "internalType": "uint256",
          "name": "entityType",
          "type": "uint256"
        },
        {
          "internalType": "bytes32",
          "name": "entityName",
          "type": "bytes32"
        },
        {
          "internalType": "uint256",
          "name": "referenceID",
          "type": "uint256"
        },
        {
          "internalType": "address",
          "name": "recipient",
          "type": "address"
        },
        {
          "internalType": "uint256",
          "name": "issuingOrganization",
          "type": "uint256"
        },
        {
          "internalType": "bytes32",
          "name": "details",
          "type": "bytes32"
        }
      ],
      "name": "issueEntity",
      "outputs": [],
      "payable": false,
      "stateMutability": "nonpayable",
      "type": "function"
    },
    {
      "constant": false,
      "inputs": [
        {
          "internalType": "uint256",
          "name": "entityid",
          "type": "uint256"
        },
        {
          "internalType": "uint256",
          "name": "issuingOrganization",
          "type": "uint256"
        }
      ],
      "name": "invalidateEntity",
      "outputs": [],
      "payable": false,
      "stateMutability": "nonpayable",
      "type": "function"
    },
    {
      "constant": true,
      "inputs": [
        {
          "internalType": "uint256",
          "name": "id",
          "type": "uint256"
        }
      ],
      "name": "getName",
      "outputs": [
        {
          "internalType": "bytes32",
          "name": "",
          "type": "bytes32"
        }
      ],
      "payable": false,
      "stateMutability": "view",
      "type": "function"
    },
    {
      "constant": true,
      "inputs": [
        {
          "internalType": "uint256",
          "name": "id",
          "type": "uint256"
        }
      ],
      "name": "getUEN",
      "outputs": [
        {
          "internalType": "bytes32",
          "name": "",
          "type": "bytes32"
        }
      ],
      "payable": false,
      "stateMutability": "view",
      "type": "function"
    },
    {
      "constant": true,
      "inputs": [
        {
          "internalType": "uint256",
          "name": "id",
          "type": "uint256"
        }
      ],
      "name": "getIndustry",
      "outputs": [
        {
          "internalType": "bytes16",
          "name": "",
          "type": "bytes16"
        }
      ],
      "payable": false,
      "stateMutability": "view",
      "type": "function"
    },
    {
      "constant": true,
      "inputs": [
        {
          "internalType": "uint256",
          "name": "id",
          "type": "uint256"
        }
      ],
      "name": "getAddress",
      "outputs": [
        {
          "internalType": "bytes32",
          "name": "",
          "type": "bytes32"
        }
      ],
      "payable": false,
      "stateMutability": "view",
      "type": "function"
    },
    {
      "constant": true,
      "inputs": [],
      "name": "numberOrganization",
      "outputs": [
        {
          "internalType": "uint256",
          "name": "",
          "type": "uint256"
        }
      ],
      "payable": false,
      "stateMutability": "view",
      "type": "function"
    },
    {
      "constant": true,
      "inputs": [],
      "name": "getContractOwner",
      "outputs": [
        {
          "internalType": "address",
          "name": "",
          "type": "address"
        }
      ],
      "payable": false,
      "stateMutability": "view",
      "type": "function"
    }
  ],
  "bytecode": "0x608060405234801561001057600080fd5b50336000806101000a81548173ffffffffffffffffffffffffffffffffffffffff021916908373ffffffffffffffffffffffffffffffffffffffff1602179055506115a4806100606000396000f3fe608060405234801561001057600080fd5b50600436106100ea5760003560e01c8063af2bfb411161008c578063d3b9199511610066578063d3b9199514610398578063e440628c146103c6578063f3621b331461042e578063fdd83a2a1461048d576100ea565b8063af2bfb4114610300578063b6205c961461031e578063b93f9b0a14610356576100ea565b8063361e25aa116100c8578063361e25aa146101d7578063442890d51461021957806356a730c1146102635780636b8ff574146102be576100ea565b80630dddf063146100ef5780631557621a1461011d5780633151db5e14610193575b600080fd5b61011b6004803603602081101561010557600080fd5b81019080803590602001909291905050506104d1565b005b610191600480360360c081101561013357600080fd5b81019080803590602001909291908035906020019092919080359060200190929190803573ffffffffffffffffffffffffffffffffffffffff169060200190929190803590602001909291908035906020019092919050505061076d565b005b6101d5600480360360208110156101a957600080fd5b81019080803573ffffffffffffffffffffffffffffffffffffffff1690602001909291905050506109c2565b005b610203600480360360208110156101ed57600080fd5b8101908080359060200190929190505050610b25565b6040518082815260200191505060405180910390f35b610221610b45565b604051808273ffffffffffffffffffffffffffffffffffffffff1673ffffffffffffffffffffffffffffffffffffffff16815260200191505060405180910390f35b6102bc6004803603606081101561027957600080fd5b81019080803573ffffffffffffffffffffffffffffffffffffffff16906020019092919080359060200190929190803560ff169060200190929190505050610b6e565b005b6102ea600480360360208110156102d457600080fd5b8101908080359060200190929190505050610c9a565b6040518082815260200191505060405180910390f35b610308610cba565b6040518082815260200191505060405180910390f35b6103546004803603604081101561033457600080fd5b810190808035906020019092919080359060200190929190505050610cc4565b005b6103826004803603602081101561036c57600080fd5b8101908080359060200190929190505050610db5565b6040518082815260200191505060405180910390f35b6103c4600480360360208110156103ae57600080fd5b8101908080359060200190929190505050610dd5565b005b6103f2600480360360208110156103dc57600080fd5b8101908080359060200190929190505050610f47565b60405180826fffffffffffffffffffffffffffffffff19166fffffffffffffffffffffffffffffffff1916815260200191505060405180910390f35b61048b6004803603608081101561044457600080fd5b81019080803590602001909291908035906020019092919080356fffffffffffffffffffffffffffffffff1916906020019092919080359060200190929190505050610f74565b005b6104cf600480360360208110156104a357600080fd5b81019080803573ffffffffffffffffffffffffffffffffffffffff1690602001909291905050506111ce565b005b60011515600560003373ffffffffffffffffffffffffffffffffffffffff1673ffffffffffffffffffffffffffffffffffffffff16815260200190815260200160002060009054906101000a900460ff161515148061057c57506000809054906101000a900473ffffffffffffffffffffffffffffffffffffffff1673ffffffffffffffffffffffffffffffffffffffff163373ffffffffffffffffffffffffffffffffffffffff16145b6105d1576040517f08c379a000000000000000000000000000000000000000000000000000000000815260040180806020018281038252602f815260200180611508602f913960400191505060405180910390fd5b60016004600083815260200190815260200160002060050160006101000a81548160ff021916908315150217905550306006600083815260200190815260200160002060000160006101000a81548173ffffffffffffffffffffffffffffffffffffffff021916908373ffffffffffffffffffffffffffffffffffffffff16021790555060016006600083815260200190815260200160002060000160146101000a81548160ff0219169083600281111561068857fe5b021790555060006004600083815260200190815260200160002060000160009054906101000a900473ffffffffffffffffffffffffffffffffffffffff1690506004600860008373ffffffffffffffffffffffffffffffffffffffff1673ffffffffffffffffffffffffffffffffffffffff168152602001908152602001600020600084815260200190815260200160002060006101000a81548160ff021916908360ff1602179055507f3ad93af63cb7967b23e4fb500b7d7d28b07516325dcf341f88bebf959d82c1cb826040518082815260200191505060405180910390a15050565b81600280600860003373ffffffffffffffffffffffffffffffffffffffff1673ffffffffffffffffffffffffffffffffffffffff168152602001908152602001600020600084815260200190815260200160002060009054906101000a900460ff1660ff161015610829576040517f08c379a00000000000000000000000000000000000000000000000000000000081526004018080602001828103825260398152602001806115376039913960400191505060405180910390fd5b600060025490506108386113b9565b6040518061010001604052808b81526020018a81526020018981526020018873ffffffffffffffffffffffffffffffffffffffff1681526020018781526020013373ffffffffffffffffffffffffffffffffffffffff168152602001868152602001600115158152509050806003600084815260200190815260200160002060008201518160000155602082015181600101556040820151816002015560608201518160030160006101000a81548173ffffffffffffffffffffffffffffffffffffffff021916908373ffffffffffffffffffffffffffffffffffffffff1602179055506080820151816004015560a08201518160050160006101000a81548173ffffffffffffffffffffffffffffffffffffffff021916908373ffffffffffffffffffffffffffffffffffffffff16021790555060c0820151816006015560e08201518160070160006101000a81548160ff0219169083151502179055509050506109b0600160025461133190919063ffffffff16565b60028190555050505050505050505050565b6000809054906101000a900473ffffffffffffffffffffffffffffffffffffffff1673ffffffffffffffffffffffffffffffffffffffff163373ffffffffffffffffffffffffffffffffffffffff1614610a67576040517f08c379a00000000000000000000000000000000000000000000000000000000081526004018080602001828103825260308152602001806114d86030913960400191505060405180910390fd5b6000600560008373ffffffffffffffffffffffffffffffffffffffff1673ffffffffffffffffffffffffffffffffffffffff16815260200190815260200160002060006101000a81548160ff0219169083151502179055507f2a8c022b6283d5c03f41a36102e952cca731a7be38fa32aa1551950c766889e581604051808273ffffffffffffffffffffffffffffffffffffffff1673ffffffffffffffffffffffffffffffffffffffff16815260200191505060405180910390a150565b600060046000838152602001908152602001600020600201549050919050565b60008060009054906101000a900473ffffffffffffffffffffffffffffffffffffffff16905090565b81600280600860003373ffffffffffffffffffffffffffffffffffffffff1673ffffffffffffffffffffffffffffffffffffffff168152602001908152602001600020600084815260200190815260200160002060009054906101000a900460ff1660ff161015610c2a576040517f08c379a00000000000000000000000000000000000000000000000000000000081526004018080602001828103825260398152602001806115376039913960400191505060405180910390fd5b82600860008773ffffffffffffffffffffffffffffffffffffffff1673ffffffffffffffffffffffffffffffffffffffff168152602001908152602001600020600086815260200190815260200160002060006101000a81548160ff021916908360ff1602179055505050505050565b600060046000838152602001908152602001600020600101549050919050565b6000600154905090565b80600380600860003373ffffffffffffffffffffffffffffffffffffffff1673ffffffffffffffffffffffffffffffffffffffff168152602001908152602001600020600084815260200190815260200160002060009054906101000a900460ff1660ff161015610d80576040517f08c379a00000000000000000000000000000000000000000000000000000000081526004018080602001828103825260398152602001806115376039913960400191505060405180910390fd5b60006003600086815260200190815260200160002060070160006101000a81548160ff02191690831515021790555050505050565b600060046000838152602001908152602001600020600401549050919050565b60011515600560003373ffffffffffffffffffffffffffffffffffffffff1673ffffffffffffffffffffffffffffffffffffffff16815260200190815260200160002060009054906101000a900460ff1615151480610e8057506000809054906101000a900473ffffffffffffffffffffffffffffffffffffffff1673ffffffffffffffffffffffffffffffffffffffff163373ffffffffffffffffffffffffffffffffffffffff16145b610ed5576040517f08c379a000000000000000000000000000000000000000000000000000000000815260040180806020018281038252602f815260200180611508602f913960400191505060405180910390fd5b60026006600083815260200190815260200160002060000160146101000a81548160ff02191690836002811115610f0857fe5b02179055507f94064f919a02d0565c6790e0615fb4ba6cf1be1dd679f0161be914613a1b9bb5816040518082815260200191505060405180910390a150565b60006004600083815260200190815260200160002060030160009054906101000a900460801b9050919050565b60006001549050610f83611432565b6040518060c001604052803373ffffffffffffffffffffffffffffffffffffffff168152602001878152602001868152602001856fffffffffffffffffffffffffffffffff19168152602001848152602001600015158152509050806004600084815260200190815260200160002060008201518160000160006101000a81548173ffffffffffffffffffffffffffffffffffffffff021916908373ffffffffffffffffffffffffffffffffffffffff160217905550602082015181600101556040820151816002015560608201518160030160006101000a8154816fffffffffffffffffffffffffffffffff021916908360801c02179055506080820151816004015560a08201518160050160006101000a81548160ff0219169083151502179055509050506110b261149c565b6040518060400160405280600073ffffffffffffffffffffffffffffffffffffffff168152602001600060028111156110e757fe5b8152509050806006600085815260200190815260200160002060008201518160000160006101000a81548173ffffffffffffffffffffffffffffffffffffffff021916908373ffffffffffffffffffffffffffffffffffffffff16021790555060208201518160000160146101000a81548160ff0219169083600281111561116b57fe5b02179055509050506111886001805461133190919063ffffffff16565b6001819055507f4e2c5ab35c5a6c864cb37f0d4b556e39e83aa85e744306ad9fd3ad7cc933028b836040518082815260200191505060405180910390a150505050505050565b6000809054906101000a900473ffffffffffffffffffffffffffffffffffffffff1673ffffffffffffffffffffffffffffffffffffffff163373ffffffffffffffffffffffffffffffffffffffff1614611273576040517f08c379a00000000000000000000000000000000000000000000000000000000081526004018080602001828103825260308152602001806114d86030913960400191505060405180910390fd5b6001600560008373ffffffffffffffffffffffffffffffffffffffff1673ffffffffffffffffffffffffffffffffffffffff16815260200190815260200160002060006101000a81548160ff0219169083151502179055507fba91834e252c07f622020451af556e5e875b7749edf28b6966016b1add7631fc81604051808273ffffffffffffffffffffffffffffffffffffffff1673ffffffffffffffffffffffffffffffffffffffff16815260200191505060405180910390a150565b6000808284019050838110156113af576040517f08c379a000000000000000000000000000000000000000000000000000000000815260040180806020018281038252601b8152602001807f536166654d6174683a206164646974696f6e206f766572666c6f77000000000081525060200191505060405180910390fd5b8091505092915050565b604051806101000160405280600081526020016000801916815260200160008152602001600073ffffffffffffffffffffffffffffffffffffffff16815260200160008152602001600073ffffffffffffffffffffffffffffffffffffffff168152602001600080191681526020016000151581525090565b6040518060c00160405280600073ffffffffffffffffffffffffffffffffffffffff168152602001600080191681526020016000801916815260200160006fffffffffffffffffffffffffffffffff19168152602001600080191681526020016000151581525090565b6040518060400160405280600073ffffffffffffffffffffffffffffffffffffffff168152602001600060028111156114d157fe5b8152509056fe4f6e6c7920636f6e7472616374206f776e6572206861732061636365737320746f20746869732066756e6374696f6e214f6e6c7920617574686f72697a6564204341206861732061636365737320746f20746869732066756e6374696f6e21557365722068617320696e73756666696369656e74207065726d697373696f6e20746f20706572666f726d20746869732066756e6374696f6ea265627a7a72315820e260e067219a782c7c61c556f927149760401fa0cde77cde61483b802c4a84af64736f6c63430005100032",
  "source": "pragma solidity ^0.5.0;\r\n\r\nimport \"../node_modules/@openzeppelin/contracts/math/SafeMath.sol\";\r\n\r\ncontract Ecosystem {\r\n    using SafeMath for uint256;\r\n    address contractOwner;\r\n    uint256 organizationID;\r\n    uint256 entityID;\r\n\r\n    enum transactionState { pending, approved, rejected }\r\n\r\n    constructor() public {\r\n        contractOwner = msg.sender;\r\n    }\r\n\r\n    //entity Type 1 - Certificate; Type 2 - Recommandation Letter; 3 - Review \r\n    struct entity {\r\n        uint256 entityType;\r\n        bytes32 entityName;\r\n        uint256 referenceID;\r\n        address recipient;\r\n        uint256 issuingOrganization;\r\n        address issuer;\r\n        bytes32 details;\r\n        bool isValid;\r\n    }\r\n\r\n    mapping(uint256 => entity) entityData;\r\n\r\n    struct transactionBlock {\r\n        address certifiedAuthority;\r\n        transactionState state;\r\n    }\r\n\r\n    struct organization {\r\n        address creator;\r\n        bytes32 name;\r\n        bytes32 UEN; \r\n        bytes16 industry;\r\n        bytes32 listedAddress;\r\n        bool isValid;\r\n    }\r\n\r\n    mapping (uint256 => organization) organizations;\r\n    mapping (address => bool) certificateAuthorities;\r\n    mapping (uint256 => transactionBlock) transactionDetails;\r\n    mapping (uint256 => transactionBlock) pendingList;\r\n\r\n    // Permission Level checks the permission of an address in an organization \r\n    // 0 is lowest (not an employee); 1 is low level staff; 2 is managerial role; 3 is even higher; 4 is owner\r\n    // 3 >= to enable permission\r\n    // 4 to change owner\r\n    // 2 >= to issue entity\r\n\r\n    mapping (address => mapping(uint256 => uint8)) permissionLevel; \r\n\r\n    event Pending(uint256);\r\n    event Approved(uint256);\r\n    event Rejected(uint256);\r\n    event AddCA(address);\r\n    event RemoveCA(address);\r\n    event IssueEntity(uint256);\r\n    event RevokeEntity(uint256);\r\n\r\n    modifier sufficientPermission(uint256 orgId, uint256 requiredLevel) {\r\n        require(permissionLevel[msg.sender][orgId] >= requiredLevel, \"User has insufficient permission to perform this function\");\r\n        _;\r\n    }\r\n\r\n    modifier isContractOwner() {\r\n        require(msg.sender == contractOwner, \"Only contract owner has access to this function!\");\r\n        _;\r\n    }\r\n\r\n    // Contract owner is always an authorized CA\r\n    modifier isAuthorizedIssuer() {\r\n        require(certificateAuthorities[msg.sender] == true || msg.sender == contractOwner, \"Only authorized CA has access to this function!\");\r\n        _;\r\n    }\r\n\r\n    function addToCA(address addressCA) public isContractOwner() {\r\n        certificateAuthorities[addressCA] = true;\r\n        emit AddCA(addressCA);\r\n    }\r\n\r\n    function removeFromCA(address addressCA) public isContractOwner() {\r\n        certificateAuthorities[addressCA] = false;\r\n        emit RemoveCA(addressCA);\r\n    }\r\n\r\n    // When an organization applies to join the network for the first time\r\n    function createOrganization(bytes32 name, bytes32 UEN, bytes16 industry, bytes32 listedAddress) public {\r\n        uint256 newOrgID = organizationID;\r\n\r\n        organization memory newOrg = organization(msg.sender, name, UEN, industry, listedAddress, false);\r\n        organizations[newOrgID] = newOrg; \r\n\r\n        transactionBlock memory newBlock = transactionBlock(address(0), transactionState.pending);\r\n        transactionDetails[newOrgID] = newBlock;\r\n\r\n        organizationID = organizationID.add(1);\r\n        emit Pending(newOrgID);\r\n    }\r\n\r\n    function approveOrganization(uint256 orgID) public isAuthorizedIssuer() {\r\n        organizations[orgID].isValid = true;\r\n        transactionDetails[orgID].certifiedAuthority = address(this);\r\n        transactionDetails[orgID].state = transactionState.approved;\r\n\r\n        // Set permission level for owner\r\n        address ownerAddress = organizations[orgID].creator;\r\n\r\n        permissionLevel[ownerAddress][orgID] = 4;\r\n        emit Approved(orgID);\r\n    }\r\n\r\n    function removeOrganiztion(uint256 orgID) public isAuthorizedIssuer() {\r\n        transactionDetails[orgID].state = transactionState.rejected;\r\n        emit Rejected(orgID);\r\n    }\r\n\r\n    function editEmployee(address newEmployee, uint256 orgId, uint8 permission) public sufficientPermission(orgId, 2) {\r\n        permissionLevel[newEmployee][orgId] = permission;        \r\n    }\r\n\r\n    function issueEntity(uint256 entityType, \r\n                        bytes32 entityName, \r\n                        uint256 referenceID, \r\n                        address recipient, \r\n                        uint256 issuingOrganization,\r\n                        bytes32 details) public sufficientPermission(issuingOrganization, 2) {\r\n        uint256 newEntityID = entityID;\r\n\r\n        entity memory newEntity = entity(entityType, entityName, referenceID, recipient, issuingOrganization, msg.sender, details, true);\r\n        entityData[newEntityID] = newEntity;\r\n\r\n        entityID = entityID.add(1);\r\n    }\r\n\r\n    function invalidateEntity(uint256 entityid, uint256 issuingOrganization) public sufficientPermission(issuingOrganization, 3) {\r\n        entityData[entityid].isValid = false;\r\n    }\r\n\r\n    // Getter functions which are available for all stakeholders in the network\r\n    function getName(uint256 id) public view returns(bytes32) {\r\n        return organizations[id].name;\r\n    }\r\n\r\n    function getUEN(uint256 id) public view returns(bytes32) {\r\n        return organizations[id].UEN;\r\n    }\r\n\r\n    function getIndustry(uint256 id) public view returns(bytes16) {\r\n        return organizations[id].industry;\r\n    }\r\n\r\n    function getAddress(uint256 id) public view returns(bytes32) {\r\n        return organizations[id].listedAddress;\r\n    }\r\n\r\n    function numberOrganization() public view returns(uint256) {\r\n        return organizationID;\r\n    }\r\n\r\n    function getContractOwner() public view returns(address) {\r\n        return contractOwner;\r\n    }\r\n\r\n\r\n\r\n\r\n\r\n\r\n}",
  "sourcePath": "C:\\Users\\TP_baseline\\Desktop\\Local Repos\\BackEnd\\contracts\\Ecosystem.sol",
  "compiler": {
    "name": "solc",
    "version": "0.5.16+commit.9c3226ce.Emscripten.clang"
  },
  "schemaVersion": "3.0.23",
  "updatedAt": "2020-03-25T13:55:54.562Z",
  "devdoc": {
    "methods": {}
  },
  "userdoc": {
    "methods": {}
  }
}